Archive member included to satisfy reference by file (symbol)

/usr/local/mcuxpressoide-11.1.1_3241/ide/plugins/com.nxp.mcuxpresso.tools.linux_11.1.0.202001081728/tools/bin/../lib/gcc/arm-none-eabi/8.3.1/../../../../arm-none-eabi/lib/thumb/v6-m/nofp/libcr_nohost_nf.a(_cr__main.o)
                              ./startup/startup_mkl25z4.o (__main)
/usr/local/mcuxpressoide-11.1.1_3241/ide/plugins/com.nxp.mcuxpresso.tools.linux_11.1.0.202001081728/tools/bin/../lib/gcc/arm-none-eabi/8.3.1/../../../../arm-none-eabi/lib/thumb/v6-m/nofp/libcr_nohost_nf.a(_cr_assert.o)
                              ./source/HDU/HDU_ADC0.o (__assertion_failed)
/usr/local/mcuxpressoide-11.1.1_3241/ide/plugins/com.nxp.mcuxpresso.tools.linux_11.1.0.202001081728/tools/bin/../lib/gcc/arm-none-eabi/8.3.1/../../../../arm-none-eabi/lib/thumb/v6-m/nofp/libcr_nohost_nf.a(__ciob.o)
                              /usr/local/mcuxpressoide-11.1.1_3241/ide/plugins/com.nxp.mcuxpresso.tools.linux_11.1.0.202001081728/tools/bin/../lib/gcc/arm-none-eabi/8.3.1/../../../../arm-none-eabi/lib/thumb/v6-m/nofp/libcr_nohost_nf.a(_cr_assert.o) (__Ciob)
/usr/local/mcuxpressoide-11.1.1_3241/ide/plugins/com.nxp.mcuxpresso.tools.linux_11.1.0.202001081728/tools/bin/../lib/gcc/arm-none-eabi/8.3.1/../../../../arm-none-eabi/lib/thumb/v6-m/nofp/libcr_nohost_nf.a(__sys_appexit.o)
                              /usr/local/mcuxpressoide-11.1.1_3241/ide/plugins/com.nxp.mcuxpresso.tools.linux_11.1.0.202001081728/tools/bin/../lib/gcc/arm-none-eabi/8.3.1/../../../../arm-none-eabi/lib/thumb/v6-m/nofp/libcr_nohost_nf.a(_cr_assert.o) (__sys_appexit)
/usr/local/mcuxpressoide-11.1.1_3241/ide/plugins/com.nxp.mcuxpresso.tools.linux_11.1.0.202001081728/tools/bin/../lib/gcc/arm-none-eabi/8.3.1/../../../../arm-none-eabi/lib/thumb/v6-m/nofp/libcr_c.a(memcpy.o)
                              ./source/HDU/HDU_LINESCAN.o (memcpy)
/usr/local/mcuxpressoide-11.1.1_3241/ide/plugins/com.nxp.mcuxpresso.tools.linux_11.1.0.202001081728/tools/bin/../lib/gcc/arm-none-eabi/8.3.1/../../../../arm-none-eabi/lib/thumb/v6-m/nofp/libcr_c.a(memset.o)
                              ./drivers/fsl_flash.o (memset)
/usr/local/mcuxpressoide-11.1.1_3241/ide/plugins/com.nxp.mcuxpresso.tools.linux_11.1.0.202001081728/tools/bin/../lib/gcc/arm-none-eabi/8.3.1/../../../../arm-none-eabi/lib/thumb/v6-m/nofp/libcr_c.a(_deferredlazyseek.o)
                              /usr/local/mcuxpressoide-11.1.1_3241/ide/plugins/com.nxp.mcuxpresso.tools.linux_11.1.0.202001081728/tools/bin/../lib/gcc/arm-none-eabi/8.3.1/../../../../arm-none-eabi/lib/thumb/v6-m/nofp/libcr_nohost_nf.a(_cr_assert.o) (__flsbuf)
/usr/local/mcuxpressoide-11.1.1_3241/ide/plugins/com.nxp.mcuxpresso.tools.linux_11.1.0.202001081728/tools/bin/../lib/gcc/arm-none-eabi/8.3.1/../../../../arm-none-eabi/lib/thumb/v6-m/nofp/libcr_c.a(_fflush.o)
                              /usr/local/mcuxpressoide-11.1.1_3241/ide/plugins/com.nxp.mcuxpresso.tools.linux_11.1.0.202001081728/tools/bin/../lib/gcc/arm-none-eabi/8.3.1/../../../../arm-none-eabi/lib/thumb/v6-m/nofp/libcr_c.a(_deferredlazyseek.o) (_fflush)
/usr/local/mcuxpressoide-11.1.1_3241/ide/plugins/com.nxp.mcuxpresso.tools.linux_11.1.0.202001081728/tools/bin/../lib/gcc/arm-none-eabi/8.3.1/../../../../arm-none-eabi/lib/thumb/v6-m/nofp/libcr_c.a(_writebuf.o)
                              /usr/local/mcuxpressoide-11.1.1_3241/ide/plugins/com.nxp.mcuxpresso.tools.linux_11.1.0.202001081728/tools/bin/../lib/gcc/arm-none-eabi/8.3.1/../../../../arm-none-eabi/lib/thumb/v6-m/nofp/libcr_c.a(_deferredlazyseek.o) (_Cwritebuf)
/usr/local/mcuxpressoide-11.1.1_3241/ide/plugins/com.nxp.mcuxpresso.tools.linux_11.1.0.202001081728/tools/bin/../lib/gcc/arm-none-eabi/8.3.1/../../../../arm-none-eabi/lib/thumb/v6-m/nofp/libcr_c.a(alloc.o)
                              /usr/local/mcuxpressoide-11.1.1_3241/ide/plugins/com.nxp.mcuxpresso.tools.linux_11.1.0.202001081728/tools/bin/../lib/gcc/arm-none-eabi/8.3.1/../../../../arm-none-eabi/lib/thumb/v6-m/nofp/libcr_c.a(_deferredlazyseek.o) (_Csys_alloc)
/usr/local/mcuxpressoide-11.1.1_3241/ide/plugins/com.nxp.mcuxpresso.tools.linux_11.1.0.202001081728/tools/bin/../lib/gcc/arm-none-eabi/8.3.1/../../../../arm-none-eabi/lib/thumb/v6-m/nofp/libcr_c.a(fputs.o)
                              /usr/local/mcuxpressoide-11.1.1_3241/ide/plugins/com.nxp.mcuxpresso.tools.linux_11.1.0.202001081728/tools/bin/../lib/gcc/arm-none-eabi/8.3.1/../../../../arm-none-eabi/lib/thumb/v6-m/nofp/libcr_nohost_nf.a(_cr_assert.o) (fputs)
/usr/local/mcuxpressoide-11.1.1_3241/ide/plugins/com.nxp.mcuxpresso.tools.linux_11.1.0.202001081728/tools/bin/../lib/gcc/arm-none-eabi/8.3.1/../../../../arm-none-eabi/lib/thumb/v6-m/nofp/libcr_c.a(fseek.o)
                              /usr/local/mcuxpressoide-11.1.1_3241/ide/plugins/com.nxp.mcuxpresso.tools.linux_11.1.0.202001081728/tools/bin/../lib/gcc/arm-none-eabi/8.3.1/../../../../arm-none-eabi/lib/thumb/v6-m/nofp/libcr_c.a(_deferredlazyseek.o) (fseek)
/usr/local/mcuxpressoide-11.1.1_3241/ide/plugins/com.nxp.mcuxpresso.tools.linux_11.1.0.202001081728/tools/bin/../lib/gcc/arm-none-eabi/8.3.1/../../../../arm-none-eabi/lib/thumb/v6-m/nofp/libcr_c.a(ftell.o)
                              /usr/local/mcuxpressoide-11.1.1_3241/ide/plugins/com.nxp.mcuxpresso.tools.linux_11.1.0.202001081728/tools/bin/../lib/gcc/arm-none-eabi/8.3.1/../../../../arm-none-eabi/lib/thumb/v6-m/nofp/libcr_c.a(fseek.o) (ftell)
/usr/local/mcuxpressoide-11.1.1_3241/ide/plugins/com.nxp.mcuxpresso.tools.linux_11.1.0.202001081728/tools/bin/../lib/gcc/arm-none-eabi/8.3.1/../../../../arm-none-eabi/lib/thumb/v6-m/nofp/libcr_c.a(initio.o)
                              /usr/local/mcuxpressoide-11.1.1_3241/ide/plugins/com.nxp.mcuxpresso.tools.linux_11.1.0.202001081728/tools/bin/../lib/gcc/arm-none-eabi/8.3.1/../../../../arm-none-eabi/lib/thumb/v6-m/nofp/libcr_nohost_nf.a(_cr__main.o) (_initio)
/usr/local/mcuxpressoide-11.1.1_3241/ide/plugins/com.nxp.mcuxpresso.tools.linux_11.1.0.202001081728/tools/bin/../lib/gcc/arm-none-eabi/8.3.1/../../../../arm-none-eabi/lib/thumb/v6-m/nofp/libcr_c.a(printf.o)
                              ./source/HDU/HDU_BLUETOOTH.o (_sprintf)
/usr/local/mcuxpressoide-11.1.1_3241/ide/plugins/com.nxp.mcuxpresso.tools.linux_11.1.0.202001081728/tools/bin/../lib/gcc/arm-none-eabi/8.3.1/../../../../arm-none-eabi/lib/thumb/v6-m/nofp/libcr_c.a(setvbuf.o)
                              /usr/local/mcuxpressoide-11.1.1_3241/ide/plugins/com.nxp.mcuxpresso.tools.linux_11.1.0.202001081728/tools/bin/../lib/gcc/arm-none-eabi/8.3.1/../../../../arm-none-eabi/lib/thumb/v6-m/nofp/libcr_c.a(initio.o) (setvbuf)
/usr/local/mcuxpressoide-11.1.1_3241/ide/plugins/com.nxp.mcuxpresso.tools.linux_11.1.0.202001081728/tools/bin/../lib/gcc/arm-none-eabi/8.3.1/../../../../arm-none-eabi/lib/thumb/v6-m/nofp/libcr_c.a(strlen.o)
                              /usr/local/mcuxpressoide-11.1.1_3241/ide/plugins/com.nxp.mcuxpresso.tools.linux_11.1.0.202001081728/tools/bin/../lib/gcc/arm-none-eabi/8.3.1/../../../../arm-none-eabi/lib/thumb/v6-m/nofp/libcr_c.a(printf.o) (strlen)
/usr/local/mcuxpressoide-11.1.1_3241/ide/plugins/com.nxp.mcuxpresso.tools.linux_11.1.0.202001081728/tools/bin/../lib/gcc/arm-none-eabi/8.3.1/../../../../arm-none-eabi/lib/thumb/v6-m/nofp/libcr_c.a(__init_alloc.o)
                              /usr/local/mcuxpressoide-11.1.1_3241/ide/plugins/com.nxp.mcuxpresso.tools.linux_11.1.0.202001081728/tools/bin/../lib/gcc/arm-none-eabi/8.3.1/../../../../arm-none-eabi/lib/thumb/v6-m/nofp/libcr_c.a(alloc.o) (__heaps)
/usr/local/mcuxpressoide-11.1.1_3241/ide/plugins/com.nxp.mcuxpresso.tools.linux_11.1.0.202001081728/tools/bin/../lib/gcc/arm-none-eabi/8.3.1/../../../../arm-none-eabi/lib/thumb/v6-m/nofp/libcr_c.a(_cr_sbrk.o)
                              /usr/local/mcuxpressoide-11.1.1_3241/ide/plugins/com.nxp.mcuxpresso.tools.linux_11.1.0.202001081728/tools/bin/../lib/gcc/arm-none-eabi/8.3.1/../../../../arm-none-eabi/lib/thumb/v6-m/nofp/libcr_c.a(alloc.o) (_sbrk)
/usr/local/mcuxpressoide-11.1.1_3241/ide/plugins/com.nxp.mcuxpresso.tools.linux_11.1.0.202001081728/tools/bin/../lib/gcc/arm-none-eabi/8.3.1/../../../../arm-none-eabi/lib/thumb/v6-m/nofp/libcr_c.a(_fdopen.o)
                              /usr/local/mcuxpressoide-11.1.1_3241/ide/plugins/com.nxp.mcuxpresso.tools.linux_11.1.0.202001081728/tools/bin/../lib/gcc/arm-none-eabi/8.3.1/../../../../arm-none-eabi/lib/thumb/v6-m/nofp/libcr_c.a(initio.o) (_fdopen)
/usr/local/mcuxpressoide-11.1.1_3241/ide/plugins/com.nxp.mcuxpresso.tools.linux_11.1.0.202001081728/tools/bin/../lib/gcc/arm-none-eabi/8.3.1/../../../../arm-none-eabi/lib/thumb/v6-m/nofp/libcr_c.a(errno.o)
                              /usr/local/mcuxpressoide-11.1.1_3241/ide/plugins/com.nxp.mcuxpresso.tools.linux_11.1.0.202001081728/tools/bin/../lib/gcc/arm-none-eabi/8.3.1/../../../../arm-none-eabi/lib/thumb/v6-m/nofp/libcr_c.a(ftell.o) (errno)
/usr/local/mcuxpressoide-11.1.1_3241/ide/plugins/com.nxp.mcuxpresso.tools.linux_11.1.0.202001081728/tools/bin/../lib/gcc/arm-none-eabi/8.3.1/../../../../arm-none-eabi/lib/thumb/v6-m/nofp/libcr_c.a(fclose.o)
                              /usr/local/mcuxpressoide-11.1.1_3241/ide/plugins/com.nxp.mcuxpresso.tools.linux_11.1.0.202001081728/tools/bin/../lib/gcc/arm-none-eabi/8.3.1/../../../../arm-none-eabi/lib/thumb/v6-m/nofp/libcr_c.a(initio.o) (fclose)
/usr/local/mcuxpressoide-11.1.1_3241/ide/plugins/com.nxp.mcuxpresso.tools.linux_11.1.0.202001081728/tools/bin/../lib/gcc/arm-none-eabi/8.3.1/../../../../arm-none-eabi/lib/thumb/v6-m/nofp/libcr_c.a(fflush.o)
                              /usr/local/mcuxpressoide-11.1.1_3241/ide/plugins/com.nxp.mcuxpresso.tools.linux_11.1.0.202001081728/tools/bin/../lib/gcc/arm-none-eabi/8.3.1/../../../../arm-none-eabi/lib/thumb/v6-m/nofp/libcr_c.a(fclose.o) (fflush)
/usr/local/mcuxpressoide-11.1.1_3241/ide/plugins/com.nxp.mcuxpresso.tools.linux_11.1.0.202001081728/tools/bin/../lib/gcc/arm-none-eabi/8.3.1/../../../../arm-none-eabi/lib/thumb/v6-m/nofp/libcr_c.a(remove.o)
                              /usr/local/mcuxpressoide-11.1.1_3241/ide/plugins/com.nxp.mcuxpresso.tools.linux_11.1.0.202001081728/tools/bin/../lib/gcc/arm-none-eabi/8.3.1/../../../../arm-none-eabi/lib/thumb/v6-m/nofp/libcr_c.a(fclose.o) (remove)
/usr/local/mcuxpressoide-11.1.1_3241/ide/plugins/com.nxp.mcuxpresso.tools.linux_11.1.0.202001081728/tools/bin/../lib/gcc/arm-none-eabi/8.3.1/../../../../arm-none-eabi/lib/thumb/v6-m/nofp/libcr_c.a(_cr_check_heap.o)
                              /usr/local/mcuxpressoide-11.1.1_3241/ide/plugins/com.nxp.mcuxpresso.tools.linux_11.1.0.202001081728/tools/bin/../lib/gcc/arm-none-eabi/8.3.1/../../../../arm-none-eabi/lib/thumb/v6-m/nofp/libcr_c.a(_cr_sbrk.o) (__check_heap_overflow)
/usr/local/mcuxpressoide-11.1.1_3241/ide/plugins/com.nxp.mcuxpresso.tools.linux_11.1.0.202001081728/tools/bin/../lib/gcc/arm-none-eabi/8.3.1/../../../../arm-none-eabi/lib/thumb/v6-m/nofp/libcr_c.a(_do_fflush.o)
                              /usr/local/mcuxpressoide-11.1.1_3241/ide/plugins/com.nxp.mcuxpresso.tools.linux_11.1.0.202001081728/tools/bin/../lib/gcc/arm-none-eabi/8.3.1/../../../../arm-none-eabi/lib/thumb/v6-m/nofp/libcr_c.a(fflush.o) (_do_fflush)
/usr/local/mcuxpressoide-11.1.1_3241/ide/plugins/com.nxp.mcuxpresso.tools.linux_11.1.0.202001081728/tools/bin/../lib/gcc/arm-none-eabi/8.3.1/thumb/v6-m/nofp/libcr_eabihelpers.a(division_32.o)
                              ./drivers/fsl_tpm.o (__aeabi_idiv)
/usr/local/mcuxpressoide-11.1.1_3241/ide/plugins/com.nxp.mcuxpresso.tools.linux_11.1.0.202001081728/tools/bin/../lib/gcc/arm-none-eabi/8.3.1/thumb/v6-m/nofp/libcr_eabihelpers.a(division_64.o)
                              ./source/HDU/HDU_LINESCAN.o (__aeabi_uldivmod)
/usr/local/mcuxpressoide-11.1.1_3241/ide/plugins/com.nxp.mcuxpresso.tools.linux_11.1.0.202001081728/tools/bin/../lib/gcc/arm-none-eabi/8.3.1/thumb/v6-m/nofp/libcr_eabihelpers.a(division_idiv0.o)
                              /usr/local/mcuxpressoide-11.1.1_3241/ide/plugins/com.nxp.mcuxpresso.tools.linux_11.1.0.202001081728/tools/bin/../lib/gcc/arm-none-eabi/8.3.1/thumb/v6-m/nofp/libcr_eabihelpers.a(division_32.o) (__aeabi_idiv0)
/usr/local/mcuxpressoide-11.1.1_3241/ide/plugins/com.nxp.mcuxpresso.tools.linux_11.1.0.202001081728/tools/bin/../lib/gcc/arm-none-eabi/8.3.1/thumb/v6-m/nofp/libcr_eabihelpers.a(double.o)
                              ./source/HDU/HDU_BATSENSE.o (__aeabi_dmul)
/usr/local/mcuxpressoide-11.1.1_3241/ide/plugins/com.nxp.mcuxpresso.tools.linux_11.1.0.202001081728/tools/bin/../lib/gcc/arm-none-eabi/8.3.1/thumb/v6-m/nofp/libcr_eabihelpers.a(float.o)
                              ./source/HDU/HDU_BATSENSE.o (__aeabi_fmul)
/usr/local/mcuxpressoide-11.1.1_3241/ide/plugins/com.nxp.mcuxpresso.tools.linux_11.1.0.202001081728/tools/bin/../lib/gcc/arm-none-eabi/8.3.1/thumb/v6-m/nofp/libcr_eabihelpers.a(llong.o)
                              ./source/HDU/HDU_LINESCAN.o (__aeabi_lmul)
/usr/local/mcuxpressoide-11.1.1_3241/ide/plugins/com.nxp.mcuxpresso.tools.linux_11.1.0.202001081728/tools/bin/../lib/gcc/arm-none-eabi/8.3.1/thumb/v6-m/nofp/libcr_eabihelpers.a(memcpy.o)
                              /usr/local/mcuxpressoide-11.1.1_3241/ide/plugins/com.nxp.mcuxpresso.tools.linux_11.1.0.202001081728/tools/bin/../lib/gcc/arm-none-eabi/8.3.1/../../../../arm-none-eabi/lib/thumb/v6-m/nofp/libcr_c.a(memcpy.o) (__aeabi_memcpy)
/usr/local/mcuxpressoide-11.1.1_3241/ide/plugins/com.nxp.mcuxpresso.tools.linux_11.1.0.202001081728/tools/bin/../lib/gcc/arm-none-eabi/8.3.1/../../../../arm-none-eabi/lib/thumb/v6-m/nofp/libcr_nohost_nf.a(__sys_close.o)
                              /usr/local/mcuxpressoide-11.1.1_3241/ide/plugins/com.nxp.mcuxpresso.tools.linux_11.1.0.202001081728/tools/bin/../lib/gcc/arm-none-eabi/8.3.1/../../../../arm-none-eabi/lib/thumb/v6-m/nofp/libcr_c.a(fclose.o) (__sys_close)
/usr/local/mcuxpressoide-11.1.1_3241/ide/plugins/com.nxp.mcuxpresso.tools.linux_11.1.0.202001081728/tools/bin/../lib/gcc/arm-none-eabi/8.3.1/../../../../arm-none-eabi/lib/thumb/v6-m/nofp/libcr_nohost_nf.a(__sys_flen.o)
                              /usr/local/mcuxpressoide-11.1.1_3241/ide/plugins/com.nxp.mcuxpresso.tools.linux_11.1.0.202001081728/tools/bin/../lib/gcc/arm-none-eabi/8.3.1/../../../../arm-none-eabi/lib/thumb/v6-m/nofp/libcr_c.a(_writebuf.o) (__sys_flen)
/usr/local/mcuxpressoide-11.1.1_3241/ide/plugins/com.nxp.mcuxpresso.tools.linux_11.1.0.202001081728/tools/bin/../lib/gcc/arm-none-eabi/8.3.1/../../../../arm-none-eabi/lib/thumb/v6-m/nofp/libcr_nohost_nf.a(__sys_istty.o)
                              /usr/local/mcuxpressoide-11.1.1_3241/ide/plugins/com.nxp.mcuxpresso.tools.linux_11.1.0.202001081728/tools/bin/../lib/gcc/arm-none-eabi/8.3.1/../../../../arm-none-eabi/lib/thumb/v6-m/nofp/libcr_c.a(_deferredlazyseek.o) (__sys_istty)
/usr/local/mcuxpressoide-11.1.1_3241/ide/plugins/com.nxp.mcuxpresso.tools.linux_11.1.0.202001081728/tools/bin/../lib/gcc/arm-none-eabi/8.3.1/../../../../arm-none-eabi/lib/thumb/v6-m/nofp/libcr_nohost_nf.a(__sys_remove.o)
                              /usr/local/mcuxpressoide-11.1.1_3241/ide/plugins/com.nxp.mcuxpresso.tools.linux_11.1.0.202001081728/tools/bin/../lib/gcc/arm-none-eabi/8.3.1/../../../../arm-none-eabi/lib/thumb/v6-m/nofp/libcr_c.a(remove.o) (__sys_remove)
/usr/local/mcuxpressoide-11.1.1_3241/ide/plugins/com.nxp.mcuxpresso.tools.linux_11.1.0.202001081728/tools/bin/../lib/gcc/arm-none-eabi/8.3.1/../../../../arm-none-eabi/lib/thumb/v6-m/nofp/libcr_nohost_nf.a(__sys_rename.o)
                              /usr/local/mcuxpressoide-11.1.1_3241/ide/plugins/com.nxp.mcuxpresso.tools.linux_11.1.0.202001081728/tools/bin/../lib/gcc/arm-none-eabi/8.3.1/../../../../arm-none-eabi/lib/thumb/v6-m/nofp/libcr_c.a(remove.o) (__sys_rename)
/usr/local/mcuxpressoide-11.1.1_3241/ide/plugins/com.nxp.mcuxpresso.tools.linux_11.1.0.202001081728/tools/bin/../lib/gcc/arm-none-eabi/8.3.1/../../../../arm-none-eabi/lib/thumb/v6-m/nofp/libcr_nohost_nf.a(__sys_seek.o)
                              /usr/local/mcuxpressoide-11.1.1_3241/ide/plugins/com.nxp.mcuxpresso.tools.linux_11.1.0.202001081728/tools/bin/../lib/gcc/arm-none-eabi/8.3.1/../../../../arm-none-eabi/lib/thumb/v6-m/nofp/libcr_c.a(_writebuf.o) (__sys_seek)
/usr/local/mcuxpressoide-11.1.1_3241/ide/plugins/com.nxp.mcuxpresso.tools.linux_11.1.0.202001081728/tools/bin/../lib/gcc/arm-none-eabi/8.3.1/../../../../arm-none-eabi/lib/thumb/v6-m/nofp/libcr_nohost_nf.a(__sys_tmpnam.o)
                              /usr/local/mcuxpressoide-11.1.1_3241/ide/plugins/com.nxp.mcuxpresso.tools.linux_11.1.0.202001081728/tools/bin/../lib/gcc/arm-none-eabi/8.3.1/../../../../arm-none-eabi/lib/thumb/v6-m/nofp/libcr_c.a(fclose.o) (__sys_tmpnam)

Discarded input sections

 .group         0x0000000000000000        0xc ./utilities/fsl_debug_console.o
 .group         0x0000000000000000        0xc ./utilities/fsl_debug_console.o
 .group         0x0000000000000000        0xc ./utilities/fsl_debug_console.o
 .group         0x0000000000000000        0xc ./utilities/fsl_debug_console.o
 .group         0x0000000000000000        0xc ./utilities/fsl_debug_console.o
 .group         0x0000000000000000        0xc ./utilities/fsl_debug_console.o
 .group         0x0000000000000000        0xc ./utilities/fsl_debug_console.o
 .group         0x0000000000000000        0xc ./utilities/fsl_debug_console.o
 .group         0x0000000000000000        0xc ./utilities/fsl_debug_console.o
 .group         0x0000000000000000        0xc ./utilities/fsl_debug_console.o
 .group         0x0000000000000000        0xc ./utilities/fsl_debug_console.o
 .group         0x0000000000000000        0xc ./utilities/fsl_debug_console.o
 .group         0x0000000000000000        0xc ./utilities/fsl_debug_console.o
 .group         0x0000000000000000        0xc ./utilities/fsl_debug_console.o
 .group         0x0000000000000000        0xc ./utilities/fsl_debug_console.o
 .group         0x0000000000000000        0xc ./utilities/fsl_debug_console.o
 .group         0x0000000000000000        0xc ./utilities/fsl_debug_console.o
 .group         0x0000000000000000        0xc ./utilities/fsl_debug_console.o
Memory Configuration

Name             Origin             Length             Attributes
PROGRAM_FLASH    0x0000000000000000 0x0000000000020000 xr
SRAM             0x000000001ffff000 0x0000000000004000 xrw
*default*        0x0000000000000000 0xffffffffffffffff

Linker script and memory map

LOAD ./utilities/fsl_debug_console.o
LOAD ./startup/startup_mkl25z4.o
LOAD ./source/HDU/HDU.o
LOAD ./source/HDU/HDU_ADC0.o
LOAD ./source/HDU/HDU_BATSENSE.o
LOAD ./source/HDU/HDU_BLUETOOTH.o
LOAD ./source/HDU/HDU_HMI.o
LOAD ./source/HDU/HDU_LINESCAN.o
LOAD ./source/HDU/HDU_POWERTRAIN.o
LOAD ./source/HDU/HDU_SERVO.o
LOAD ./source/HighDriveUnit.o
LOAD ./source/mtb.o
LOAD ./source/semihost_hardfault.o
LOAD ./drivers/fsl_adc16.o
LOAD ./drivers/fsl_clock.o
LOAD ./drivers/fsl_common.o
LOAD ./drivers/fsl_flash.o
LOAD ./drivers/fsl_gpio.o
LOAD ./drivers/fsl_lpsci.o
LOAD ./drivers/fsl_pit.o
LOAD ./drivers/fsl_smc.o
LOAD ./drivers/fsl_tpm.o
LOAD ./drivers/fsl_uart.o
LOAD ./board/board.o
LOAD ./board/clock_config.o
LOAD ./board/peripherals.o
LOAD ./board/pin_mux.o
LOAD ./CMSIS/system_MKL25Z4.o
START GROUP
LOAD /usr/local/mcuxpressoide-11.1.1_3241/ide/plugins/com.nxp.mcuxpresso.tools.linux_11.1.0.202001081728/tools/bin/../lib/gcc/arm-none-eabi/8.3.1/../../../../arm-none-eabi/lib/thumb/v6-m/nofp/libcr_nohost_nf.a
LOAD /usr/local/mcuxpressoide-11.1.1_3241/ide/plugins/com.nxp.mcuxpresso.tools.linux_11.1.0.202001081728/tools/bin/../lib/gcc/arm-none-eabi/8.3.1/../../../../arm-none-eabi/lib/thumb/v6-m/nofp/libcr_c.a
LOAD /usr/local/mcuxpressoide-11.1.1_3241/ide/plugins/com.nxp.mcuxpresso.tools.linux_11.1.0.202001081728/tools/bin/../lib/gcc/arm-none-eabi/8.3.1/thumb/v6-m/nofp/libcr_eabihelpers.a
LOAD /usr/local/mcuxpressoide-11.1.1_3241/ide/plugins/com.nxp.mcuxpresso.tools.linux_11.1.0.202001081728/tools/bin/../lib/gcc/arm-none-eabi/8.3.1/thumb/v6-m/nofp/libgcc.a
END GROUP
                0x0000000000000000                __base_PROGRAM_FLASH = 0x0
                0x0000000000000000                __base_Flash = 0x0
                0x0000000000020000                __top_PROGRAM_FLASH = 0x20000
                0x0000000000020000                __top_Flash = 0x20000
                0x000000001ffff000                __base_SRAM = 0x1ffff000
                0x000000001ffff000                __base_RAM = 0x1ffff000
                0x0000000020003000                __top_SRAM = 0x20003000
                0x0000000020003000                __top_RAM = 0x20003000

.text           0x0000000000000000     0x6154
 FILL mask 0xff
                0x0000000000000000                __vectors_start__ = ABSOLUTE (.)
 *(SORT_BY_ALIGNMENT(.isr_vector))
 .isr_vector    0x0000000000000000       0xc0 ./startup/startup_mkl25z4.o
                0x0000000000000000                __Vectors
                0x0000000000000000                g_pfnVectors
                0x00000000000000c0                . = ALIGN (0x4)
                0x00000000000000c0                __section_table_start = .
                0x00000000000000c0                __data_section_table = .
                0x00000000000000c0        0x4 LONG 0x6154 LOADADDR (.data)
                0x00000000000000c4        0x4 LONG 0x1ffff080 ADDR (.data)
                0x00000000000000c8        0x4 LONG 0xc SIZEOF (.data)
                0x00000000000000cc                __data_section_table_end = .
                0x00000000000000cc                __bss_section_table = .
                0x00000000000000cc        0x4 LONG 0x1ffff08c ADDR (.bss)
                0x00000000000000d0        0x4 LONG 0x394 SIZEOF (.bss)
                0x00000000000000d4                __bss_section_table_end = .
                0x00000000000000d4                __section_table_end = .
 *(SORT_BY_ALIGNMENT(.after_vectors*))
 .after_vectors.reset
                0x00000000000000d4       0x4c ./startup/startup_mkl25z4.o
                0x00000000000000d4                ResetISR
 .after_vectors.init_data
                0x0000000000000120       0x12 ./startup/startup_mkl25z4.o
                0x0000000000000120                data_init
 .after_vectors.init_bss
                0x0000000000000132       0x10 ./startup/startup_mkl25z4.o
                0x0000000000000132                bss_init
 .after_vectors
                0x0000000000000142      0x10c ./startup/startup_mkl25z4.o
                0x0000000000000142                NMI_Handler
                0x0000000000000146                SVC_Handler
                0x0000000000000148                PendSV_Handler
                0x000000000000014a                SysTick_Handler
                0x000000000000014c                PIT_DriverIRQHandler
                0x000000000000014c                Reserved39_DriverIRQHandler
                0x000000000000014c                DMA0_DriverIRQHandler
                0x000000000000014c                SPI1_DriverIRQHandler
                0x000000000000014c                LPTMR0_DriverIRQHandler
                0x000000000000014c                TPM2_DriverIRQHandler
                0x000000000000014c                TSI0_DriverIRQHandler
                0x000000000000014c                RTC_Seconds_DriverIRQHandler
                0x000000000000014c                LLWU_DriverIRQHandler
                0x000000000000014c                MCG_DriverIRQHandler
                0x000000000000014c                FTFA_DriverIRQHandler
                0x000000000000014c                IntDefaultHandler
                0x000000000000014c                USB0_DriverIRQHandler
                0x000000000000014c                DAC0_DriverIRQHandler
                0x000000000000014c                LVD_LVW_DriverIRQHandler
                0x000000000000014c                TPM0_DriverIRQHandler
                0x000000000000014c                Reserved20_DriverIRQHandler
                0x000000000000014c                DMA3_DriverIRQHandler
                0x000000000000014c                Reserved45_DriverIRQHandler
                0x000000000000014c                PORTA_DriverIRQHandler
                0x000000000000014c                TPM1_DriverIRQHandler
                0x000000000000014c                RTC_DriverIRQHandler
                0x000000000000014c                DMA1_DriverIRQHandler
                0x000000000000014c                I2C1_DriverIRQHandler
                0x000000000000014c                SPI0_DriverIRQHandler
                0x000000000000014c                ADC0_DriverIRQHandler
                0x000000000000014c                CMP0_DriverIRQHandler
                0x000000000000014c                DMA2_DriverIRQHandler
                0x000000000000014c                PORTD_DriverIRQHandler
                0x000000000000014c                I2C0_DriverIRQHandler
                0x000000000000014e                DMA0_IRQHandler
                0x0000000000000156                DMA1_IRQHandler
                0x000000000000015e                DMA2_IRQHandler
                0x0000000000000166                DMA3_IRQHandler
                0x000000000000016e                Reserved20_IRQHandler
                0x0000000000000176                FTFA_IRQHandler
                0x000000000000017e                LVD_LVW_IRQHandler
                0x0000000000000186                LLWU_IRQHandler
                0x000000000000018e                I2C0_IRQHandler
                0x0000000000000196                I2C1_IRQHandler
                0x000000000000019e                SPI0_IRQHandler
                0x00000000000001a6                SPI1_IRQHandler
                0x00000000000001ae                UART0_IRQHandler
                0x00000000000001b6                UART1_IRQHandler
                0x00000000000001be                UART2_IRQHandler
                0x00000000000001c6                ADC0_IRQHandler
                0x00000000000001ce                CMP0_IRQHandler
                0x00000000000001d6                TPM0_IRQHandler
                0x00000000000001de                TPM1_IRQHandler
                0x00000000000001e6                TPM2_IRQHandler
                0x00000000000001ee                RTC_IRQHandler
                0x00000000000001f6                RTC_Seconds_IRQHandler
                0x0000000000000206                Reserved39_IRQHandler
                0x000000000000020e                USB0_IRQHandler
                0x0000000000000216                DAC0_IRQHandler
                0x000000000000021e                TSI0_IRQHandler
                0x0000000000000226                MCG_IRQHandler
                0x000000000000022e                LPTMR0_IRQHandler
                0x0000000000000236                Reserved45_IRQHandler
                0x000000000000023e                PORTA_IRQHandler
                0x0000000000000246                PORTD_IRQHandler
                0x0000000000000400                . = 0x400
 *fill*         0x000000000000024e      0x1b2 ff
                0x0000000000000400                PROVIDE (__FLASH_CONFIG_START__ = .)
 *(SORT_BY_ALIGNMENT(.FlashConfig))
 .FlashConfig   0x0000000000000400       0x10 ./startup/startup_mkl25z4.o
                0x0000000000000400                Flash_Config
                0x0000000000000410                PROVIDE (__FLASH_CONFIG_END__ = .)
                0x0000000000000001                ASSERT (! ((__FLASH_CONFIG_START__ == __FLASH_CONFIG_END__)), Linker Flash Config Support Enabled, but no .FlashConfig section provided within application)
 *(SORT_BY_ALIGNMENT(.text*))
 .text.DbgConsole_Init
                0x0000000000000410       0xf0 ./utilities/fsl_debug_console.o
                0x0000000000000410                DbgConsole_Init
 .text.__sys_write
                0x0000000000000500       0x58 ./utilities/fsl_debug_console.o
                0x0000000000000500                __sys_write
 .text.HDU_init
                0x0000000000000558      0x108 ./source/HDU/HDU.o
                0x0000000000000558                HDU_init
 .text.ADC16_GetChannelConversionValue
                0x0000000000000660       0x30 ./source/HDU/HDU_ADC0.o
 .text.HDU_ADC0_init
                0x0000000000000690       0x48 ./source/HDU/HDU_ADC0.o
                0x0000000000000690                HDU_ADC0_init
 .text.HDU_ADC0_read
                0x00000000000006d8       0x64 ./source/HDU/HDU_ADC0.o
                0x00000000000006d8                HDU_ADC0_read
 .text.HDU_BATSENSE_init
                0x000000000000073c       0x80 ./source/HDU/HDU_BATSENSE.o
                0x000000000000073c                HDU_BATSENSE_init
 .text.HDU_BATSENSE_read
                0x00000000000007bc       0x34 ./source/HDU/HDU_BATSENSE.o
                0x00000000000007bc                HDU_BATSENSE_read
 .text.CLOCK_EnableClock
                0x00000000000007f0       0x34 ./source/HDU/HDU_BLUETOOTH.o
 .text.HDU_BLUETOOTH_init
                0x0000000000000824       0x88 ./source/HDU/HDU_BLUETOOTH.o
                0x0000000000000824                HDU_BLUETOOTH_init
 .text.HDU_BLUETOOTH_sendMessage
                0x00000000000008ac       0x38 ./source/HDU/HDU_BLUETOOTH.o
                0x00000000000008ac                HDU_BLUETOOTH_sendMessage
 .text.HDU_BLUETOOTH_sendDebugMesssage
                0x00000000000008e4       0x78 ./source/HDU/HDU_BLUETOOTH.o
                0x00000000000008e4                HDU_BLUETOOTH_sendDebugMesssage
 .text.HDU_HMI_init
                0x000000000000095c       0x30 ./source/HDU/HDU_HMI.o
                0x000000000000095c                HDU_HMI_init
 .text.HDU_HMI_readUserInput
                0x000000000000098c       0x4c ./source/HDU/HDU_HMI.o
                0x000000000000098c                HDU_HMI_readUserInput
 .text.HDU_HMI_readDipswitches
                0x00000000000009d8      0x114 ./source/HDU/HDU_HMI.o
                0x00000000000009d8                HDU_HMI_readDipswitches
 .text.HDU_HMI_readBtnA
                0x0000000000000aec       0x20 ./source/HDU/HDU_HMI.o
                0x0000000000000aec                HDU_HMI_readBtnA
 .text.HDU_HMI_readBtnB
                0x0000000000000b0c       0x20 ./source/HDU/HDU_HMI.o
                0x0000000000000b0c                HDU_HMI_readBtnB
 .text.HDU_HMI_readPotA
                0x0000000000000b2c       0x24 ./source/HDU/HDU_HMI.o
                0x0000000000000b2c                HDU_HMI_readPotA
 .text.HDU_HMI_readPotB
                0x0000000000000b50       0x24 ./source/HDU/HDU_HMI.o
                0x0000000000000b50                HDU_HMI_readPotB
 .text.HDU_HMI_setLEDs
                0x0000000000000b74       0x88 ./source/HDU/HDU_HMI.o
                0x0000000000000b74                HDU_HMI_setLEDs
 .text.NVIC_EnableIRQ
                0x0000000000000bfc       0x2c ./source/HDU/HDU_LINESCAN.o
 .text.PIT_GetDefaultConfig
                0x0000000000000c28       0x28 ./source/HDU/HDU_LINESCAN.o
 .text.HDU_LINESCAN_init
                0x0000000000000c50       0xc0 ./source/HDU/HDU_LINESCAN.o
                0x0000000000000c50                HDU_LINESCAN_init
 .text.HDU_LINESCAN_read
                0x0000000000000d10       0xf8 ./source/HDU/HDU_LINESCAN.o
                0x0000000000000d10                HDU_LINESCAN_read
 .text.PIT_IRQHandler
                0x0000000000000e08       0x20 ./source/HDU/HDU_LINESCAN.o
                0x0000000000000e08                PIT_IRQHandler
 .text.CLOCK_SetTpmClock
                0x0000000000000e28       0x38 ./source/HDU/HDU_POWERTRAIN.o
 .text.HDU_POWERTRAIN_init
                0x0000000000000e60      0x130 ./source/HDU/HDU_POWERTRAIN.o
                0x0000000000000e60                HDU_POWERTRAIN_init
 .text.HDU_POWERTRAIN_enable
                0x0000000000000f90       0x1c ./source/HDU/HDU_POWERTRAIN.o
                0x0000000000000f90                HDU_POWERTRAIN_enable
 .text.HDU_POWERTRAIN_setDutycycleMotA
                0x0000000000000fac       0x68 ./source/HDU/HDU_POWERTRAIN.o
                0x0000000000000fac                HDU_POWERTRAIN_setDutycycleMotA
 .text.HDU_POWERTRAIN_setDutycycleMotB
                0x0000000000001014       0x68 ./source/HDU/HDU_POWERTRAIN.o
                0x0000000000001014                HDU_POWERTRAIN_setDutycycleMotB
 .text.CLOCK_SetTpmClock
                0x000000000000107c       0x38 ./source/HDU/HDU_SERVO.o
 .text.HDU_SERVO_init
                0x00000000000010b4       0xa8 ./source/HDU/HDU_SERVO.o
                0x00000000000010b4                HDU_SERVO_init
 .text.HDU_SERVO_0_setDutycycle
                0x000000000000115c       0x78 ./source/HDU/HDU_SERVO.o
                0x000000000000115c                HDU_SERVO_0_setDutycycle
 .text.HDU_SERVO_1_setDutycycle
                0x00000000000011d4       0x78 ./source/HDU/HDU_SERVO.o
                0x00000000000011d4                HDU_SERVO_1_setDutycycle
 .text.main     0x000000000000124c       0xbc ./source/HighDriveUnit.o
                0x000000000000124c                main
 .text.HardFault_Handler
                0x0000000000001308       0x30 ./source/semihost_hardfault.o
                0x0000000000001308                HardFault_Handler
 .text.CLOCK_EnableClock
                0x0000000000001338       0x34 ./drivers/fsl_adc16.o
 .text.ADC16_GetInstance
                0x000000000000136c       0x48 ./drivers/fsl_adc16.o
 .text.ADC16_Init
                0x00000000000013b4      0x114 ./drivers/fsl_adc16.o
                0x00000000000013b4                ADC16_Init
 .text.ADC16_GetDefaultConfig
                0x00000000000014c8       0x58 ./drivers/fsl_adc16.o
                0x00000000000014c8                ADC16_GetDefaultConfig
 .text.ADC16_SetChannelConfig
                0x0000000000001520       0x6c ./drivers/fsl_adc16.o
                0x0000000000001520                ADC16_SetChannelConfig
 .text.ADC16_GetChannelStatusFlags
                0x000000000000158c       0x40 ./drivers/fsl_adc16.o
                0x000000000000158c                ADC16_GetChannelStatusFlags
 .text.CLOCK_SetEr32kClock
                0x00000000000015cc       0x34 ./drivers/fsl_clock.o
 .text.CLOCK_SetPllFllSelClock
                0x0000000000001600       0x38 ./drivers/fsl_clock.o
 .text.CLOCK_GetMcgExtClkFreq
                0x0000000000001638       0x28 ./drivers/fsl_clock.o
 .text.CLOCK_GetFllExtRefClkFreq
                0x0000000000001660       0xa4 ./drivers/fsl_clock.o
 .text.CLOCK_GetInternalRefClkSelectFreq
                0x0000000000001704       0x40 ./drivers/fsl_clock.o
 .text.CLOCK_GetFllRefClkFreq
                0x0000000000001744       0x2c ./drivers/fsl_clock.o
 .text.CLOCK_GetOscRangeFromFreq
                0x0000000000001770       0x4c ./drivers/fsl_clock.o
 .text.CLOCK_GetOsc0ErClkFreq
                0x00000000000017bc       0x3c ./drivers/fsl_clock.o
                0x00000000000017bc                CLOCK_GetOsc0ErClkFreq
 .text.CLOCK_GetEr32kClkFreq
                0x00000000000017f8       0x74 ./drivers/fsl_clock.o
                0x00000000000017f8                CLOCK_GetEr32kClkFreq
 .text.CLOCK_GetPllFllSelClkFreq
                0x000000000000186c       0x4c ./drivers/fsl_clock.o
                0x000000000000186c                CLOCK_GetPllFllSelClkFreq
 .text.CLOCK_GetFreq
                0x00000000000018b8       0xe0 ./drivers/fsl_clock.o
                0x00000000000018b8                CLOCK_GetFreq
 .text.CLOCK_SetSimConfig
                0x0000000000001998       0x38 ./drivers/fsl_clock.o
                0x0000000000001998                CLOCK_SetSimConfig
 .text.CLOCK_GetOutClkFreq
                0x00000000000019d0       0x68 ./drivers/fsl_clock.o
                0x00000000000019d0                CLOCK_GetOutClkFreq
 .text.CLOCK_GetFllFreq
                0x0000000000001a38       0x84 ./drivers/fsl_clock.o
                0x0000000000001a38                CLOCK_GetFllFreq
 .text.CLOCK_GetInternalRefClkFreq
                0x0000000000001abc       0x28 ./drivers/fsl_clock.o
                0x0000000000001abc                CLOCK_GetInternalRefClkFreq
 .text.CLOCK_GetPll0Freq
                0x0000000000001ae4       0x70 ./drivers/fsl_clock.o
                0x0000000000001ae4                CLOCK_GetPll0Freq
 .text.CLOCK_SetInternalRefClkConfig
                0x0000000000001b54      0x124 ./drivers/fsl_clock.o
                0x0000000000001b54                CLOCK_SetInternalRefClkConfig
 .text.CLOCK_EnablePll0
                0x0000000000001c78       0x90 ./drivers/fsl_clock.o
                0x0000000000001c78                CLOCK_EnablePll0
 .text.CLOCK_InitOsc0
                0x0000000000001d08       0x94 ./drivers/fsl_clock.o
                0x0000000000001d08                CLOCK_InitOsc0
 .text.CLOCK_SetPbeMode
                0x0000000000001d9c       0xb0 ./drivers/fsl_clock.o
                0x0000000000001d9c                CLOCK_SetPbeMode
 .text.CLOCK_BootToPeeMode
                0x0000000000001e4c       0x70 ./drivers/fsl_clock.o
                0x0000000000001e4c                CLOCK_BootToPeeMode
 .text.GPIO_PinInit
                0x0000000000001ebc       0x64 ./drivers/fsl_gpio.o
                0x0000000000001ebc                GPIO_PinInit
 .text.CLOCK_EnableClock
                0x0000000000001f20       0x34 ./drivers/fsl_lpsci.o
 .text.LPSCI_GetInstance
                0x0000000000001f54       0x48 ./drivers/fsl_lpsci.o
                0x0000000000001f54                LPSCI_GetInstance
 .text.LPSCI_Init
                0x0000000000001f9c      0x258 ./drivers/fsl_lpsci.o
                0x0000000000001f9c                LPSCI_Init
 .text.LPSCI_GetDefaultConfig
                0x00000000000021f4       0x44 ./drivers/fsl_lpsci.o
                0x00000000000021f4                LPSCI_GetDefaultConfig
 .text.LPSCI_ClearStatusFlags
                0x0000000000002238       0x94 ./drivers/fsl_lpsci.o
                0x0000000000002238                LPSCI_ClearStatusFlags
 .text.LPSCI_WriteBlocking
                0x00000000000022cc       0x4c ./drivers/fsl_lpsci.o
                0x00000000000022cc                LPSCI_WriteBlocking
 .text.LPSCI_ReadBlocking
                0x0000000000002318       0xc0 ./drivers/fsl_lpsci.o
                0x0000000000002318                LPSCI_ReadBlocking
 .text.UART0_DriverIRQHandler
                0x00000000000023d8       0x24 ./drivers/fsl_lpsci.o
                0x00000000000023d8                UART0_DriverIRQHandler
 .text.CLOCK_EnableClock
                0x00000000000023fc       0x34 ./drivers/fsl_pit.o
 .text.PIT_GetInstance
                0x0000000000002430       0x48 ./drivers/fsl_pit.o
 .text.PIT_Init
                0x0000000000002478       0x6c ./drivers/fsl_pit.o
                0x0000000000002478                PIT_Init
 .text.CLOCK_EnableClock
                0x00000000000024e4       0x34 ./drivers/fsl_tpm.o
 .text.TPM_GetInstance
                0x0000000000002518       0x54 ./drivers/fsl_tpm.o
 .text.TPM_Init
                0x000000000000256c       0xd0 ./drivers/fsl_tpm.o
                0x000000000000256c                TPM_Init
 .text.TPM_GetDefaultConfig
                0x000000000000263c       0x54 ./drivers/fsl_tpm.o
                0x000000000000263c                TPM_GetDefaultConfig
 .text.TPM_SetupPwm
                0x0000000000002690      0x1f8 ./drivers/fsl_tpm.o
                0x0000000000002690                TPM_SetupPwm
 .text.TPM_UpdatePwmDutycycle
                0x0000000000002888       0xc4 ./drivers/fsl_tpm.o
                0x0000000000002888                TPM_UpdatePwmDutycycle
 .text.CLOCK_EnableClock
                0x000000000000294c       0x34 ./drivers/fsl_uart.o
 .text.UART_GetInstance
                0x0000000000002980       0x54 ./drivers/fsl_uart.o
                0x0000000000002980                UART_GetInstance
 .text.UART_Init
                0x00000000000029d4      0x1e0 ./drivers/fsl_uart.o
                0x00000000000029d4                UART_Init
 .text.UART_GetDefaultConfig
                0x0000000000002bb4       0x44 ./drivers/fsl_uart.o
                0x0000000000002bb4                UART_GetDefaultConfig
 .text.UART_ReadBlocking
                0x0000000000002bf8       0x98 ./drivers/fsl_uart.o
                0x0000000000002bf8                UART_ReadBlocking
 .text.UART1_DriverIRQHandler
                0x0000000000002c90       0x24 ./drivers/fsl_uart.o
                0x0000000000002c90                UART1_DriverIRQHandler
 .text.UART2_DriverIRQHandler
                0x0000000000002cb4       0x24 ./drivers/fsl_uart.o
                0x0000000000002cb4                UART2_DriverIRQHandler
 .text.CLOCK_SetLpsci0Clock
                0x0000000000002cd8       0x38 ./board/board.o
 .text.BOARD_InitDebugConsole
                0x0000000000002d10       0x30 ./board/board.o
                0x0000000000002d10                BOARD_InitDebugConsole
 .text.CLOCK_SetSimSafeDivs
                0x0000000000002d40       0x20 ./board/clock_config.o
 .text.CLOCK_SetXtal0Freq
                0x0000000000002d60       0x1c ./board/clock_config.o
 .text.CLOCK_CONFIG_SetFllExtRefDiv
                0x0000000000002d7c       0x3c ./board/clock_config.o
 .text.BOARD_BootClockRUN
                0x0000000000002db8       0x64 ./board/clock_config.o
                0x0000000000002db8                BOARD_BootClockRUN
 .text.CLOCK_EnableClock
                0x0000000000002e1c       0x34 ./board/pin_mux.o
 .text.PORT_SetPinMux
                0x0000000000002e50       0x40 ./board/pin_mux.o
 .text.PORT_SetPinInterruptConfig
                0x0000000000002e90       0x40 ./board/pin_mux.o
 .text.BOARD_InitPins
                0x0000000000002ed0       0x4c ./board/pin_mux.o
                0x0000000000002ed0                BOARD_InitPins
 .text.HDU      0x0000000000002f1c      0x3c4 ./board/pin_mux.o
                0x0000000000002f1c                HDU
 .text.SystemInit
                0x00000000000032e0       0x18 ./CMSIS/system_MKL25Z4.o
                0x00000000000032e0                SystemInit
 .text.__assertion_failed
                0x00000000000032f8       0x4c /usr/local/mcuxpressoide-11.1.1_3241/ide/plugins/com.nxp.mcuxpresso.tools.linux_11.1.0.202001081728/tools/bin/../lib/gcc/arm-none-eabi/8.3.1/../../../../arm-none-eabi/lib/thumb/v6-m/nofp/libcr_nohost_nf.a(_cr_assert.o)
                0x00000000000032f8                __assertion_failed
 .text._deferredlazyseek
                0x0000000000003344       0x40 /usr/local/mcuxpressoide-11.1.1_3241/ide/plugins/com.nxp.mcuxpresso.tools.linux_11.1.0.202001081728/tools/bin/../lib/gcc/arm-none-eabi/8.3.1/../../../../arm-none-eabi/lib/thumb/v6-m/nofp/libcr_c.a(_deferredlazyseek.o)
                0x0000000000003344                _deferredlazyseek
 .text.__flsbuf
                0x0000000000003384      0x14c /usr/local/mcuxpressoide-11.1.1_3241/ide/plugins/com.nxp.mcuxpresso.tools.linux_11.1.0.202001081728/tools/bin/../lib/gcc/arm-none-eabi/8.3.1/../../../../arm-none-eabi/lib/thumb/v6-m/nofp/libcr_c.a(_deferredlazyseek.o)
                0x0000000000003384                __flsbuf
 .text._fflush  0x00000000000034d0       0x5c /usr/local/mcuxpressoide-11.1.1_3241/ide/plugins/com.nxp.mcuxpresso.tools.linux_11.1.0.202001081728/tools/bin/../lib/gcc/arm-none-eabi/8.3.1/../../../../arm-none-eabi/lib/thumb/v6-m/nofp/libcr_c.a(_fflush.o)
                0x00000000000034d0                _fflush
 .text._Cwritebuf
                0x000000000000352c       0x68 /usr/local/mcuxpressoide-11.1.1_3241/ide/plugins/com.nxp.mcuxpresso.tools.linux_11.1.0.202001081728/tools/bin/../lib/gcc/arm-none-eabi/8.3.1/../../../../arm-none-eabi/lib/thumb/v6-m/nofp/libcr_c.a(_writebuf.o)
                0x000000000000352c                _Cwritebuf
 .text.malloc   0x0000000000003594       0xcc /usr/local/mcuxpressoide-11.1.1_3241/ide/plugins/com.nxp.mcuxpresso.tools.linux_11.1.0.202001081728/tools/bin/../lib/gcc/arm-none-eabi/8.3.1/../../../../arm-none-eabi/lib/thumb/v6-m/nofp/libcr_c.a(alloc.o)
                0x0000000000003594                malloc
 .text._Csys_alloc
                0x0000000000003660       0x20 /usr/local/mcuxpressoide-11.1.1_3241/ide/plugins/com.nxp.mcuxpresso.tools.linux_11.1.0.202001081728/tools/bin/../lib/gcc/arm-none-eabi/8.3.1/../../../../arm-none-eabi/lib/thumb/v6-m/nofp/libcr_c.a(alloc.o)
                0x0000000000003660                _Csys_alloc
 .text.fseek    0x0000000000003680       0xf0 /usr/local/mcuxpressoide-11.1.1_3241/ide/plugins/com.nxp.mcuxpresso.tools.linux_11.1.0.202001081728/tools/bin/../lib/gcc/arm-none-eabi/8.3.1/../../../../arm-none-eabi/lib/thumb/v6-m/nofp/libcr_c.a(fseek.o)
                0x0000000000003680                fseek
 .text.ftell    0x0000000000003770       0x48 /usr/local/mcuxpressoide-11.1.1_3241/ide/plugins/com.nxp.mcuxpresso.tools.linux_11.1.0.202001081728/tools/bin/../lib/gcc/arm-none-eabi/8.3.1/../../../../arm-none-eabi/lib/thumb/v6-m/nofp/libcr_c.a(ftell.o)
                0x0000000000003770                ftell
 .text._initio  0x00000000000037b8       0x7c /usr/local/mcuxpressoide-11.1.1_3241/ide/plugins/com.nxp.mcuxpresso.tools.linux_11.1.0.202001081728/tools/bin/../lib/gcc/arm-none-eabi/8.3.1/../../../../arm-none-eabi/lib/thumb/v6-m/nofp/libcr_c.a(initio.o)
                0x00000000000037b8                _initio
 .text.__vfprintf
                0x0000000000003834      0xcd8 /usr/local/mcuxpressoide-11.1.1_3241/ide/plugins/com.nxp.mcuxpresso.tools.linux_11.1.0.202001081728/tools/bin/../lib/gcc/arm-none-eabi/8.3.1/../../../../arm-none-eabi/lib/thumb/v6-m/nofp/libcr_c.a(printf.o)
                0x0000000000003834                __vfprintf
 .text._sprintf
                0x000000000000450c       0x6c /usr/local/mcuxpressoide-11.1.1_3241/ide/plugins/com.nxp.mcuxpresso.tools.linux_11.1.0.202001081728/tools/bin/../lib/gcc/arm-none-eabi/8.3.1/../../../../arm-none-eabi/lib/thumb/v6-m/nofp/libcr_c.a(printf.o)
                0x000000000000450c                _sprintf
 .text._vsnprintf
                0x0000000000004578       0x70 /usr/local/mcuxpressoide-11.1.1_3241/ide/plugins/com.nxp.mcuxpresso.tools.linux_11.1.0.202001081728/tools/bin/../lib/gcc/arm-none-eabi/8.3.1/../../../../arm-none-eabi/lib/thumb/v6-m/nofp/libcr_c.a(printf.o)
                0x0000000000004578                _vsnprintf
 .text._printf  0x00000000000045e8       0x50 /usr/local/mcuxpressoide-11.1.1_3241/ide/plugins/com.nxp.mcuxpresso.tools.linux_11.1.0.202001081728/tools/bin/../lib/gcc/arm-none-eabi/8.3.1/../../../../arm-none-eabi/lib/thumb/v6-m/nofp/libcr_c.a(printf.o)
                0x00000000000045e8                _printf
 .text.setvbuf  0x0000000000004638       0x4c /usr/local/mcuxpressoide-11.1.1_3241/ide/plugins/com.nxp.mcuxpresso.tools.linux_11.1.0.202001081728/tools/bin/../lib/gcc/arm-none-eabi/8.3.1/../../../../arm-none-eabi/lib/thumb/v6-m/nofp/libcr_c.a(setvbuf.o)
                0x0000000000004638                setvbuf
 .text.strlen   0x0000000000004684       0x58 /usr/local/mcuxpressoide-11.1.1_3241/ide/plugins/com.nxp.mcuxpresso.tools.linux_11.1.0.202001081728/tools/bin/../lib/gcc/arm-none-eabi/8.3.1/../../../../arm-none-eabi/lib/thumb/v6-m/nofp/libcr_c.a(strlen.o)
                0x0000000000004684                strlen
 .text._sbrk    0x00000000000046dc       0x40 /usr/local/mcuxpressoide-11.1.1_3241/ide/plugins/com.nxp.mcuxpresso.tools.linux_11.1.0.202001081728/tools/bin/../lib/gcc/arm-none-eabi/8.3.1/../../../../arm-none-eabi/lib/thumb/v6-m/nofp/libcr_c.a(_cr_sbrk.o)
                0x00000000000046dc                _sbrk
 .text._fdopen  0x000000000000471c       0x74 /usr/local/mcuxpressoide-11.1.1_3241/ide/plugins/com.nxp.mcuxpresso.tools.linux_11.1.0.202001081728/tools/bin/../lib/gcc/arm-none-eabi/8.3.1/../../../../arm-none-eabi/lib/thumb/v6-m/nofp/libcr_c.a(_fdopen.o)
                0x000000000000471c                _fdopen
 .text.fclose   0x0000000000004790       0x5c /usr/local/mcuxpressoide-11.1.1_3241/ide/plugins/com.nxp.mcuxpresso.tools.linux_11.1.0.202001081728/tools/bin/../lib/gcc/arm-none-eabi/8.3.1/../../../../arm-none-eabi/lib/thumb/v6-m/nofp/libcr_c.a(fclose.o)
                0x0000000000004790                fclose
 .text.fflush   0x00000000000047ec       0x44 /usr/local/mcuxpressoide-11.1.1_3241/ide/plugins/com.nxp.mcuxpresso.tools.linux_11.1.0.202001081728/tools/bin/../lib/gcc/arm-none-eabi/8.3.1/../../../../arm-none-eabi/lib/thumb/v6-m/nofp/libcr_c.a(fflush.o)
                0x00000000000047ec                fflush
 .text.__check_heap_overflow
                0x0000000000004830       0x14 /usr/local/mcuxpressoide-11.1.1_3241/ide/plugins/com.nxp.mcuxpresso.tools.linux_11.1.0.202001081728/tools/bin/../lib/gcc/arm-none-eabi/8.3.1/../../../../arm-none-eabi/lib/thumb/v6-m/nofp/libcr_c.a(_cr_check_heap.o)
                0x0000000000004830                __check_heap_overflow
 .text._do_fflush
                0x0000000000004844       0x44 /usr/local/mcuxpressoide-11.1.1_3241/ide/plugins/com.nxp.mcuxpresso.tools.linux_11.1.0.202001081728/tools/bin/../lib/gcc/arm-none-eabi/8.3.1/../../../../arm-none-eabi/lib/thumb/v6-m/nofp/libcr_c.a(_do_fflush.o)
                0x0000000000004844                _do_fflush
 .text.__aeabi_dmul
                0x0000000000004888      0x188 /usr/local/mcuxpressoide-11.1.1_3241/ide/plugins/com.nxp.mcuxpresso.tools.linux_11.1.0.202001081728/tools/bin/../lib/gcc/arm-none-eabi/8.3.1/thumb/v6-m/nofp/libcr_eabihelpers.a(double.o)
                0x0000000000004888                __aeabi_dmul
 .text.__aeabi_dsub
                0x0000000000004a10      0x1c4 /usr/local/mcuxpressoide-11.1.1_3241/ide/plugins/com.nxp.mcuxpresso.tools.linux_11.1.0.202001081728/tools/bin/../lib/gcc/arm-none-eabi/8.3.1/thumb/v6-m/nofp/libcr_eabihelpers.a(double.o)
                0x0000000000004a10                __aeabi_dsub
 .text.__aeabi_dadd
                0x0000000000004bd4      0x12c /usr/local/mcuxpressoide-11.1.1_3241/ide/plugins/com.nxp.mcuxpresso.tools.linux_11.1.0.202001081728/tools/bin/../lib/gcc/arm-none-eabi/8.3.1/thumb/v6-m/nofp/libcr_eabihelpers.a(double.o)
                0x0000000000004bd4                __aeabi_dadd
 .text.__aeabi_d2f
                0x0000000000004d00       0x60 /usr/local/mcuxpressoide-11.1.1_3241/ide/plugins/com.nxp.mcuxpresso.tools.linux_11.1.0.202001081728/tools/bin/../lib/gcc/arm-none-eabi/8.3.1/thumb/v6-m/nofp/libcr_eabihelpers.a(double.o)
                0x0000000000004d00                __aeabi_d2f
 .text.__aeabi_d2iz
                0x0000000000004d60       0x4c /usr/local/mcuxpressoide-11.1.1_3241/ide/plugins/com.nxp.mcuxpresso.tools.linux_11.1.0.202001081728/tools/bin/../lib/gcc/arm-none-eabi/8.3.1/thumb/v6-m/nofp/libcr_eabihelpers.a(double.o)
                0x0000000000004d60                __aeabi_d2iz
 .text.__aeabi_dcmplt
                0x0000000000004dac       0x60 /usr/local/mcuxpressoide-11.1.1_3241/ide/plugins/com.nxp.mcuxpresso.tools.linux_11.1.0.202001081728/tools/bin/../lib/gcc/arm-none-eabi/8.3.1/thumb/v6-m/nofp/libcr_eabihelpers.a(double.o)
                0x0000000000004dac                __aeabi_dcmplt
 .text.__aeabi_dcmpgt
                0x0000000000004e0c       0x58 /usr/local/mcuxpressoide-11.1.1_3241/ide/plugins/com.nxp.mcuxpresso.tools.linux_11.1.0.202001081728/tools/bin/../lib/gcc/arm-none-eabi/8.3.1/thumb/v6-m/nofp/libcr_eabihelpers.a(double.o)
                0x0000000000004e0c                __aeabi_dcmpgt
 .text.__aeabi_fmul
                0x0000000000004e64       0xc4 /usr/local/mcuxpressoide-11.1.1_3241/ide/plugins/com.nxp.mcuxpresso.tools.linux_11.1.0.202001081728/tools/bin/../lib/gcc/arm-none-eabi/8.3.1/thumb/v6-m/nofp/libcr_eabihelpers.a(float.o)
                0x0000000000004e64                __aeabi_fmul
 .text.__aeabi_fdiv
                0x0000000000004f28       0xdc /usr/local/mcuxpressoide-11.1.1_3241/ide/plugins/com.nxp.mcuxpresso.tools.linux_11.1.0.202001081728/tools/bin/../lib/gcc/arm-none-eabi/8.3.1/thumb/v6-m/nofp/libcr_eabihelpers.a(float.o)
                0x0000000000004f28                __aeabi_fdiv
 .text.__aeabi_f2iz
                0x0000000000005004       0x3c /usr/local/mcuxpressoide-11.1.1_3241/ide/plugins/com.nxp.mcuxpresso.tools.linux_11.1.0.202001081728/tools/bin/../lib/gcc/arm-none-eabi/8.3.1/thumb/v6-m/nofp/libcr_eabihelpers.a(float.o)
                0x0000000000005004                __aeabi_f2iz
 .text.__aeabi_f2d
                0x0000000000005040       0x3c /usr/local/mcuxpressoide-11.1.1_3241/ide/plugins/com.nxp.mcuxpresso.tools.linux_11.1.0.202001081728/tools/bin/../lib/gcc/arm-none-eabi/8.3.1/thumb/v6-m/nofp/libcr_eabihelpers.a(float.o)
                0x0000000000005040                __aeabi_f2d
 .text.UART_EnableTx
                0x000000000000507c       0x40 ./utilities/fsl_debug_console.o
 .text.UART_EnableRx
                0x00000000000050bc       0x40 ./utilities/fsl_debug_console.o
 .text.LPSCI_EnableTx
                0x00000000000050fc       0x40 ./utilities/fsl_debug_console.o
 .text.LPSCI_EnableRx
                0x000000000000513c       0x40 ./utilities/fsl_debug_console.o
 .text.HDU_startup
                0x000000000000517c       0x1e ./source/HDU/HDU.o
                0x000000000000517c                HDU_startup
 .text.ADC16_EnableHardwareTrigger
                0x000000000000519a       0x3a ./source/HDU/HDU_ADC0.o
 .text.GPIO_WritePinOutput
                0x00000000000051d4       0x34 ./source/HDU/HDU_HMI.o
 .text.GPIO_ReadPinInput
                0x0000000000005208       0x20 ./source/HDU/HDU_HMI.o
 .text.EnableIRQ
                0x0000000000005228       0x2c ./source/HDU/HDU_LINESCAN.o
 .text.GPIO_WritePinOutput
                0x0000000000005254       0x34 ./source/HDU/HDU_LINESCAN.o
 .text.PIT_EnableInterrupts
                0x0000000000005288       0x42 ./source/HDU/HDU_LINESCAN.o
 .text.PIT_ClearStatusFlags
                0x00000000000052ca       0x2e ./source/HDU/HDU_LINESCAN.o
 .text.PIT_SetTimerPeriod
                0x00000000000052f8       0x28 ./source/HDU/HDU_LINESCAN.o
 .text.PIT_StartTimer
                0x0000000000005320       0x3e ./source/HDU/HDU_LINESCAN.o
 .text.GPIO_WritePinOutput
                0x000000000000535e       0x34 ./source/HDU/HDU_POWERTRAIN.o
 .text.TPM_StartTimer
                0x0000000000005392       0x3a ./source/HDU/HDU_POWERTRAIN.o
 .text.HDU_POWERTRAIN_setDutycycles
                0x00000000000053cc       0x22 ./source/HDU/HDU_POWERTRAIN.o
                0x00000000000053cc                HDU_POWERTRAIN_setDutycycles
 .text.TPM_StartTimer
                0x00000000000053ee       0x3a ./source/HDU/HDU_SERVO.o
 .text.ADC16_DoAutoCalibration
                0x0000000000005428      0x118 ./drivers/fsl_adc16.o
                0x0000000000005428                ADC16_DoAutoCalibration
 .text.ADC16_SetChannelMuxMode
                0x0000000000005540       0x3a ./drivers/fsl_adc16.o
                0x0000000000005540                ADC16_SetChannelMuxMode
 .text.ADC16_GetStatusFlags
                0x000000000000557a       0x3a ./drivers/fsl_adc16.o
                0x000000000000557a                ADC16_GetStatusFlags
 .text.OSC_SetExtRefClkConfig
                0x00000000000055b4       0x3e ./drivers/fsl_clock.o
 .text.OSC_SetCapLoad
                0x00000000000055f2       0x42 ./drivers/fsl_clock.o
 .text.CLOCK_GetPll0RefFreq
                0x0000000000005634       0x10 ./drivers/fsl_clock.o
 .text.CLOCK_GetFixedFreqClkFreq
                0x0000000000005644       0x30 ./drivers/fsl_clock.o
                0x0000000000005644                CLOCK_GetFixedFreqClkFreq
 .text.CLOCK_SetExternalRefClkConfig
                0x0000000000005674       0x16 ./drivers/fsl_clock.o
                0x0000000000005674                CLOCK_SetExternalRefClkConfig
 .text.GPIO_WritePinOutput
                0x000000000000568a       0x34 ./drivers/fsl_gpio.o
 .text.LPSCI_GetStatusFlags
                0x00000000000056be       0x26 ./drivers/fsl_lpsci.o
                0x00000000000056be                LPSCI_GetStatusFlags
 .text.UART_GetStatusFlags
                0x00000000000056e4       0x26 ./drivers/fsl_uart.o
                0x00000000000056e4                UART_GetStatusFlags
 .text.UART_WriteBlocking
                0x000000000000570a       0x3a ./drivers/fsl_uart.o
                0x000000000000570a                UART_WriteBlocking
 .text.BOARD_InitBootClocks
                0x0000000000005744        0xe ./board/clock_config.o
                0x0000000000005744                BOARD_InitBootClocks
 .text.BOARD_InitBootPeripherals
                0x0000000000005752        0xa ./board/peripherals.o
                0x0000000000005752                BOARD_InitBootPeripherals
 .text.BOARD_InitBootPins
                0x000000000000575c       0x12 ./board/pin_mux.o
                0x000000000000575c                BOARD_InitBootPins
 .text.__main   0x000000000000576e        0xc /usr/local/mcuxpressoide-11.1.1_3241/ide/plugins/com.nxp.mcuxpresso.tools.linux_11.1.0.202001081728/tools/bin/../lib/gcc/arm-none-eabi/8.3.1/../../../../arm-none-eabi/lib/thumb/v6-m/nofp/libcr_nohost_nf.a(_cr__main.o)
                0x000000000000576e                __main
 .text.__sys_appexit
                0x000000000000577a        0x2 /usr/local/mcuxpressoide-11.1.1_3241/ide/plugins/com.nxp.mcuxpresso.tools.linux_11.1.0.202001081728/tools/bin/../lib/gcc/arm-none-eabi/8.3.1/../../../../arm-none-eabi/lib/thumb/v6-m/nofp/libcr_nohost_nf.a(__sys_appexit.o)
                0x000000000000577a                __exit
                0x000000000000577a                __sys_appexit
 .text.memcpy   0x000000000000577c        0x8 /usr/local/mcuxpressoide-11.1.1_3241/ide/plugins/com.nxp.mcuxpresso.tools.linux_11.1.0.202001081728/tools/bin/../lib/gcc/arm-none-eabi/8.3.1/../../../../arm-none-eabi/lib/thumb/v6-m/nofp/libcr_c.a(memcpy.o)
                0x000000000000577c                memcpy
 .text.memset   0x0000000000005784        0x8 /usr/local/mcuxpressoide-11.1.1_3241/ide/plugins/com.nxp.mcuxpresso.tools.linux_11.1.0.202001081728/tools/bin/../lib/gcc/arm-none-eabi/8.3.1/../../../../arm-none-eabi/lib/thumb/v6-m/nofp/libcr_c.a(memset.o)
                0x0000000000005784                memset
 .text.free     0x000000000000578c       0x2c /usr/local/mcuxpressoide-11.1.1_3241/ide/plugins/com.nxp.mcuxpresso.tools.linux_11.1.0.202001081728/tools/bin/../lib/gcc/arm-none-eabi/8.3.1/../../../../arm-none-eabi/lib/thumb/v6-m/nofp/libcr_c.a(alloc.o)
                0x000000000000578c                free
 .text.fputs    0x00000000000057b8       0x2e /usr/local/mcuxpressoide-11.1.1_3241/ide/plugins/com.nxp.mcuxpresso.tools.linux_11.1.0.202001081728/tools/bin/../lib/gcc/arm-none-eabi/8.3.1/../../../../arm-none-eabi/lib/thumb/v6-m/nofp/libcr_c.a(fputs.o)
                0x00000000000057b8                fputs
 .text.no_fp_display
                0x00000000000057e6        0x4 /usr/local/mcuxpressoide-11.1.1_3241/ide/plugins/com.nxp.mcuxpresso.tools.linux_11.1.0.202001081728/tools/bin/../lib/gcc/arm-none-eabi/8.3.1/../../../../arm-none-eabi/lib/thumb/v6-m/nofp/libcr_c.a(printf.o)
 .text.remove   0x00000000000057ea       0x12 /usr/local/mcuxpressoide-11.1.1_3241/ide/plugins/com.nxp.mcuxpresso.tools.linux_11.1.0.202001081728/tools/bin/../lib/gcc/arm-none-eabi/8.3.1/../../../../arm-none-eabi/lib/thumb/v6-m/nofp/libcr_c.a(remove.o)
                0x00000000000057ea                remove
 .text.__aeabi_division_idivmod
                0x00000000000057fc       0x78 /usr/local/mcuxpressoide-11.1.1_3241/ide/plugins/com.nxp.mcuxpresso.tools.linux_11.1.0.202001081728/tools/bin/../lib/gcc/arm-none-eabi/8.3.1/thumb/v6-m/nofp/libcr_eabihelpers.a(division_32.o)
                0x00000000000057fc                __aeabi_idiv
                0x00000000000057fc                __aeabi_idivmod
                0x0000000000005802                __aeabi_uidiv
                0x0000000000005802                __aeabi_uidivmod
 .text.__aeabi_division_uldivmod
                0x0000000000005874       0x5a /usr/local/mcuxpressoide-11.1.1_3241/ide/plugins/com.nxp.mcuxpresso.tools.linux_11.1.0.202001081728/tools/bin/../lib/gcc/arm-none-eabi/8.3.1/thumb/v6-m/nofp/libcr_eabihelpers.a(division_64.o)
                0x0000000000005874                __aeabi_uldivmod
 .text.__aeabi_division_idiv0
                0x00000000000058ce        0x2 /usr/local/mcuxpressoide-11.1.1_3241/ide/plugins/com.nxp.mcuxpresso.tools.linux_11.1.0.202001081728/tools/bin/../lib/gcc/arm-none-eabi/8.3.1/thumb/v6-m/nofp/libcr_eabihelpers.a(division_idiv0.o)
                0x00000000000058ce                __aeabi_idiv0
 .text.__aeabi_f2uiz
                0x00000000000058d0       0x2a /usr/local/mcuxpressoide-11.1.1_3241/ide/plugins/com.nxp.mcuxpresso.tools.linux_11.1.0.202001081728/tools/bin/../lib/gcc/arm-none-eabi/8.3.1/thumb/v6-m/nofp/libcr_eabihelpers.a(float.o)
                0x00000000000058d0                __aeabi_f2uiz
 .text.__bhs_ui2f
                0x00000000000058fa       0x62 /usr/local/mcuxpressoide-11.1.1_3241/ide/plugins/com.nxp.mcuxpresso.tools.linux_11.1.0.202001081728/tools/bin/../lib/gcc/arm-none-eabi/8.3.1/thumb/v6-m/nofp/libcr_eabihelpers.a(float.o)
                0x00000000000058fa                __bhs_ui2f
 .text.__aeabi_i2f
                0x000000000000595c       0x18 /usr/local/mcuxpressoide-11.1.1_3241/ide/plugins/com.nxp.mcuxpresso.tools.linux_11.1.0.202001081728/tools/bin/../lib/gcc/arm-none-eabi/8.3.1/thumb/v6-m/nofp/libcr_eabihelpers.a(float.o)
                0x000000000000595c                __aeabi_i2f
 .text.__aeabi_ui2f
                0x0000000000005974        0xc /usr/local/mcuxpressoide-11.1.1_3241/ide/plugins/com.nxp.mcuxpresso.tools.linux_11.1.0.202001081728/tools/bin/../lib/gcc/arm-none-eabi/8.3.1/thumb/v6-m/nofp/libcr_eabihelpers.a(float.o)
                0x0000000000005974                __aeabi_ui2f
 .text.__aeabi_llong_lmul
                0x0000000000005980       0x2e /usr/local/mcuxpressoide-11.1.1_3241/ide/plugins/com.nxp.mcuxpresso.tools.linux_11.1.0.202001081728/tools/bin/../lib/gcc/arm-none-eabi/8.3.1/thumb/v6-m/nofp/libcr_eabihelpers.a(llong.o)
                0x0000000000005980                __aeabi_lmul
 .text.__aeabi_memcpy
                0x00000000000059ae       0x2c /usr/local/mcuxpressoide-11.1.1_3241/ide/plugins/com.nxp.mcuxpresso.tools.linux_11.1.0.202001081728/tools/bin/../lib/gcc/arm-none-eabi/8.3.1/thumb/v6-m/nofp/libcr_eabihelpers.a(memcpy.o)
                0x00000000000059ae                __aeabi_memcpy
                0x00000000000059ae                __aeabi_memcpy4
                0x00000000000059ae                __aeabi_memcpy8
 .text.__aeabi_memset_lowlevel
                0x00000000000059da       0x2a /usr/local/mcuxpressoide-11.1.1_3241/ide/plugins/com.nxp.mcuxpresso.tools.linux_11.1.0.202001081728/tools/bin/../lib/gcc/arm-none-eabi/8.3.1/thumb/v6-m/nofp/libcr_eabihelpers.a(memcpy.o)
                0x00000000000059da                __aeabi_lowlevel_memset
 .text.__sys_close
                0x0000000000005a04        0x6 /usr/local/mcuxpressoide-11.1.1_3241/ide/plugins/com.nxp.mcuxpresso.tools.linux_11.1.0.202001081728/tools/bin/../lib/gcc/arm-none-eabi/8.3.1/../../../../arm-none-eabi/lib/thumb/v6-m/nofp/libcr_nohost_nf.a(__sys_close.o)
                0x0000000000005a04                __sys_close
 .text.__sys_flen
                0x0000000000005a0a        0x6 /usr/local/mcuxpressoide-11.1.1_3241/ide/plugins/com.nxp.mcuxpresso.tools.linux_11.1.0.202001081728/tools/bin/../lib/gcc/arm-none-eabi/8.3.1/../../../../arm-none-eabi/lib/thumb/v6-m/nofp/libcr_nohost_nf.a(__sys_flen.o)
                0x0000000000005a0a                __sys_flen
 .text.__sys_istty
                0x0000000000005a10        0x6 /usr/local/mcuxpressoide-11.1.1_3241/ide/plugins/com.nxp.mcuxpresso.tools.linux_11.1.0.202001081728/tools/bin/../lib/gcc/arm-none-eabi/8.3.1/../../../../arm-none-eabi/lib/thumb/v6-m/nofp/libcr_nohost_nf.a(__sys_istty.o)
                0x0000000000005a10                __sys_istty
 .text.__sys_remove
                0x0000000000005a16        0x6 /usr/local/mcuxpressoide-11.1.1_3241/ide/plugins/com.nxp.mcuxpresso.tools.linux_11.1.0.202001081728/tools/bin/../lib/gcc/arm-none-eabi/8.3.1/../../../../arm-none-eabi/lib/thumb/v6-m/nofp/libcr_nohost_nf.a(__sys_remove.o)
                0x0000000000005a16                __sys_remove
 .text.__sys_seek
                0x0000000000005a1c        0x6 /usr/local/mcuxpressoide-11.1.1_3241/ide/plugins/com.nxp.mcuxpresso.tools.linux_11.1.0.202001081728/tools/bin/../lib/gcc/arm-none-eabi/8.3.1/../../../../arm-none-eabi/lib/thumb/v6-m/nofp/libcr_nohost_nf.a(__sys_seek.o)
                0x0000000000005a1c                __sys_seek
 .text.__sys_tmpnam
                0x0000000000005a22        0x6 /usr/local/mcuxpressoide-11.1.1_3241/ide/plugins/com.nxp.mcuxpresso.tools.linux_11.1.0.202001081728/tools/bin/../lib/gcc/arm-none-eabi/8.3.1/../../../../arm-none-eabi/lib/thumb/v6-m/nofp/libcr_nohost_nf.a(__sys_tmpnam.o)
                0x0000000000005a22                __sys_tmpnam
 *(SORT_BY_ALIGNMENT(.rodata) SORT_BY_ALIGNMENT(.rodata.*) SORT_BY_ALIGNMENT(.constdata) SORT_BY_ALIGNMENT(.constdata.*))
 .rodata.HDU_init.str1.4
                0x0000000000005a28       0xaf ./source/HDU/HDU.o
 *fill*         0x0000000000005ad7        0x1 ff
 .rodata.ADC16_GetChannelConversionValue.str1.4
                0x0000000000005ad8       0x5f ./source/HDU/HDU_ADC0.o
 *fill*         0x0000000000005b37        0x1 ff
 .rodata.HDU_BLUETOOTH_sendMessage.str1.4
                0x0000000000005b38        0x3 ./source/HDU/HDU_BLUETOOTH.o
 *fill*         0x0000000000005b3b        0x1 ff
 .rodata.HDU_BLUETOOTH_sendDebugMesssage.str1.4
                0x0000000000005b3c        0xd ./source/HDU/HDU_BLUETOOTH.o
 *fill*         0x0000000000005b49        0x3 ff
 .rodata.PIT_GetDefaultConfig.str1.4
                0x0000000000005b4c       0x49 ./source/HDU/HDU_LINESCAN.o
 *fill*         0x0000000000005b95        0x3 ff
 .rodata.ADC16_GetInstance.str1.4
                0x0000000000005b98       0x36 ./drivers/fsl_adc16.o
 *fill*         0x0000000000005bce        0x2 ff
 .rodata.ADC16_Init.str1.4
                0x0000000000005bd0       0x21 ./drivers/fsl_adc16.o
 *fill*         0x0000000000005bf1        0x3 ff
 .rodata.ADC16_GetDefaultConfig.str1.4
                0x0000000000005bf4       0x22 ./drivers/fsl_adc16.o
 *fill*         0x0000000000005c16        0x2 ff
 .rodata.ADC16_SetChannelConfig.str1.4
                0x0000000000005c18       0x52 ./drivers/fsl_adc16.o
 *fill*         0x0000000000005c6a        0x2 ff
 .rodata.ADC16_GetChannelStatusFlags.str1.4
                0x0000000000005c6c       0x30 ./drivers/fsl_adc16.o
 .rodata.CLOCK_GetMcgExtClkFreq.str1.4
                0x0000000000005c9c       0x1f ./drivers/fsl_clock.o
 *fill*         0x0000000000005cbb        0x1 ff
 .rodata.CLOCK_GetOsc0ErClkFreq.str1.4
                0x0000000000005cbc       0x1f ./drivers/fsl_clock.o
 *fill*         0x0000000000005cdb        0x1 ff
 .rodata.CLOCK_GetEr32kClkFreq.str1.4
                0x0000000000005cdc       0x20 ./drivers/fsl_clock.o
 .rodata.CLOCK_GetFreq
                0x0000000000005cfc       0x38 ./drivers/fsl_clock.o
 .rodata.CLOCK_GetPll0Freq.str1.4
                0x0000000000005d34       0x1e ./drivers/fsl_clock.o
 *fill*         0x0000000000005d52        0x2 ff
 .rodata.CLOCK_EnablePll0.str1.4
                0x0000000000005d54       0x1a ./drivers/fsl_clock.o
 *fill*         0x0000000000005d6e        0x2 ff
 .rodata.CLOCK_SetPbeMode.str1.4
                0x0000000000005d70       0x1b ./drivers/fsl_clock.o
 *fill*         0x0000000000005d8b        0x1 ff
 .rodata.CLOCK_BootToPeeMode.str1.4
                0x0000000000005d8c       0x1b ./drivers/fsl_clock.o
 *fill*         0x0000000000005da7        0x1 ff
 .rodata.fllFactorTable.5230
                0x0000000000005da8       0x10 ./drivers/fsl_clock.o
 .rodata.GPIO_PinInit.str1.4
                0x0000000000005db8       0x18 ./drivers/fsl_gpio.o
 .rodata.LPSCI_GetInstance.str1.4
                0x0000000000005dd0       0x37 ./drivers/fsl_lpsci.o
 *fill*         0x0000000000005e07        0x1 ff
 .rodata.LPSCI_Init.str1.4
                0x0000000000005e08       0x44 ./drivers/fsl_lpsci.o
 .rodata.LPSCI_GetDefaultConfig.str1.4
                0x0000000000005e4c       0x1a ./drivers/fsl_lpsci.o
 *fill*         0x0000000000005e66        0x2 ff
 .rodata.LPSCI_WriteBlocking.str1.4
                0x0000000000005e68       0x18 ./drivers/fsl_lpsci.o
 .rodata.LPSCI_ReadBlocking.str1.4
                0x0000000000005e80       0x18 ./drivers/fsl_lpsci.o
 .rodata.PIT_GetInstance.str1.4
                0x0000000000005e98       0x32 ./drivers/fsl_pit.o
 *fill*         0x0000000000005eca        0x2 ff
 .rodata.PIT_Init.str1.4
                0x0000000000005ecc       0x17 ./drivers/fsl_pit.o
 *fill*         0x0000000000005ee3        0x1 ff
 .rodata.s_tpmBases
                0x0000000000005ee4        0xc ./drivers/fsl_tpm.o
 .rodata.s_tpmClocks
                0x0000000000005ef0        0xc ./drivers/fsl_tpm.o
 .rodata.TPM_GetInstance.str1.4
                0x0000000000005efc       0x29 ./drivers/fsl_tpm.o
 *fill*         0x0000000000005f25        0x3 ff
 .rodata.TPM_Init.str1.4
                0x0000000000005f28       0x17 ./drivers/fsl_tpm.o
 *fill*         0x0000000000005f3f        0x1 ff
 .rodata.TPM_GetDefaultConfig.str1.4
                0x0000000000005f40       0x18 ./drivers/fsl_tpm.o
 .rodata.TPM_SetupPwm.str1.4
                0x0000000000005f58       0x71 ./drivers/fsl_tpm.o
 *fill*         0x0000000000005fc9        0x3 ff
 .rodata.TPM_UpdatePwmDutycycle.str1.4
                0x0000000000005fcc       0x43 ./drivers/fsl_tpm.o
 *fill*         0x000000000000600f        0x1 ff
 .rodata.s_uartBases
                0x0000000000006010        0xc ./drivers/fsl_uart.o
 .rodata.s_uartClock
                0x000000000000601c        0xc ./drivers/fsl_uart.o
 .rodata.UART_GetInstance.str1.4
                0x0000000000006028       0x2c ./drivers/fsl_uart.o
 .rodata.UART_Init.str1.4
                0x0000000000006054       0x43 ./drivers/fsl_uart.o
 *fill*         0x0000000000006097        0x1 ff
 .rodata.UART_GetDefaultConfig.str1.4
                0x0000000000006098       0x19 ./drivers/fsl_uart.o
 *fill*         0x00000000000060b1        0x3 ff
 .rodata.UART_ReadBlocking.str1.4
                0x00000000000060b4       0x18 ./drivers/fsl_uart.o
                                         0x17 (size before relaxing)
 .rodata.mcgConfig_BOARD_BootClockRUN
                0x00000000000060cc        0xa ./board/clock_config.o
                0x00000000000060cc                mcgConfig_BOARD_BootClockRUN
 *fill*         0x00000000000060d6        0x2 ff
 .rodata.simConfig_BOARD_BootClockRUN
                0x00000000000060d8        0x8 ./board/clock_config.o
                0x00000000000060d8                simConfig_BOARD_BootClockRUN
 .rodata.oscConfig_BOARD_BootClockRUN
                0x00000000000060e0        0x8 ./board/clock_config.o
                0x00000000000060e0                oscConfig_BOARD_BootClockRUN
 .rodata.__num_Ciob_streams
                0x00000000000060e8        0x4 /usr/local/mcuxpressoide-11.1.1_3241/ide/plugins/com.nxp.mcuxpresso.tools.linux_11.1.0.202001081728/tools/bin/../lib/gcc/arm-none-eabi/8.3.1/../../../../arm-none-eabi/lib/thumb/v6-m/nofp/libcr_nohost_nf.a(__ciob.o)
                0x00000000000060e8                __num_Ciob_streams
 .rodata.__assertion_failed.str1.1
                0x00000000000060ec       0x15 /usr/local/mcuxpressoide-11.1.1_3241/ide/plugins/com.nxp.mcuxpresso.tools.linux_11.1.0.202001081728/tools/bin/../lib/gcc/arm-none-eabi/8.3.1/../../../../arm-none-eabi/lib/thumb/v6-m/nofp/libcr_nohost_nf.a(_cr_assert.o)
 .rodata._Csys_alloc.str1.1
                0x0000000000006101       0x18 /usr/local/mcuxpressoide-11.1.1_3241/ide/plugins/com.nxp.mcuxpresso.tools.linux_11.1.0.202001081728/tools/bin/../lib/gcc/arm-none-eabi/8.3.1/../../../../arm-none-eabi/lib/thumb/v6-m/nofp/libcr_c.a(alloc.o)
 .rodata._initio.str1.1
                0x0000000000006119        0x4 /usr/local/mcuxpressoide-11.1.1_3241/ide/plugins/com.nxp.mcuxpresso.tools.linux_11.1.0.202001081728/tools/bin/../lib/gcc/arm-none-eabi/8.3.1/../../../../arm-none-eabi/lib/thumb/v6-m/nofp/libcr_c.a(initio.o)
 .rodata.__vfprintf.str1.1
                0x000000000000611d       0x35 /usr/local/mcuxpressoide-11.1.1_3241/ide/plugins/com.nxp.mcuxpresso.tools.linux_11.1.0.202001081728/tools/bin/../lib/gcc/arm-none-eabi/8.3.1/../../../../arm-none-eabi/lib/thumb/v6-m/nofp/libcr_c.a(printf.o)
                                         0x38 (size before relaxing)
                0x0000000000006154                . = ALIGN (0x4)
 *fill*         0x0000000000006152        0x2 ff

.glue_7         0x0000000000006154        0x0
 .glue_7        0x0000000000006154        0x0 linker stubs

.glue_7t        0x0000000000006154        0x0
 .glue_7t       0x0000000000006154        0x0 linker stubs

.vfp11_veneer   0x0000000000006154        0x0
 .vfp11_veneer  0x0000000000006154        0x0 linker stubs

.v4_bx          0x0000000000006154        0x0
 .v4_bx         0x0000000000006154        0x0 linker stubs

.iplt           0x0000000000006154        0x0
 .iplt          0x0000000000006154        0x0 ./utilities/fsl_debug_console.o

.rel.dyn        0x0000000000006154        0x0
 .rel.iplt      0x0000000000006154        0x0 ./utilities/fsl_debug_console.o

.ARM.extab
 *(SORT_BY_ALIGNMENT(.ARM.extab*) SORT_BY_ALIGNMENT(.gnu.linkonce.armextab.*))

.ARM.exidx      0x0000000000006154        0x0
                0x0000000000006154                __exidx_start = .
 *(SORT_BY_ALIGNMENT(.ARM.exidx*) SORT_BY_ALIGNMENT(.gnu.linkonce.armexidx.*))
                0x0000000000006154                __exidx_end = .
                0x0000000000006154                _etext = .

.m_usb_data
 *(SORT_BY_ALIGNMENT(m_usb_bdt))

.mtb_buffer_default
                0x000000001ffff000       0x80
 *(SORT_BY_ALIGNMENT(.mtb*))
 .mtb.$RAM1     0x000000001ffff000       0x80 ./source/mtb.o
                0x000000001ffff000                __mtb_buffer__

.uninit_RESERVED
                0x000000001ffff080        0x0
                0x000000001ffff080                _start_uninit_RESERVED = .
 *(SORT_BY_ALIGNMENT(.bss.$RESERVED*))
                0x000000001ffff080                . = ALIGN (0x4)
                0x000000001ffff080                _end_uninit_RESERVED = .

.data           0x000000001ffff080        0xc load address 0x0000000000006154
 FILL mask 0xff
                0x000000001ffff080                _data = .
                [!provide]                        PROVIDE (__start_data_RAM = .)
                [!provide]                        PROVIDE (__start_data_SRAM = .)
 *(SORT_BY_ALIGNMENT(vtable))
 *(SORT_BY_ALIGNMENT(.ramfunc*))
 *(SORT_BY_ALIGNMENT(CodeQuickAccess))
 *(SORT_BY_ALIGNMENT(DataQuickAccess))
 *(SORT_BY_ALIGNMENT(RamFunction))
 *(SORT_BY_ALIGNMENT(.data*))
 .data.s_slowIrcFreq
                0x000000001ffff080        0x4 ./drivers/fsl_clock.o
 .data.s_fastIrcFreq
                0x000000001ffff084        0x4 ./drivers/fsl_clock.o
 .data.SystemCoreClock
                0x000000001ffff088        0x4 ./CMSIS/system_MKL25Z4.o
                0x000000001ffff088                SystemCoreClock
                0x000000001ffff08c                . = ALIGN (0x4)
                0x000000001ffff08c                _edata = .
                [!provide]                        PROVIDE (__end_data_RAM = .)
                [!provide]                        PROVIDE (__end_data_SRAM = .)

.igot.plt       0x000000001ffff08c        0x0 load address 0x0000000000006160
 .igot.plt      0x000000001ffff08c        0x0 ./utilities/fsl_debug_console.o

.bss            0x000000001ffff08c      0x394
                0x000000001ffff08c                _bss = .
                [!provide]                        PROVIDE (__start_bss_RAM = .)
                [!provide]                        PROVIDE (__start_bss_SRAM = .)
 *(SORT_BY_ALIGNMENT(.bss*))
 .bss.s_debugConsole
                0x000000001ffff08c       0x10 ./utilities/fsl_debug_console.o
 .bss.adc0ConfigStruct
                0x000000001ffff09c        0x9 ./source/HDU/HDU_ADC0.o
                0x000000001ffff09c                adc0ConfigStruct
 *fill*         0x000000001ffff0a5        0x3 
 .bss.adc0ChannelConfigStruct
                0x000000001ffff0a8        0x8 ./source/HDU/HDU_ADC0.o
                0x000000001ffff0a8                adc0ChannelConfigStruct
 .bss.vbat_adc  0x000000001ffff0b0        0x8 ./source/HDU/HDU_BATSENSE.o
                0x000000001ffff0b0                vbat_adc
 .bss.ratio     0x000000001ffff0b8        0x4 ./source/HDU/HDU_BATSENSE.o
                0x000000001ffff0b8                ratio
 .bss.bluetooth_uart_config
                0x000000001ffff0bc        0x8 ./source/HDU/HDU_BLUETOOTH.o
                0x000000001ffff0bc                bluetooth_uart_config
 .bss.pot_a_adc
                0x000000001ffff0c4        0x8 ./source/HDU/HDU_HMI.o
                0x000000001ffff0c4                pot_a_adc
 .bss.pot_b_adc
                0x000000001ffff0cc        0x8 ./source/HDU/HDU_HMI.o
                0x000000001ffff0cc                pot_b_adc
 .bss.HDU_HMI_userInput
                0x000000001ffff0d4        0x8 ./source/HDU/HDU_HMI.o
                0x000000001ffff0d4                HDU_HMI_userInput
 .bss.HDU_LINESCAN_data
                0x000000001ffff0dc      0x204 ./source/HDU/HDU_LINESCAN.o
                0x000000001ffff0dc                HDU_LINESCAN_data
 .bss.cam_0_adc
                0x000000001ffff2e0        0x8 ./source/HDU/HDU_LINESCAN.o
                0x000000001ffff2e0                cam_0_adc
 .bss.cam_1_adc
                0x000000001ffff2e8        0x8 ./source/HDU/HDU_LINESCAN.o
                0x000000001ffff2e8                cam_1_adc
 .bss.pitConfig
                0x000000001ffff2f0        0x1 ./source/HDU/HDU_LINESCAN.o
                0x000000001ffff2f0                pitConfig
 *fill*         0x000000001ffff2f1        0x3 
 .bss.tpm0Conf  0x000000001ffff2f4        0x8 ./source/HDU/HDU_POWERTRAIN.o
                0x000000001ffff2f4                tpm0Conf
 .bss.mot_a_pwm1
                0x000000001ffff2fc        0x3 ./source/HDU/HDU_POWERTRAIN.o
                0x000000001ffff2fc                mot_a_pwm1
 *fill*         0x000000001ffff2ff        0x1 
 .bss.mot_a_pwm2
                0x000000001ffff300        0x3 ./source/HDU/HDU_POWERTRAIN.o
                0x000000001ffff300                mot_a_pwm2
 *fill*         0x000000001ffff303        0x1 
 .bss.mot_b_pwm1
                0x000000001ffff304        0x3 ./source/HDU/HDU_POWERTRAIN.o
                0x000000001ffff304                mot_b_pwm1
 *fill*         0x000000001ffff307        0x1 
 .bss.mot_b_pwm2
                0x000000001ffff308        0x3 ./source/HDU/HDU_POWERTRAIN.o
                0x000000001ffff308                mot_b_pwm2
 *fill*         0x000000001ffff30b        0x1 
 .bss.mot_a_cs_adc
                0x000000001ffff30c        0x8 ./source/HDU/HDU_POWERTRAIN.o
                0x000000001ffff30c                mot_a_cs_adc
 .bss.mot_b_cs_adc
                0x000000001ffff314        0x8 ./source/HDU/HDU_POWERTRAIN.o
                0x000000001ffff314                mot_b_cs_adc
 .bss.mot_a_bemf_adc
                0x000000001ffff31c        0x8 ./source/HDU/HDU_POWERTRAIN.o
                0x000000001ffff31c                mot_a_bemf_adc
 .bss.mot_b_bemf_adc
                0x000000001ffff324        0x8 ./source/HDU/HDU_POWERTRAIN.o
                0x000000001ffff324                mot_b_bemf_adc
 .bss.tpm1Conf  0x000000001ffff32c        0x8 ./source/HDU/HDU_SERVO.o
                0x000000001ffff32c                tpm1Conf
 .bss.servo_0_pwm
                0x000000001ffff334        0x3 ./source/HDU/HDU_SERVO.o
                0x000000001ffff334                servo_0_pwm
 *fill*         0x000000001ffff337        0x1 
 .bss.servo_1_pwm
                0x000000001ffff338        0x3 ./source/HDU/HDU_SERVO.o
                0x000000001ffff338                servo_1_pwm
 *fill*         0x000000001ffff33b        0x1 
 .bss.servodutycycle
                0x000000001ffff33c        0x4 ./source/HighDriveUnit.o
                0x000000001ffff33c                servodutycycle
 .bss.g_xtal0Freq
                0x000000001ffff340        0x4 ./drivers/fsl_clock.o
                0x000000001ffff340                g_xtal0Freq
 .bss.g_xtal32Freq
                0x000000001ffff344        0x4 ./drivers/fsl_clock.o
                0x000000001ffff344                g_xtal32Freq
 .bss.s_lpsciHandle
                0x000000001ffff348        0x4 ./drivers/fsl_lpsci.o
 .bss.s_lpsciIsr
                0x000000001ffff34c        0x4 ./drivers/fsl_lpsci.o
 .bss.s_uartHandle
                0x000000001ffff350        0xc ./drivers/fsl_uart.o
 .bss.s_uartIsr
                0x000000001ffff35c        0x4 ./drivers/fsl_uart.o
 .bss.__Ciob    0x000000001ffff360       0xb4 /usr/local/mcuxpressoide-11.1.1_3241/ide/plugins/com.nxp.mcuxpresso.tools.linux_11.1.0.202001081728/tools/bin/../lib/gcc/arm-none-eabi/8.3.1/../../../../arm-none-eabi/lib/thumb/v6-m/nofp/libcr_nohost_nf.a(__ciob.o)
                0x000000001ffff360                __Ciob
 .bss.__end_of_heap
                0x000000001ffff414        0x4 /usr/local/mcuxpressoide-11.1.1_3241/ide/plugins/com.nxp.mcuxpresso.tools.linux_11.1.0.202001081728/tools/bin/../lib/gcc/arm-none-eabi/8.3.1/../../../../arm-none-eabi/lib/thumb/v6-m/nofp/libcr_c.a(__init_alloc.o)
                0x000000001ffff414                __end_of_heap
 .bss.__heaps   0x000000001ffff418        0x4 /usr/local/mcuxpressoide-11.1.1_3241/ide/plugins/com.nxp.mcuxpresso.tools.linux_11.1.0.202001081728/tools/bin/../lib/gcc/arm-none-eabi/8.3.1/../../../../arm-none-eabi/lib/thumb/v6-m/nofp/libcr_c.a(__init_alloc.o)
                0x000000001ffff418                __heaps
 .bss.errno     0x000000001ffff41c        0x4 /usr/local/mcuxpressoide-11.1.1_3241/ide/plugins/com.nxp.mcuxpresso.tools.linux_11.1.0.202001081728/tools/bin/../lib/gcc/arm-none-eabi/8.3.1/../../../../arm-none-eabi/lib/thumb/v6-m/nofp/libcr_c.a(errno.o)
                0x000000001ffff41c                errno
 *(SORT_BY_ALIGNMENT(COMMON))
                0x000000001ffff420                . = ALIGN (0x4)
                0x000000001ffff420                _ebss = .
                [!provide]                        PROVIDE (__end_bss_RAM = .)
                [!provide]                        PROVIDE (__end_bss_SRAM = .)
                [!provide]                        PROVIDE (end = .)

.noinit         0x000000001ffff420        0x0
                0x000000001ffff420                _noinit = .
                [!provide]                        PROVIDE (__start_noinit_RAM = .)
                [!provide]                        PROVIDE (__start_noinit_SRAM = .)
 *(SORT_BY_ALIGNMENT(.noinit*))
                0x000000001ffff420                . = ALIGN (0x4)
                0x000000001ffff420                _end_noinit = .
                [!provide]                        PROVIDE (__end_noinit_RAM = .)
                [!provide]                        PROVIDE (__end_noinit_SRAM = .)
                0x0000000000000400                _HeapSize = 0x400

.heap           0x000000001ffff420      0x400
                0x000000001ffff420                _pvHeapStart = .
                0x000000001ffff820                . = (. + _HeapSize)
 *fill*         0x000000001ffff420      0x400 
                0x000000001ffff820                . = ALIGN (0x4)
                0x000000001ffff820                _pvHeapLimit = .
                0x0000000000000400                _StackSize = 0x400

.heap2stackfill
                0x000000001ffff820      0x400
                0x000000001ffffc20                . = (. + _StackSize)
 *fill*         0x000000001ffff820      0x400 

.stack          0x0000000020002c00        0x0
                0x0000000020002c00                _vStackBase = .
                0x0000000020002c00                . = ALIGN (0x4)
                0x0000000020003000                _vStackTop = (. + _StackSize)
                0x0000000000000000                _image_start = LOADADDR (.text)
                0x0000000000006160                _image_end = (LOADADDR (.data) + SIZEOF (.data))
                0x0000000000006160                _image_size = (_image_end - _image_start)
OUTPUT(HighDriveUnit.axf elf32-littlearm)

.debug_info     0x0000000000000000     0xf779
 .debug_info    0x0000000000000000      0xa38 ./utilities/fsl_debug_console.o
 .debug_info    0x0000000000000a38      0x4df ./startup/startup_mkl25z4.o
 .debug_info    0x0000000000000f17      0x5f6 ./source/HDU/HDU.o
 .debug_info    0x000000000000150d      0x7d4 ./source/HDU/HDU_ADC0.o
 .debug_info    0x0000000000001ce1      0x751 ./source/HDU/HDU_BATSENSE.o
 .debug_info    0x0000000000002432      0xcf4 ./source/HDU/HDU_BLUETOOTH.o
 .debug_info    0x0000000000003126      0x99c ./source/HDU/HDU_HMI.o
 .debug_info    0x0000000000003ac2      0xe9b ./source/HDU/HDU_LINESCAN.o
 .debug_info    0x000000000000495d     0x1008 ./source/HDU/HDU_POWERTRAIN.o
 .debug_info    0x0000000000005965      0xd9b ./source/HDU/HDU_SERVO.o
 .debug_info    0x0000000000006700      0x8a5 ./source/HighDriveUnit.o
 .debug_info    0x0000000000006fa5       0x53 ./source/mtb.o
 .debug_info    0x0000000000006ff8       0x3c ./source/semihost_hardfault.o
 .debug_info    0x0000000000007034      0xc9e ./drivers/fsl_adc16.o
 .debug_info    0x0000000000007cd2     0x1a97 ./drivers/fsl_clock.o
 .debug_info    0x0000000000009769      0x566 ./drivers/fsl_gpio.o
 .debug_info    0x0000000000009ccf     0x1469 ./drivers/fsl_lpsci.o
 .debug_info    0x000000000000b138      0x62e ./drivers/fsl_pit.o
 .debug_info    0x000000000000b766      0xc74 ./drivers/fsl_tpm.o
 .debug_info    0x000000000000c3da     0x140a ./drivers/fsl_uart.o
 .debug_info    0x000000000000d7e4      0x80b ./board/board.o
 .debug_info    0x000000000000dfef      0xafe ./board/clock_config.o
 .debug_info    0x000000000000eaed       0x3c ./board/peripherals.o
 .debug_info    0x000000000000eb29      0x817 ./board/pin_mux.o
 .debug_info    0x000000000000f340      0x439 ./CMSIS/system_MKL25Z4.o

.debug_abbrev   0x0000000000000000     0x307f
 .debug_abbrev  0x0000000000000000      0x22c ./utilities/fsl_debug_console.o
 .debug_abbrev  0x000000000000022c      0x18d ./startup/startup_mkl25z4.o
 .debug_abbrev  0x00000000000003b9      0x12a ./source/HDU/HDU.o
 .debug_abbrev  0x00000000000004e3      0x1c7 ./source/HDU/HDU_ADC0.o
 .debug_abbrev  0x00000000000006aa      0x190 ./source/HDU/HDU_BATSENSE.o
 .debug_abbrev  0x000000000000083a      0x1fa ./source/HDU/HDU_BLUETOOTH.o
 .debug_abbrev  0x0000000000000a34      0x241 ./source/HDU/HDU_HMI.o
 .debug_abbrev  0x0000000000000c75      0x303 ./source/HDU/HDU_LINESCAN.o
 .debug_abbrev  0x0000000000000f78      0x299 ./source/HDU/HDU_POWERTRAIN.o
 .debug_abbrev  0x0000000000001211      0x21c ./source/HDU/HDU_SERVO.o
 .debug_abbrev  0x000000000000142d      0x1fa ./source/HighDriveUnit.o
 .debug_abbrev  0x0000000000001627       0x46 ./source/mtb.o
 .debug_abbrev  0x000000000000166d       0x31 ./source/semihost_hardfault.o
 .debug_abbrev  0x000000000000169e      0x2a2 ./drivers/fsl_adc16.o
 .debug_abbrev  0x0000000000001940      0x36f ./drivers/fsl_clock.o
 .debug_abbrev  0x0000000000001caf      0x1b8 ./drivers/fsl_gpio.o
 .debug_abbrev  0x0000000000001e67      0x309 ./drivers/fsl_lpsci.o
 .debug_abbrev  0x0000000000002170      0x221 ./drivers/fsl_pit.o
 .debug_abbrev  0x0000000000002391      0x282 ./drivers/fsl_tpm.o
 .debug_abbrev  0x0000000000002613      0x323 ./drivers/fsl_uart.o
 .debug_abbrev  0x0000000000002936      0x1a7 ./board/board.o
 .debug_abbrev  0x0000000000002add      0x211 ./board/clock_config.o
 .debug_abbrev  0x0000000000002cee       0x31 ./board/peripherals.o
 .debug_abbrev  0x0000000000002d1f      0x20a ./board/pin_mux.o
 .debug_abbrev  0x0000000000002f29      0x156 ./CMSIS/system_MKL25Z4.o

.debug_aranges  0x0000000000000000      0xb78
 .debug_aranges
                0x0000000000000000       0x58 ./utilities/fsl_debug_console.o
 .debug_aranges
                0x0000000000000058      0x160 ./startup/startup_mkl25z4.o
 .debug_aranges
                0x00000000000001b8       0x28 ./source/HDU/HDU.o
 .debug_aranges
                0x00000000000001e0       0x38 ./source/HDU/HDU_ADC0.o
 .debug_aranges
                0x0000000000000218       0x28 ./source/HDU/HDU_BATSENSE.o
 .debug_aranges
                0x0000000000000240       0x38 ./source/HDU/HDU_BLUETOOTH.o
 .debug_aranges
                0x0000000000000278       0x68 ./source/HDU/HDU_HMI.o
 .debug_aranges
                0x00000000000002e0       0x98 ./source/HDU/HDU_LINESCAN.o
 .debug_aranges
                0x0000000000000378       0x80 ./source/HDU/HDU_POWERTRAIN.o
 .debug_aranges
                0x00000000000003f8       0x50 ./source/HDU/HDU_SERVO.o
 .debug_aranges
                0x0000000000000448       0x30 ./source/HighDriveUnit.o
 .debug_aranges
                0x0000000000000478       0x18 ./source/mtb.o
 .debug_aranges
                0x0000000000000490       0x20 ./source/semihost_hardfault.o
 .debug_aranges
                0x00000000000004b0       0x88 ./drivers/fsl_adc16.o
 .debug_aranges
                0x0000000000000538      0x1d8 ./drivers/fsl_clock.o
 .debug_aranges
                0x0000000000000710       0x40 ./drivers/fsl_gpio.o
 .debug_aranges
                0x0000000000000750      0x118 ./drivers/fsl_lpsci.o
 .debug_aranges
                0x0000000000000868       0x48 ./drivers/fsl_pit.o
 .debug_aranges
                0x00000000000008b0       0x88 ./drivers/fsl_tpm.o
 .debug_aranges
                0x0000000000000938      0x130 ./drivers/fsl_uart.o
 .debug_aranges
                0x0000000000000a68       0x28 ./board/board.o
 .debug_aranges
                0x0000000000000a90       0x58 ./board/clock_config.o
 .debug_aranges
                0x0000000000000ae8       0x20 ./board/peripherals.o
 .debug_aranges
                0x0000000000000b08       0x48 ./board/pin_mux.o
 .debug_aranges
                0x0000000000000b50       0x28 ./CMSIS/system_MKL25Z4.o

.debug_ranges   0x0000000000000000      0x9e0
 .debug_ranges  0x0000000000000000       0x48 ./utilities/fsl_debug_console.o
 .debug_ranges  0x0000000000000048      0x150 ./startup/startup_mkl25z4.o
 .debug_ranges  0x0000000000000198       0x18 ./source/HDU/HDU.o
 .debug_ranges  0x00000000000001b0       0x28 ./source/HDU/HDU_ADC0.o
 .debug_ranges  0x00000000000001d8       0x18 ./source/HDU/HDU_BATSENSE.o
 .debug_ranges  0x00000000000001f0       0x28 ./source/HDU/HDU_BLUETOOTH.o
 .debug_ranges  0x0000000000000218       0x58 ./source/HDU/HDU_HMI.o
 .debug_ranges  0x0000000000000270       0x88 ./source/HDU/HDU_LINESCAN.o
 .debug_ranges  0x00000000000002f8       0x70 ./source/HDU/HDU_POWERTRAIN.o
 .debug_ranges  0x0000000000000368       0x40 ./source/HDU/HDU_SERVO.o
 .debug_ranges  0x00000000000003a8       0x20 ./source/HighDriveUnit.o
 .debug_ranges  0x00000000000003c8       0x10 ./source/semihost_hardfault.o
 .debug_ranges  0x00000000000003d8       0x78 ./drivers/fsl_adc16.o
 .debug_ranges  0x0000000000000450      0x1c8 ./drivers/fsl_clock.o
 .debug_ranges  0x0000000000000618       0x30 ./drivers/fsl_gpio.o
 .debug_ranges  0x0000000000000648      0x108 ./drivers/fsl_lpsci.o
 .debug_ranges  0x0000000000000750       0x38 ./drivers/fsl_pit.o
 .debug_ranges  0x0000000000000788       0x78 ./drivers/fsl_tpm.o
 .debug_ranges  0x0000000000000800      0x120 ./drivers/fsl_uart.o
 .debug_ranges  0x0000000000000920       0x18 ./board/board.o
 .debug_ranges  0x0000000000000938       0x48 ./board/clock_config.o
 .debug_ranges  0x0000000000000980       0x10 ./board/peripherals.o
 .debug_ranges  0x0000000000000990       0x38 ./board/pin_mux.o
 .debug_ranges  0x00000000000009c8       0x18 ./CMSIS/system_MKL25Z4.o

.debug_macro    0x0000000000000000     0x9dd1
 .debug_macro   0x0000000000000000      0x13a ./utilities/fsl_debug_console.o
 .debug_macro   0x000000000000013a      0xaae ./utilities/fsl_debug_console.o
 .debug_macro   0x0000000000000be8       0x10 ./utilities/fsl_debug_console.o
 .debug_macro   0x0000000000000bf8       0x16 ./utilities/fsl_debug_console.o
 .debug_macro   0x0000000000000c0e       0x10 ./utilities/fsl_debug_console.o
 .debug_macro   0x0000000000000c1e      0x12e ./utilities/fsl_debug_console.o
 .debug_macro   0x0000000000000d4c       0x28 ./utilities/fsl_debug_console.o
 .debug_macro   0x0000000000000d74       0xc4 ./utilities/fsl_debug_console.o
 .debug_macro   0x0000000000000e38       0x16 ./utilities/fsl_debug_console.o
 .debug_macro   0x0000000000000e4e       0x22 ./utilities/fsl_debug_console.o
 .debug_macro   0x0000000000000e70      0x5b3 ./utilities/fsl_debug_console.o
 .debug_macro   0x0000000000001423       0x10 ./utilities/fsl_debug_console.o
 .debug_macro   0x0000000000001433       0x3f ./utilities/fsl_debug_console.o
 .debug_macro   0x0000000000001472       0x3a ./utilities/fsl_debug_console.o
 .debug_macro   0x00000000000014ac       0x26 ./utilities/fsl_debug_console.o
 .debug_macro   0x00000000000014d2      0x329 ./utilities/fsl_debug_console.o
 .debug_macro   0x00000000000017fb       0x30 ./utilities/fsl_debug_console.o
 .debug_macro   0x000000000000182b     0x51e2 ./utilities/fsl_debug_console.o
 .debug_macro   0x0000000000006a0d     0x1352 ./utilities/fsl_debug_console.o
 .debug_macro   0x0000000000007d5f       0x3a ./utilities/fsl_debug_console.o
 .debug_macro   0x0000000000007d99       0xf4 ./utilities/fsl_debug_console.o
 .debug_macro   0x0000000000007e8d       0x35 ./utilities/fsl_debug_console.o
 .debug_macro   0x0000000000007ec2       0xd2 ./utilities/fsl_debug_console.o
 .debug_macro   0x0000000000007f94       0x2e ./utilities/fsl_debug_console.o
 .debug_macro   0x0000000000007fc2       0x10 ./utilities/fsl_debug_console.o
 .debug_macro   0x0000000000007fd2       0x10 ./utilities/fsl_debug_console.o
 .debug_macro   0x0000000000007fe2       0x29 ./startup/startup_mkl25z4.o
 .debug_macro   0x000000000000800b      0x1b9 ./source/HDU/HDU.o
 .debug_macro   0x00000000000081c4       0x1c ./source/HDU/HDU.o
 .debug_macro   0x00000000000081e0       0x16 ./source/HDU/HDU.o
 .debug_macro   0x00000000000081f6       0x10 ./source/HDU/HDU.o
 .debug_macro   0x0000000000008206      0x112 ./source/HDU/HDU.o
 .debug_macro   0x0000000000008318       0x34 ./source/HDU/HDU.o
 .debug_macro   0x000000000000834c      0x2aa ./source/HDU/HDU.o
 .debug_macro   0x00000000000085f6       0x10 ./source/HDU/HDU.o
 .debug_macro   0x0000000000008606       0x10 ./source/HDU/HDU.o
 .debug_macro   0x0000000000008616       0xf6 ./source/HDU/HDU_ADC0.o
 .debug_macro   0x000000000000870c      0x162 ./source/HDU/HDU_BATSENSE.o
 .debug_macro   0x000000000000886e      0x14d ./source/HDU/HDU_BLUETOOTH.o
 .debug_macro   0x00000000000089bb       0xd8 ./source/HDU/HDU_BLUETOOTH.o
 .debug_macro   0x0000000000008a93      0x162 ./source/HDU/HDU_HMI.o
 .debug_macro   0x0000000000008bf5      0x16b ./source/HDU/HDU_LINESCAN.o
 .debug_macro   0x0000000000008d60      0x16b ./source/HDU/HDU_POWERTRAIN.o
 .debug_macro   0x0000000000008ecb      0x14d ./source/HDU/HDU_SERVO.o
 .debug_macro   0x0000000000009018      0x1b9 ./source/HighDriveUnit.o
 .debug_macro   0x00000000000091d1       0x2f ./source/mtb.o
 .debug_macro   0x0000000000009200       0x82 ./source/mtb.o
 .debug_macro   0x0000000000009282       0x10 ./source/mtb.o
 .debug_macro   0x0000000000009292       0x11 ./source/semihost_hardfault.o
 .debug_macro   0x00000000000092a3       0xec ./drivers/fsl_adc16.o
 .debug_macro   0x000000000000938f      0x196 ./drivers/fsl_clock.o
 .debug_macro   0x0000000000009525       0xec ./drivers/fsl_gpio.o
 .debug_macro   0x0000000000009611       0xec ./drivers/fsl_lpsci.o
 .debug_macro   0x00000000000096fd       0xec ./drivers/fsl_pit.o
 .debug_macro   0x00000000000097e9       0xf2 ./drivers/fsl_tpm.o
 .debug_macro   0x00000000000098db       0xf2 ./drivers/fsl_uart.o
 .debug_macro   0x00000000000099cd      0x12b ./board/board.o
 .debug_macro   0x0000000000009af8      0x123 ./board/clock_config.o
 .debug_macro   0x0000000000009c1b       0x1b ./board/peripherals.o
 .debug_macro   0x0000000000009c36       0xf7 ./board/pin_mux.o
 .debug_macro   0x0000000000009d2d       0x10 ./board/pin_mux.o
 .debug_macro   0x0000000000009d3d       0x94 ./CMSIS/system_MKL25Z4.o

.debug_line     0x0000000000000000     0x86f4
 .debug_line    0x0000000000000000      0x4c9 ./utilities/fsl_debug_console.o
 .debug_line    0x00000000000004c9      0x1e7 ./startup/startup_mkl25z4.o
 .debug_line    0x00000000000006b0      0x4ad ./source/HDU/HDU.o
 .debug_line    0x0000000000000b5d      0x3ac ./source/HDU/HDU_ADC0.o
 .debug_line    0x0000000000000f09      0x432 ./source/HDU/HDU_BATSENSE.o
 .debug_line    0x000000000000133b      0x484 ./source/HDU/HDU_BLUETOOTH.o
 .debug_line    0x00000000000017bf      0x57c ./source/HDU/HDU_HMI.o
 .debug_line    0x0000000000001d3b      0x664 ./source/HDU/HDU_LINESCAN.o
 .debug_line    0x000000000000239f      0x5e1 ./source/HDU/HDU_POWERTRAIN.o
 .debug_line    0x0000000000002980      0x507 ./source/HDU/HDU_SERVO.o
 .debug_line    0x0000000000002e87      0x553 ./source/HighDriveUnit.o
 .debug_line    0x00000000000033da       0xd5 ./source/mtb.o
 .debug_line    0x00000000000034af       0x5a ./source/semihost_hardfault.o
 .debug_line    0x0000000000003509      0x643 ./drivers/fsl_adc16.o
 .debug_line    0x0000000000003b4c     0x12e0 ./drivers/fsl_clock.o
 .debug_line    0x0000000000004e2c      0x37a ./drivers/fsl_gpio.o
 .debug_line    0x00000000000051a6      0xd61 ./drivers/fsl_lpsci.o
 .debug_line    0x0000000000005f07      0x396 ./drivers/fsl_pit.o
 .debug_line    0x000000000000629d      0x7fb ./drivers/fsl_tpm.o
 .debug_line    0x0000000000006a98      0xd50 ./drivers/fsl_uart.o
 .debug_line    0x00000000000077e8      0x36b ./board/board.o
 .debug_line    0x0000000000007b53      0x3c9 ./board/clock_config.o
 .debug_line    0x0000000000007f1c       0x5c ./board/peripherals.o
 .debug_line    0x0000000000007f78      0x435 ./board/pin_mux.o
 .debug_line    0x00000000000083ad      0x347 ./CMSIS/system_MKL25Z4.o

.debug_str      0x0000000000000000    0x383b0
 .debug_str     0x0000000000000000    0x315d3 ./utilities/fsl_debug_console.o
                                      0x31839 (size before relaxing)
 .debug_str     0x00000000000315d3      0x3e1 ./startup/startup_mkl25z4.o
                                       0x31cd (size before relaxing)
 .debug_str     0x00000000000319b4     0x1866 ./source/HDU/HDU.o
                                      0x321a3 (size before relaxing)
 .debug_str     0x000000000003321a      0x686 ./source/HDU/HDU_ADC0.o
                                      0x31101 (size before relaxing)
 .debug_str     0x00000000000338a0       0x50 ./source/HDU/HDU_BATSENSE.o
                                      0x324df (size before relaxing)
 .debug_str     0x00000000000338f0      0x3e1 ./source/HDU/HDU_BLUETOOTH.o
                                      0x32937 (size before relaxing)
 .debug_str     0x0000000000033cd1      0x110 ./source/HDU/HDU_HMI.o
                                      0x325e7 (size before relaxing)
 .debug_str     0x0000000000033de1      0x477 ./source/HDU/HDU_LINESCAN.o
                                      0x32b0f (size before relaxing)
 .debug_str     0x0000000000034258      0x6ae ./source/HDU/HDU_POWERTRAIN.o
                                      0x32e11 (size before relaxing)
 .debug_str     0x0000000000034906       0xc9 ./source/HDU/HDU_SERVO.o
                                      0x32bc8 (size before relaxing)
 .debug_str     0x00000000000349cf       0x39 ./source/HighDriveUnit.o
                                      0x3267f (size before relaxing)
 .debug_str     0x0000000000034a08      0x532 ./source/mtb.o
                                       0x32d9 (size before relaxing)
 .debug_str     0x0000000000034f3a       0x1f ./source/semihost_hardfault.o
                                       0x2dc6 (size before relaxing)
 .debug_str     0x0000000000034f59      0x386 ./drivers/fsl_adc16.o
                                      0x31572 (size before relaxing)
 .debug_str     0x00000000000352df     0x125b ./drivers/fsl_clock.o
                                      0x322d4 (size before relaxing)
 .debug_str     0x000000000003653a      0x119 ./drivers/fsl_gpio.o
                                      0x30b39 (size before relaxing)
 .debug_str     0x0000000000036653      0x958 ./drivers/fsl_lpsci.o
                                      0x318dc (size before relaxing)
 .debug_str     0x0000000000036fab       0x78 ./drivers/fsl_pit.o
                                      0x30c57 (size before relaxing)
 .debug_str     0x0000000000037023      0x3e8 ./drivers/fsl_tpm.o
                                      0x314be (size before relaxing)
 .debug_str     0x000000000003740b      0x832 ./drivers/fsl_uart.o
                                      0x318ff (size before relaxing)
 .debug_str     0x0000000000037c3d       0x4c ./board/board.o
                                      0x3174c (size before relaxing)
 .debug_str     0x0000000000037c89      0x300 ./board/clock_config.o
                                      0x31202 (size before relaxing)
 .debug_str     0x0000000000037f89       0x31 ./board/peripherals.o
                                       0x2dd7 (size before relaxing)
 .debug_str     0x0000000000037fba      0x37f ./board/pin_mux.o
                                      0x314ee (size before relaxing)
 .debug_str     0x0000000000038339       0x77 ./CMSIS/system_MKL25Z4.o
                                      0x2fc3e (size before relaxing)

.comment        0x0000000000000000       0x76
 .comment       0x0000000000000000       0x76 ./utilities/fsl_debug_console.o
                                         0x77 (size before relaxing)
 .comment       0x0000000000000076       0x77 ./startup/startup_mkl25z4.o
 .comment       0x0000000000000076       0x77 ./source/HDU/HDU.o
 .comment       0x0000000000000076       0x77 ./source/HDU/HDU_ADC0.o
 .comment       0x0000000000000076       0x77 ./source/HDU/HDU_BATSENSE.o
 .comment       0x0000000000000076       0x77 ./source/HDU/HDU_BLUETOOTH.o
 .comment       0x0000000000000076       0x77 ./source/HDU/HDU_HMI.o
 .comment       0x0000000000000076       0x77 ./source/HDU/HDU_LINESCAN.o
 .comment       0x0000000000000076       0x77 ./source/HDU/HDU_POWERTRAIN.o
 .comment       0x0000000000000076       0x77 ./source/HDU/HDU_SERVO.o
 .comment       0x0000000000000076       0x77 ./source/HighDriveUnit.o
 .comment       0x0000000000000076       0x77 ./source/mtb.o
 .comment       0x0000000000000076       0x77 ./source/semihost_hardfault.o
 .comment       0x0000000000000076       0x77 ./drivers/fsl_adc16.o
 .comment       0x0000000000000076       0x77 ./drivers/fsl_clock.o
 .comment       0x0000000000000076       0x77 ./drivers/fsl_gpio.o
 .comment       0x0000000000000076       0x77 ./drivers/fsl_lpsci.o
 .comment       0x0000000000000076       0x77 ./drivers/fsl_pit.o
 .comment       0x0000000000000076       0x77 ./drivers/fsl_tpm.o
 .comment       0x0000000000000076       0x77 ./drivers/fsl_uart.o
 .comment       0x0000000000000076       0x77 ./board/board.o
 .comment       0x0000000000000076       0x77 ./board/clock_config.o
 .comment       0x0000000000000076       0x77 ./board/peripherals.o
 .comment       0x0000000000000076       0x77 ./board/pin_mux.o
 .comment       0x0000000000000076       0x77 ./CMSIS/system_MKL25Z4.o
 .comment       0x0000000000000076       0x77 /usr/local/mcuxpressoide-11.1.1_3241/ide/plugins/com.nxp.mcuxpresso.tools.linux_11.1.0.202001081728/tools/bin/../lib/gcc/arm-none-eabi/8.3.1/../../../../arm-none-eabi/lib/thumb/v6-m/nofp/libcr_nohost_nf.a(_cr__main.o)
 .comment       0x0000000000000076       0x77 /usr/local/mcuxpressoide-11.1.1_3241/ide/plugins/com.nxp.mcuxpresso.tools.linux_11.1.0.202001081728/tools/bin/../lib/gcc/arm-none-eabi/8.3.1/../../../../arm-none-eabi/lib/thumb/v6-m/nofp/libcr_nohost_nf.a(_cr_assert.o)
 .comment       0x0000000000000076       0x77 /usr/local/mcuxpressoide-11.1.1_3241/ide/plugins/com.nxp.mcuxpresso.tools.linux_11.1.0.202001081728/tools/bin/../lib/gcc/arm-none-eabi/8.3.1/../../../../arm-none-eabi/lib/thumb/v6-m/nofp/libcr_nohost_nf.a(__ciob.o)
 .comment       0x0000000000000076       0x77 /usr/local/mcuxpressoide-11.1.1_3241/ide/plugins/com.nxp.mcuxpresso.tools.linux_11.1.0.202001081728/tools/bin/../lib/gcc/arm-none-eabi/8.3.1/../../../../arm-none-eabi/lib/thumb/v6-m/nofp/libcr_nohost_nf.a(__sys_appexit.o)
 .comment       0x0000000000000076       0x77 /usr/local/mcuxpressoide-11.1.1_3241/ide/plugins/com.nxp.mcuxpresso.tools.linux_11.1.0.202001081728/tools/bin/../lib/gcc/arm-none-eabi/8.3.1/../../../../arm-none-eabi/lib/thumb/v6-m/nofp/libcr_c.a(memcpy.o)
 .comment       0x0000000000000076       0x77 /usr/local/mcuxpressoide-11.1.1_3241/ide/plugins/com.nxp.mcuxpresso.tools.linux_11.1.0.202001081728/tools/bin/../lib/gcc/arm-none-eabi/8.3.1/../../../../arm-none-eabi/lib/thumb/v6-m/nofp/libcr_c.a(memset.o)
 .comment       0x0000000000000076       0x77 /usr/local/mcuxpressoide-11.1.1_3241/ide/plugins/com.nxp.mcuxpresso.tools.linux_11.1.0.202001081728/tools/bin/../lib/gcc/arm-none-eabi/8.3.1/../../../../arm-none-eabi/lib/thumb/v6-m/nofp/libcr_c.a(_deferredlazyseek.o)
 .comment       0x0000000000000076       0x77 /usr/local/mcuxpressoide-11.1.1_3241/ide/plugins/com.nxp.mcuxpresso.tools.linux_11.1.0.202001081728/tools/bin/../lib/gcc/arm-none-eabi/8.3.1/../../../../arm-none-eabi/lib/thumb/v6-m/nofp/libcr_c.a(_fflush.o)
 .comment       0x0000000000000076       0x77 /usr/local/mcuxpressoide-11.1.1_3241/ide/plugins/com.nxp.mcuxpresso.tools.linux_11.1.0.202001081728/tools/bin/../lib/gcc/arm-none-eabi/8.3.1/../../../../arm-none-eabi/lib/thumb/v6-m/nofp/libcr_c.a(_writebuf.o)
 .comment       0x0000000000000076       0x77 /usr/local/mcuxpressoide-11.1.1_3241/ide/plugins/com.nxp.mcuxpresso.tools.linux_11.1.0.202001081728/tools/bin/../lib/gcc/arm-none-eabi/8.3.1/../../../../arm-none-eabi/lib/thumb/v6-m/nofp/libcr_c.a(alloc.o)
 .comment       0x0000000000000076       0x77 /usr/local/mcuxpressoide-11.1.1_3241/ide/plugins/com.nxp.mcuxpresso.tools.linux_11.1.0.202001081728/tools/bin/../lib/gcc/arm-none-eabi/8.3.1/../../../../arm-none-eabi/lib/thumb/v6-m/nofp/libcr_c.a(fputs.o)
 .comment       0x0000000000000076       0x77 /usr/local/mcuxpressoide-11.1.1_3241/ide/plugins/com.nxp.mcuxpresso.tools.linux_11.1.0.202001081728/tools/bin/../lib/gcc/arm-none-eabi/8.3.1/../../../../arm-none-eabi/lib/thumb/v6-m/nofp/libcr_c.a(fseek.o)
 .comment       0x0000000000000076       0x77 /usr/local/mcuxpressoide-11.1.1_3241/ide/plugins/com.nxp.mcuxpresso.tools.linux_11.1.0.202001081728/tools/bin/../lib/gcc/arm-none-eabi/8.3.1/../../../../arm-none-eabi/lib/thumb/v6-m/nofp/libcr_c.a(ftell.o)
 .comment       0x0000000000000076       0x77 /usr/local/mcuxpressoide-11.1.1_3241/ide/plugins/com.nxp.mcuxpresso.tools.linux_11.1.0.202001081728/tools/bin/../lib/gcc/arm-none-eabi/8.3.1/../../../../arm-none-eabi/lib/thumb/v6-m/nofp/libcr_c.a(initio.o)
 .comment       0x0000000000000076       0x77 /usr/local/mcuxpressoide-11.1.1_3241/ide/plugins/com.nxp.mcuxpresso.tools.linux_11.1.0.202001081728/tools/bin/../lib/gcc/arm-none-eabi/8.3.1/../../../../arm-none-eabi/lib/thumb/v6-m/nofp/libcr_c.a(printf.o)
 .comment       0x0000000000000076       0x77 /usr/local/mcuxpressoide-11.1.1_3241/ide/plugins/com.nxp.mcuxpresso.tools.linux_11.1.0.202001081728/tools/bin/../lib/gcc/arm-none-eabi/8.3.1/../../../../arm-none-eabi/lib/thumb/v6-m/nofp/libcr_c.a(setvbuf.o)
 .comment       0x0000000000000076       0x77 /usr/local/mcuxpressoide-11.1.1_3241/ide/plugins/com.nxp.mcuxpresso.tools.linux_11.1.0.202001081728/tools/bin/../lib/gcc/arm-none-eabi/8.3.1/../../../../arm-none-eabi/lib/thumb/v6-m/nofp/libcr_c.a(strlen.o)
 .comment       0x0000000000000076       0x77 /usr/local/mcuxpressoide-11.1.1_3241/ide/plugins/com.nxp.mcuxpresso.tools.linux_11.1.0.202001081728/tools/bin/../lib/gcc/arm-none-eabi/8.3.1/../../../../arm-none-eabi/lib/thumb/v6-m/nofp/libcr_c.a(__init_alloc.o)
 .comment       0x0000000000000076       0x77 /usr/local/mcuxpressoide-11.1.1_3241/ide/plugins/com.nxp.mcuxpresso.tools.linux_11.1.0.202001081728/tools/bin/../lib/gcc/arm-none-eabi/8.3.1/../../../../arm-none-eabi/lib/thumb/v6-m/nofp/libcr_c.a(_cr_sbrk.o)
 .comment       0x0000000000000076       0x77 /usr/local/mcuxpressoide-11.1.1_3241/ide/plugins/com.nxp.mcuxpresso.tools.linux_11.1.0.202001081728/tools/bin/../lib/gcc/arm-none-eabi/8.3.1/../../../../arm-none-eabi/lib/thumb/v6-m/nofp/libcr_c.a(_fdopen.o)
 .comment       0x0000000000000076       0x77 /usr/local/mcuxpressoide-11.1.1_3241/ide/plugins/com.nxp.mcuxpresso.tools.linux_11.1.0.202001081728/tools/bin/../lib/gcc/arm-none-eabi/8.3.1/../../../../arm-none-eabi/lib/thumb/v6-m/nofp/libcr_c.a(errno.o)
 .comment       0x0000000000000076       0x77 /usr/local/mcuxpressoide-11.1.1_3241/ide/plugins/com.nxp.mcuxpresso.tools.linux_11.1.0.202001081728/tools/bin/../lib/gcc/arm-none-eabi/8.3.1/../../../../arm-none-eabi/lib/thumb/v6-m/nofp/libcr_c.a(fclose.o)
 .comment       0x0000000000000076       0x77 /usr/local/mcuxpressoide-11.1.1_3241/ide/plugins/com.nxp.mcuxpresso.tools.linux_11.1.0.202001081728/tools/bin/../lib/gcc/arm-none-eabi/8.3.1/../../../../arm-none-eabi/lib/thumb/v6-m/nofp/libcr_c.a(fflush.o)
 .comment       0x0000000000000076       0x77 /usr/local/mcuxpressoide-11.1.1_3241/ide/plugins/com.nxp.mcuxpresso.tools.linux_11.1.0.202001081728/tools/bin/../lib/gcc/arm-none-eabi/8.3.1/../../../../arm-none-eabi/lib/thumb/v6-m/nofp/libcr_c.a(remove.o)
 .comment       0x0000000000000076       0x77 /usr/local/mcuxpressoide-11.1.1_3241/ide/plugins/com.nxp.mcuxpresso.tools.linux_11.1.0.202001081728/tools/bin/../lib/gcc/arm-none-eabi/8.3.1/../../../../arm-none-eabi/lib/thumb/v6-m/nofp/libcr_c.a(_cr_check_heap.o)
 .comment       0x0000000000000076       0x77 /usr/local/mcuxpressoide-11.1.1_3241/ide/plugins/com.nxp.mcuxpresso.tools.linux_11.1.0.202001081728/tools/bin/../lib/gcc/arm-none-eabi/8.3.1/../../../../arm-none-eabi/lib/thumb/v6-m/nofp/libcr_c.a(_do_fflush.o)
 .comment       0x0000000000000076       0x77 /usr/local/mcuxpressoide-11.1.1_3241/ide/plugins/com.nxp.mcuxpresso.tools.linux_11.1.0.202001081728/tools/bin/../lib/gcc/arm-none-eabi/8.3.1/thumb/v6-m/nofp/libcr_eabihelpers.a(double.o)
 .comment       0x0000000000000076       0x77 /usr/local/mcuxpressoide-11.1.1_3241/ide/plugins/com.nxp.mcuxpresso.tools.linux_11.1.0.202001081728/tools/bin/../lib/gcc/arm-none-eabi/8.3.1/thumb/v6-m/nofp/libcr_eabihelpers.a(float.o)
 .comment       0x0000000000000076       0x77 /usr/local/mcuxpressoide-11.1.1_3241/ide/plugins/com.nxp.mcuxpresso.tools.linux_11.1.0.202001081728/tools/bin/../lib/gcc/arm-none-eabi/8.3.1/../../../../arm-none-eabi/lib/thumb/v6-m/nofp/libcr_nohost_nf.a(__sys_close.o)
 .comment       0x0000000000000076       0x77 /usr/local/mcuxpressoide-11.1.1_3241/ide/plugins/com.nxp.mcuxpresso.tools.linux_11.1.0.202001081728/tools/bin/../lib/gcc/arm-none-eabi/8.3.1/../../../../arm-none-eabi/lib/thumb/v6-m/nofp/libcr_nohost_nf.a(__sys_flen.o)
 .comment       0x0000000000000076       0x77 /usr/local/mcuxpressoide-11.1.1_3241/ide/plugins/com.nxp.mcuxpresso.tools.linux_11.1.0.202001081728/tools/bin/../lib/gcc/arm-none-eabi/8.3.1/../../../../arm-none-eabi/lib/thumb/v6-m/nofp/libcr_nohost_nf.a(__sys_istty.o)
 .comment       0x0000000000000076       0x77 /usr/local/mcuxpressoide-11.1.1_3241/ide/plugins/com.nxp.mcuxpresso.tools.linux_11.1.0.202001081728/tools/bin/../lib/gcc/arm-none-eabi/8.3.1/../../../../arm-none-eabi/lib/thumb/v6-m/nofp/libcr_nohost_nf.a(__sys_remove.o)
 .comment       0x0000000000000076       0x77 /usr/local/mcuxpressoide-11.1.1_3241/ide/plugins/com.nxp.mcuxpresso.tools.linux_11.1.0.202001081728/tools/bin/../lib/gcc/arm-none-eabi/8.3.1/../../../../arm-none-eabi/lib/thumb/v6-m/nofp/libcr_nohost_nf.a(__sys_seek.o)
 .comment       0x0000000000000076       0x77 /usr/local/mcuxpressoide-11.1.1_3241/ide/plugins/com.nxp.mcuxpresso.tools.linux_11.1.0.202001081728/tools/bin/../lib/gcc/arm-none-eabi/8.3.1/../../../../arm-none-eabi/lib/thumb/v6-m/nofp/libcr_nohost_nf.a(__sys_tmpnam.o)

.ARM.attributes
                0x0000000000000000       0x2a
 .ARM.attributes
                0x0000000000000000       0x2c ./utilities/fsl_debug_console.o
 .ARM.attributes
                0x000000000000002c       0x2c ./startup/startup_mkl25z4.o
 .ARM.attributes
                0x0000000000000058       0x2c ./source/HDU/HDU.o
 .ARM.attributes
                0x0000000000000084       0x2c ./source/HDU/HDU_ADC0.o
 .ARM.attributes
                0x00000000000000b0       0x2c ./source/HDU/HDU_BATSENSE.o
 .ARM.attributes
                0x00000000000000dc       0x2c ./source/HDU/HDU_BLUETOOTH.o
 .ARM.attributes
                0x0000000000000108       0x2c ./source/HDU/HDU_HMI.o
 .ARM.attributes
                0x0000000000000134       0x2c ./source/HDU/HDU_LINESCAN.o
 .ARM.attributes
                0x0000000000000160       0x2c ./source/HDU/HDU_POWERTRAIN.o
 .ARM.attributes
                0x000000000000018c       0x2c ./source/HDU/HDU_SERVO.o
 .ARM.attributes
                0x00000000000001b8       0x2c ./source/HighDriveUnit.o
 .ARM.attributes
                0x00000000000001e4       0x32 ./source/mtb.o
 .ARM.attributes
                0x0000000000000216       0x2c ./source/semihost_hardfault.o
 .ARM.attributes
                0x0000000000000242       0x2c ./drivers/fsl_adc16.o
 .ARM.attributes
                0x000000000000026e       0x2c ./drivers/fsl_clock.o
 .ARM.attributes
                0x000000000000029a       0x2c ./drivers/fsl_gpio.o
 .ARM.attributes
                0x00000000000002c6       0x2c ./drivers/fsl_lpsci.o
 .ARM.attributes
                0x00000000000002f2       0x2c ./drivers/fsl_pit.o
 .ARM.attributes
                0x000000000000031e       0x2c ./drivers/fsl_tpm.o
 .ARM.attributes
                0x000000000000034a       0x2c ./drivers/fsl_uart.o
 .ARM.attributes
                0x0000000000000376       0x2c ./board/board.o
 .ARM.attributes
                0x00000000000003a2       0x2c ./board/clock_config.o
 .ARM.attributes
                0x00000000000003ce       0x2c ./board/peripherals.o
 .ARM.attributes
                0x00000000000003fa       0x2c ./board/pin_mux.o
 .ARM.attributes
                0x0000000000000426       0x2c ./CMSIS/system_MKL25Z4.o
 .ARM.attributes
                0x0000000000000452       0x2c /usr/local/mcuxpressoide-11.1.1_3241/ide/plugins/com.nxp.mcuxpresso.tools.linux_11.1.0.202001081728/tools/bin/../lib/gcc/arm-none-eabi/8.3.1/../../../../arm-none-eabi/lib/thumb/v6-m/nofp/libcr_nohost_nf.a(_cr__main.o)
 .ARM.attributes
                0x000000000000047e       0x2c /usr/local/mcuxpressoide-11.1.1_3241/ide/plugins/com.nxp.mcuxpresso.tools.linux_11.1.0.202001081728/tools/bin/../lib/gcc/arm-none-eabi/8.3.1/../../../../arm-none-eabi/lib/thumb/v6-m/nofp/libcr_nohost_nf.a(_cr_assert.o)
 .ARM.attributes
                0x00000000000004aa       0x31 /usr/local/mcuxpressoide-11.1.1_3241/ide/plugins/com.nxp.mcuxpresso.tools.linux_11.1.0.202001081728/tools/bin/../lib/gcc/arm-none-eabi/8.3.1/../../../../arm-none-eabi/lib/thumb/v6-m/nofp/libcr_nohost_nf.a(__ciob.o)
 .ARM.attributes
                0x00000000000004db       0x2c /usr/local/mcuxpressoide-11.1.1_3241/ide/plugins/com.nxp.mcuxpresso.tools.linux_11.1.0.202001081728/tools/bin/../lib/gcc/arm-none-eabi/8.3.1/../../../../arm-none-eabi/lib/thumb/v6-m/nofp/libcr_nohost_nf.a(__sys_appexit.o)
 .ARM.attributes
                0x0000000000000507       0x2c /usr/local/mcuxpressoide-11.1.1_3241/ide/plugins/com.nxp.mcuxpresso.tools.linux_11.1.0.202001081728/tools/bin/../lib/gcc/arm-none-eabi/8.3.1/../../../../arm-none-eabi/lib/thumb/v6-m/nofp/libcr_c.a(memcpy.o)
 .ARM.attributes
                0x0000000000000533       0x2c /usr/local/mcuxpressoide-11.1.1_3241/ide/plugins/com.nxp.mcuxpresso.tools.linux_11.1.0.202001081728/tools/bin/../lib/gcc/arm-none-eabi/8.3.1/../../../../arm-none-eabi/lib/thumb/v6-m/nofp/libcr_c.a(memset.o)
 .ARM.attributes
                0x000000000000055f       0x2c /usr/local/mcuxpressoide-11.1.1_3241/ide/plugins/com.nxp.mcuxpresso.tools.linux_11.1.0.202001081728/tools/bin/../lib/gcc/arm-none-eabi/8.3.1/../../../../arm-none-eabi/lib/thumb/v6-m/nofp/libcr_c.a(_deferredlazyseek.o)
 .ARM.attributes
                0x000000000000058b       0x2c /usr/local/mcuxpressoide-11.1.1_3241/ide/plugins/com.nxp.mcuxpresso.tools.linux_11.1.0.202001081728/tools/bin/../lib/gcc/arm-none-eabi/8.3.1/../../../../arm-none-eabi/lib/thumb/v6-m/nofp/libcr_c.a(_fflush.o)
 .ARM.attributes
                0x00000000000005b7       0x2c /usr/local/mcuxpressoide-11.1.1_3241/ide/plugins/com.nxp.mcuxpresso.tools.linux_11.1.0.202001081728/tools/bin/../lib/gcc/arm-none-eabi/8.3.1/../../../../arm-none-eabi/lib/thumb/v6-m/nofp/libcr_c.a(_writebuf.o)
 .ARM.attributes
                0x00000000000005e3       0x2c /usr/local/mcuxpressoide-11.1.1_3241/ide/plugins/com.nxp.mcuxpresso.tools.linux_11.1.0.202001081728/tools/bin/../lib/gcc/arm-none-eabi/8.3.1/../../../../arm-none-eabi/lib/thumb/v6-m/nofp/libcr_c.a(alloc.o)
 .ARM.attributes
                0x000000000000060f       0x2c /usr/local/mcuxpressoide-11.1.1_3241/ide/plugins/com.nxp.mcuxpresso.tools.linux_11.1.0.202001081728/tools/bin/../lib/gcc/arm-none-eabi/8.3.1/../../../../arm-none-eabi/lib/thumb/v6-m/nofp/libcr_c.a(fputs.o)
 .ARM.attributes
                0x000000000000063b       0x2c /usr/local/mcuxpressoide-11.1.1_3241/ide/plugins/com.nxp.mcuxpresso.tools.linux_11.1.0.202001081728/tools/bin/../lib/gcc/arm-none-eabi/8.3.1/../../../../arm-none-eabi/lib/thumb/v6-m/nofp/libcr_c.a(fseek.o)
 .ARM.attributes
                0x0000000000000667       0x2c /usr/local/mcuxpressoide-11.1.1_3241/ide/plugins/com.nxp.mcuxpresso.tools.linux_11.1.0.202001081728/tools/bin/../lib/gcc/arm-none-eabi/8.3.1/../../../../arm-none-eabi/lib/thumb/v6-m/nofp/libcr_c.a(ftell.o)
 .ARM.attributes
                0x0000000000000693       0x2c /usr/local/mcuxpressoide-11.1.1_3241/ide/plugins/com.nxp.mcuxpresso.tools.linux_11.1.0.202001081728/tools/bin/../lib/gcc/arm-none-eabi/8.3.1/../../../../arm-none-eabi/lib/thumb/v6-m/nofp/libcr_c.a(initio.o)
 .ARM.attributes
                0x00000000000006bf       0x2c /usr/local/mcuxpressoide-11.1.1_3241/ide/plugins/com.nxp.mcuxpresso.tools.linux_11.1.0.202001081728/tools/bin/../lib/gcc/arm-none-eabi/8.3.1/../../../../arm-none-eabi/lib/thumb/v6-m/nofp/libcr_c.a(printf.o)
 .ARM.attributes
                0x00000000000006eb       0x2c /usr/local/mcuxpressoide-11.1.1_3241/ide/plugins/com.nxp.mcuxpresso.tools.linux_11.1.0.202001081728/tools/bin/../lib/gcc/arm-none-eabi/8.3.1/../../../../arm-none-eabi/lib/thumb/v6-m/nofp/libcr_c.a(setvbuf.o)
 .ARM.attributes
                0x0000000000000717       0x2c /usr/local/mcuxpressoide-11.1.1_3241/ide/plugins/com.nxp.mcuxpresso.tools.linux_11.1.0.202001081728/tools/bin/../lib/gcc/arm-none-eabi/8.3.1/../../../../arm-none-eabi/lib/thumb/v6-m/nofp/libcr_c.a(strlen.o)
 .ARM.attributes
                0x0000000000000743       0x2c /usr/local/mcuxpressoide-11.1.1_3241/ide/plugins/com.nxp.mcuxpresso.tools.linux_11.1.0.202001081728/tools/bin/../lib/gcc/arm-none-eabi/8.3.1/../../../../arm-none-eabi/lib/thumb/v6-m/nofp/libcr_c.a(__init_alloc.o)
 .ARM.attributes
                0x000000000000076f       0x2c /usr/local/mcuxpressoide-11.1.1_3241/ide/plugins/com.nxp.mcuxpresso.tools.linux_11.1.0.202001081728/tools/bin/../lib/gcc/arm-none-eabi/8.3.1/../../../../arm-none-eabi/lib/thumb/v6-m/nofp/libcr_c.a(_cr_sbrk.o)
 .ARM.attributes
                0x000000000000079b       0x2c /usr/local/mcuxpressoide-11.1.1_3241/ide/plugins/com.nxp.mcuxpresso.tools.linux_11.1.0.202001081728/tools/bin/../lib/gcc/arm-none-eabi/8.3.1/../../../../arm-none-eabi/lib/thumb/v6-m/nofp/libcr_c.a(_fdopen.o)
 .ARM.attributes
                0x00000000000007c7       0x31 /usr/local/mcuxpressoide-11.1.1_3241/ide/plugins/com.nxp.mcuxpresso.tools.linux_11.1.0.202001081728/tools/bin/../lib/gcc/arm-none-eabi/8.3.1/../../../../arm-none-eabi/lib/thumb/v6-m/nofp/libcr_c.a(errno.o)
 .ARM.attributes
                0x00000000000007f8       0x2c /usr/local/mcuxpressoide-11.1.1_3241/ide/plugins/com.nxp.mcuxpresso.tools.linux_11.1.0.202001081728/tools/bin/../lib/gcc/arm-none-eabi/8.3.1/../../../../arm-none-eabi/lib/thumb/v6-m/nofp/libcr_c.a(fclose.o)
 .ARM.attributes
                0x0000000000000824       0x2c /usr/local/mcuxpressoide-11.1.1_3241/ide/plugins/com.nxp.mcuxpresso.tools.linux_11.1.0.202001081728/tools/bin/../lib/gcc/arm-none-eabi/8.3.1/../../../../arm-none-eabi/lib/thumb/v6-m/nofp/libcr_c.a(fflush.o)
 .ARM.attributes
                0x0000000000000850       0x2c /usr/local/mcuxpressoide-11.1.1_3241/ide/plugins/com.nxp.mcuxpresso.tools.linux_11.1.0.202001081728/tools/bin/../lib/gcc/arm-none-eabi/8.3.1/../../../../arm-none-eabi/lib/thumb/v6-m/nofp/libcr_c.a(remove.o)
 .ARM.attributes
                0x000000000000087c       0x2c /usr/local/mcuxpressoide-11.1.1_3241/ide/plugins/com.nxp.mcuxpresso.tools.linux_11.1.0.202001081728/tools/bin/../lib/gcc/arm-none-eabi/8.3.1/../../../../arm-none-eabi/lib/thumb/v6-m/nofp/libcr_c.a(_cr_check_heap.o)
 .ARM.attributes
                0x00000000000008a8       0x2c /usr/local/mcuxpressoide-11.1.1_3241/ide/plugins/com.nxp.mcuxpresso.tools.linux_11.1.0.202001081728/tools/bin/../lib/gcc/arm-none-eabi/8.3.1/../../../../arm-none-eabi/lib/thumb/v6-m/nofp/libcr_c.a(_do_fflush.o)
 .ARM.attributes
                0x00000000000008d4       0x1c /usr/local/mcuxpressoide-11.1.1_3241/ide/plugins/com.nxp.mcuxpresso.tools.linux_11.1.0.202001081728/tools/bin/../lib/gcc/arm-none-eabi/8.3.1/thumb/v6-m/nofp/libcr_eabihelpers.a(division_32.o)
 .ARM.attributes
                0x00000000000008f0       0x1c /usr/local/mcuxpressoide-11.1.1_3241/ide/plugins/com.nxp.mcuxpresso.tools.linux_11.1.0.202001081728/tools/bin/../lib/gcc/arm-none-eabi/8.3.1/thumb/v6-m/nofp/libcr_eabihelpers.a(division_64.o)
 .ARM.attributes
                0x000000000000090c       0x1c /usr/local/mcuxpressoide-11.1.1_3241/ide/plugins/com.nxp.mcuxpresso.tools.linux_11.1.0.202001081728/tools/bin/../lib/gcc/arm-none-eabi/8.3.1/thumb/v6-m/nofp/libcr_eabihelpers.a(division_idiv0.o)
 .ARM.attributes
                0x0000000000000928       0x2c /usr/local/mcuxpressoide-11.1.1_3241/ide/plugins/com.nxp.mcuxpresso.tools.linux_11.1.0.202001081728/tools/bin/../lib/gcc/arm-none-eabi/8.3.1/thumb/v6-m/nofp/libcr_eabihelpers.a(double.o)
 .ARM.attributes
                0x0000000000000954       0x2c /usr/local/mcuxpressoide-11.1.1_3241/ide/plugins/com.nxp.mcuxpresso.tools.linux_11.1.0.202001081728/tools/bin/../lib/gcc/arm-none-eabi/8.3.1/thumb/v6-m/nofp/libcr_eabihelpers.a(float.o)
 .ARM.attributes
                0x0000000000000980       0x1c /usr/local/mcuxpressoide-11.1.1_3241/ide/plugins/com.nxp.mcuxpresso.tools.linux_11.1.0.202001081728/tools/bin/../lib/gcc/arm-none-eabi/8.3.1/thumb/v6-m/nofp/libcr_eabihelpers.a(llong.o)
 .ARM.attributes
                0x000000000000099c       0x1c /usr/local/mcuxpressoide-11.1.1_3241/ide/plugins/com.nxp.mcuxpresso.tools.linux_11.1.0.202001081728/tools/bin/../lib/gcc/arm-none-eabi/8.3.1/thumb/v6-m/nofp/libcr_eabihelpers.a(memcpy.o)
 .ARM.attributes
                0x00000000000009b8       0x2c /usr/local/mcuxpressoide-11.1.1_3241/ide/plugins/com.nxp.mcuxpresso.tools.linux_11.1.0.202001081728/tools/bin/../lib/gcc/arm-none-eabi/8.3.1/../../../../arm-none-eabi/lib/thumb/v6-m/nofp/libcr_nohost_nf.a(__sys_close.o)
 .ARM.attributes
                0x00000000000009e4       0x2c /usr/local/mcuxpressoide-11.1.1_3241/ide/plugins/com.nxp.mcuxpresso.tools.linux_11.1.0.202001081728/tools/bin/../lib/gcc/arm-none-eabi/8.3.1/../../../../arm-none-eabi/lib/thumb/v6-m/nofp/libcr_nohost_nf.a(__sys_flen.o)
 .ARM.attributes
                0x0000000000000a10       0x2c /usr/local/mcuxpressoide-11.1.1_3241/ide/plugins/com.nxp.mcuxpresso.tools.linux_11.1.0.202001081728/tools/bin/../lib/gcc/arm-none-eabi/8.3.1/../../../../arm-none-eabi/lib/thumb/v6-m/nofp/libcr_nohost_nf.a(__sys_istty.o)
 .ARM.attributes
                0x0000000000000a3c       0x2c /usr/local/mcuxpressoide-11.1.1_3241/ide/plugins/com.nxp.mcuxpresso.tools.linux_11.1.0.202001081728/tools/bin/../lib/gcc/arm-none-eabi/8.3.1/../../../../arm-none-eabi/lib/thumb/v6-m/nofp/libcr_nohost_nf.a(__sys_remove.o)
 .ARM.attributes
                0x0000000000000a68       0x2c /usr/local/mcuxpressoide-11.1.1_3241/ide/plugins/com.nxp.mcuxpresso.tools.linux_11.1.0.202001081728/tools/bin/../lib/gcc/arm-none-eabi/8.3.1/../../../../arm-none-eabi/lib/thumb/v6-m/nofp/libcr_nohost_nf.a(__sys_seek.o)
 .ARM.attributes
                0x0000000000000a94       0x2c /usr/local/mcuxpressoide-11.1.1_3241/ide/plugins/com.nxp.mcuxpresso.tools.linux_11.1.0.202001081728/tools/bin/../lib/gcc/arm-none-eabi/8.3.1/../../../../arm-none-eabi/lib/thumb/v6-m/nofp/libcr_nohost_nf.a(__sys_tmpnam.o)

.debug_frame    0x0000000000000000     0x23d8
 .debug_frame   0x0000000000000000      0x10c ./utilities/fsl_debug_console.o
 .debug_frame   0x000000000000010c      0x3b0 ./startup/startup_mkl25z4.o
 .debug_frame   0x00000000000004bc       0x4c ./source/HDU/HDU.o
 .debug_frame   0x0000000000000508       0x8c ./source/HDU/HDU_ADC0.o
 .debug_frame   0x0000000000000594       0x4c ./source/HDU/HDU_BATSENSE.o
 .debug_frame   0x00000000000005e0       0x94 ./source/HDU/HDU_BLUETOOTH.o
 .debug_frame   0x0000000000000674      0x138 ./source/HDU/HDU_HMI.o
 .debug_frame   0x00000000000007ac      0x200 ./source/HDU/HDU_LINESCAN.o
 .debug_frame   0x00000000000009ac      0x198 ./source/HDU/HDU_POWERTRAIN.o
 .debug_frame   0x0000000000000b44       0xf0 ./source/HDU/HDU_SERVO.o
 .debug_frame   0x0000000000000c34       0x70 ./source/HighDriveUnit.o
 .debug_frame   0x0000000000000ca4       0x20 ./source/semihost_hardfault.o
 .debug_frame   0x0000000000000cc4      0x1d0 ./drivers/fsl_adc16.o
 .debug_frame   0x0000000000000e94      0x6e0 ./drivers/fsl_clock.o
 .debug_frame   0x0000000000001574       0xb0 ./drivers/fsl_gpio.o
 .debug_frame   0x0000000000001624      0x418 ./drivers/fsl_lpsci.o
 .debug_frame   0x0000000000001a3c       0xd4 ./drivers/fsl_pit.o
 .debug_frame   0x0000000000001b10      0x1d0 ./drivers/fsl_tpm.o
 .debug_frame   0x0000000000001ce0      0x468 ./drivers/fsl_uart.o
 .debug_frame   0x0000000000002148       0x50 ./board/board.o
 .debug_frame   0x0000000000002198      0x100 ./board/clock_config.o
 .debug_frame   0x0000000000002298       0x2c ./board/peripherals.o
 .debug_frame   0x00000000000022c4       0xc8 ./board/pin_mux.o
 .debug_frame   0x000000000000238c       0x4c ./CMSIS/system_MKL25Z4.o

Cross Reference Table

Symbol                                            File
ADC0_DriverIRQHandler                             ./startup/startup_mkl25z4.o
ADC0_IRQHandler                                   ./startup/startup_mkl25z4.o
ADC16_ClearStatusFlags                            ./drivers/fsl_adc16.o
ADC16_Deinit                                      ./drivers/fsl_adc16.o
ADC16_DoAutoCalibration                           ./drivers/fsl_adc16.o
                                                  ./source/HDU/HDU_ADC0.o
ADC16_GetChannelStatusFlags                       ./drivers/fsl_adc16.o
                                                  ./source/HDU/HDU_ADC0.o
ADC16_GetDefaultConfig                            ./drivers/fsl_adc16.o
                                                  ./source/HDU/HDU_ADC0.o
ADC16_GetStatusFlags                              ./drivers/fsl_adc16.o
ADC16_Init                                        ./drivers/fsl_adc16.o
                                                  ./source/HDU/HDU_ADC0.o
ADC16_SetChannelConfig                            ./drivers/fsl_adc16.o
                                                  ./source/HDU/HDU_ADC0.o
ADC16_SetChannelMuxMode                           ./drivers/fsl_adc16.o
                                                  ./source/HDU/HDU_ADC0.o
ADC16_SetHardwareAverage                          ./drivers/fsl_adc16.o
ADC16_SetHardwareCompareConfig                    ./drivers/fsl_adc16.o
BOARD_BootClockRUN                                ./board/clock_config.o
                                                  ./source/HDU/HDU_BLUETOOTH.o
BOARD_BootClockVLPR                               ./board/clock_config.o
BOARD_InitBootClocks                              ./board/clock_config.o
                                                  ./source/HDU/HDU.o
BOARD_InitBootPeripherals                         ./board/peripherals.o
                                                  ./source/HDU/HDU.o
BOARD_InitBootPins                                ./board/pin_mux.o
                                                  ./source/HDU/HDU.o
BOARD_InitDebugConsole                            ./board/board.o
                                                  ./source/HDU/HDU.o
BOARD_InitPins                                    ./board/pin_mux.o
CLOCK_BootToBlpeMode                              ./drivers/fsl_clock.o
CLOCK_BootToBlpiMode                              ./drivers/fsl_clock.o
                                                  ./board/clock_config.o
CLOCK_BootToFeeMode                               ./drivers/fsl_clock.o
CLOCK_BootToFeiMode                               ./drivers/fsl_clock.o
CLOCK_BootToPeeMode                               ./drivers/fsl_clock.o
                                                  ./board/clock_config.o
CLOCK_CalcPllDiv                                  ./drivers/fsl_clock.o
CLOCK_ClearStatusFlags                            ./drivers/fsl_clock.o
CLOCK_DeinitOsc0                                  ./drivers/fsl_clock.o
CLOCK_EnablePll0                                  ./drivers/fsl_clock.o
CLOCK_EnableUsbfs0Clock                           ./drivers/fsl_clock.o
CLOCK_ExternalModeToFbeModeQuick                  ./drivers/fsl_clock.o
CLOCK_FllStableDelay                              ./drivers/fsl_clock.o
CLOCK_GetBusClkFreq                               ./drivers/fsl_clock.o
CLOCK_GetCoreSysClkFreq                           ./drivers/fsl_clock.o
CLOCK_GetEr32kClkFreq                             ./drivers/fsl_clock.o
CLOCK_GetFixedFreqClkFreq                         ./drivers/fsl_clock.o
CLOCK_GetFlashClkFreq                             ./drivers/fsl_clock.o
CLOCK_GetFllFreq                                  ./drivers/fsl_clock.o
CLOCK_GetFreq                                     ./drivers/fsl_clock.o
                                                  ./source/HDU/HDU_SERVO.o
                                                  ./source/HDU/HDU_POWERTRAIN.o
                                                  ./source/HDU/HDU_LINESCAN.o
                                                  ./source/HDU/HDU_BLUETOOTH.o
CLOCK_GetInternalRefClkFreq                       ./drivers/fsl_clock.o
CLOCK_GetMode                                     ./drivers/fsl_clock.o
CLOCK_GetOsc0ErClkFreq                            ./drivers/fsl_clock.o
CLOCK_GetOutClkFreq                               ./drivers/fsl_clock.o
CLOCK_GetPlatClkFreq                              ./drivers/fsl_clock.o
CLOCK_GetPll0Freq                                 ./drivers/fsl_clock.o
CLOCK_GetPllFllSelClkFreq                         ./drivers/fsl_clock.o
                                                  ./board/board.o
CLOCK_GetStatusFlags                              ./drivers/fsl_clock.o
CLOCK_InitOsc0                                    ./drivers/fsl_clock.o
                                                  ./board/clock_config.o
CLOCK_InternalModeToFbiModeQuick                  ./drivers/fsl_clock.o
CLOCK_SetBlpeMode                                 ./drivers/fsl_clock.o
CLOCK_SetBlpiMode                                 ./drivers/fsl_clock.o
CLOCK_SetExternalRefClkConfig                     ./drivers/fsl_clock.o
CLOCK_SetFbeMode                                  ./drivers/fsl_clock.o
CLOCK_SetFbiMode                                  ./drivers/fsl_clock.o
CLOCK_SetFeeMode                                  ./drivers/fsl_clock.o
CLOCK_SetFeiMode                                  ./drivers/fsl_clock.o
CLOCK_SetInternalRefClkConfig                     ./drivers/fsl_clock.o
                                                  ./board/clock_config.o
CLOCK_SetMcgConfig                                ./drivers/fsl_clock.o
CLOCK_SetOsc0MonitorMode                          ./drivers/fsl_clock.o
CLOCK_SetPbeMode                                  ./drivers/fsl_clock.o
CLOCK_SetPeeMode                                  ./drivers/fsl_clock.o
CLOCK_SetPll0MonitorMode                          ./drivers/fsl_clock.o
CLOCK_SetSimConfig                                ./drivers/fsl_clock.o
                                                  ./board/clock_config.o
CLOCK_TrimInternalRefClk                          ./drivers/fsl_clock.o
CMP0_DriverIRQHandler                             ./startup/startup_mkl25z4.o
CMP0_IRQHandler                                   ./startup/startup_mkl25z4.o
DAC0_DriverIRQHandler                             ./startup/startup_mkl25z4.o
DAC0_IRQHandler                                   ./startup/startup_mkl25z4.o
DMA0_DriverIRQHandler                             ./startup/startup_mkl25z4.o
DMA0_IRQHandler                                   ./startup/startup_mkl25z4.o
DMA1_DriverIRQHandler                             ./startup/startup_mkl25z4.o
DMA1_IRQHandler                                   ./startup/startup_mkl25z4.o
DMA2_DriverIRQHandler                             ./startup/startup_mkl25z4.o
DMA2_IRQHandler                                   ./startup/startup_mkl25z4.o
DMA3_DriverIRQHandler                             ./startup/startup_mkl25z4.o
DMA3_IRQHandler                                   ./startup/startup_mkl25z4.o
DbgConsole_Deinit                                 ./utilities/fsl_debug_console.o
DbgConsole_Init                                   ./utilities/fsl_debug_console.o
                                                  ./board/board.o
FLASH_Erase                                       ./drivers/fsl_flash.o
FLASH_EraseAll                                    ./drivers/fsl_flash.o
FLASH_EraseAllExecuteOnlySegments                 ./drivers/fsl_flash.o
FLASH_GetProperty                                 ./drivers/fsl_flash.o
FLASH_GetSecurityState                            ./drivers/fsl_flash.o
FLASH_Init                                        ./drivers/fsl_flash.o
FLASH_IsExecuteOnly                               ./drivers/fsl_flash.o
FLASH_IsProtected                                 ./drivers/fsl_flash.o
FLASH_PflashGetPrefetchSpeculation                ./drivers/fsl_flash.o
FLASH_PflashGetProtection                         ./drivers/fsl_flash.o
FLASH_PflashSetPrefetchSpeculation                ./drivers/fsl_flash.o
                                                  ./drivers/fsl_smc.o
FLASH_PflashSetProtection                         ./drivers/fsl_flash.o
FLASH_PrepareExecuteInRamFunctions                ./drivers/fsl_flash.o
FLASH_Program                                     ./drivers/fsl_flash.o
FLASH_ProgramOnce                                 ./drivers/fsl_flash.o
FLASH_ReadOnce                                    ./drivers/fsl_flash.o
FLASH_ReadResource                                ./drivers/fsl_flash.o
FLASH_SecurityBypass                              ./drivers/fsl_flash.o
FLASH_SetCallback                                 ./drivers/fsl_flash.o
FLASH_SetProperty                                 ./drivers/fsl_flash.o
FLASH_VerifyErase                                 ./drivers/fsl_flash.o
FLASH_VerifyEraseAll                              ./drivers/fsl_flash.o
FLASH_VerifyEraseAllExecuteOnlySegments           ./drivers/fsl_flash.o
FLASH_VerifyProgram                               ./drivers/fsl_flash.o
FTFA_DriverIRQHandler                             ./startup/startup_mkl25z4.o
FTFA_IRQHandler                                   ./startup/startup_mkl25z4.o
Flash_Config                                      ./startup/startup_mkl25z4.o
GPIO_ClearPinsInterruptFlags                      ./drivers/fsl_gpio.o
GPIO_GetPinsInterruptFlags                        ./drivers/fsl_gpio.o
GPIO_PinInit                                      ./drivers/fsl_gpio.o
                                                  ./board/pin_mux.o
HDU                                               ./board/pin_mux.o
HDU_ADC0_init                                     ./source/HDU/HDU_ADC0.o
                                                  ./source/HDU/HDU_BATSENSE.o
                                                  ./source/HDU/HDU.o
HDU_ADC0_read                                     ./source/HDU/HDU_ADC0.o
                                                  ./source/HDU/HDU_POWERTRAIN.o
                                                  ./source/HDU/HDU_LINESCAN.o
                                                  ./source/HDU/HDU_HMI.o
                                                  ./source/HDU/HDU_BATSENSE.o
HDU_BATSENSE_init                                 ./source/HDU/HDU_BATSENSE.o
                                                  ./source/HDU/HDU.o
HDU_BATSENSE_read                                 ./source/HDU/HDU_BATSENSE.o
                                                  ./source/HDU/HDU.o
HDU_BLUETOOTH_init                                ./source/HDU/HDU_BLUETOOTH.o
                                                  ./source/HDU/HDU.o
HDU_BLUETOOTH_sendDebugMesssage                   ./source/HDU/HDU_BLUETOOTH.o
                                                  ./source/HDU/HDU.o
HDU_BLUETOOTH_sendMessage                         ./source/HDU/HDU_BLUETOOTH.o
                                                  ./source/HDU/HDU.o
HDU_HMI_init                                      ./source/HDU/HDU_HMI.o
                                                  ./source/HDU/HDU.o
HDU_HMI_readBtnA                                  ./source/HDU/HDU_HMI.o
HDU_HMI_readBtnB                                  ./source/HDU/HDU_HMI.o
HDU_HMI_readDipswitches                           ./source/HDU/HDU_HMI.o
HDU_HMI_readPotA                                  ./source/HDU/HDU_HMI.o
HDU_HMI_readPotB                                  ./source/HDU/HDU_HMI.o
HDU_HMI_readUserInput                             ./source/HDU/HDU_HMI.o
                                                  ./source/HighDriveUnit.o
HDU_HMI_setLEDs                                   ./source/HDU/HDU_HMI.o
                                                  ./source/HighDriveUnit.o
HDU_HMI_userInput                                 ./source/HDU/HDU_HMI.o
                                                  ./source/HighDriveUnit.o
HDU_LINESCAN_capture                              ./source/HDU/HDU_LINESCAN.o
HDU_LINESCAN_data                                 ./source/HDU/HDU_LINESCAN.o
HDU_LINESCAN_disable0                             ./source/HDU/HDU_LINESCAN.o
HDU_LINESCAN_disable1                             ./source/HDU/HDU_LINESCAN.o
HDU_LINESCAN_enable0                              ./source/HDU/HDU_LINESCAN.o
HDU_LINESCAN_enable1                              ./source/HDU/HDU_LINESCAN.o
HDU_LINESCAN_init                                 ./source/HDU/HDU_LINESCAN.o
                                                  ./source/HDU/HDU.o
HDU_LINESCAN_read                                 ./source/HDU/HDU_LINESCAN.o
HDU_POWERTRAIN_MotA                               ./source/HDU/HDU_POWERTRAIN.o
HDU_POWERTRAIN_MotB                               ./source/HDU/HDU_POWERTRAIN.o
HDU_POWERTRAIN_disable                            ./source/HDU/HDU_POWERTRAIN.o
HDU_POWERTRAIN_enable                             ./source/HDU/HDU_POWERTRAIN.o
HDU_POWERTRAIN_init                               ./source/HDU/HDU_POWERTRAIN.o
                                                  ./source/HDU/HDU.o
HDU_POWERTRAIN_readBemfA                          ./source/HDU/HDU_POWERTRAIN.o
HDU_POWERTRAIN_readBemfB                          ./source/HDU/HDU_POWERTRAIN.o
HDU_POWERTRAIN_readCsA                            ./source/HDU/HDU_POWERTRAIN.o
HDU_POWERTRAIN_readCsB                            ./source/HDU/HDU_POWERTRAIN.o
HDU_POWERTRAIN_setDutycycleMotA                   ./source/HDU/HDU_POWERTRAIN.o
HDU_POWERTRAIN_setDutycycleMotB                   ./source/HDU/HDU_POWERTRAIN.o
HDU_POWERTRAIN_setDutycycles                      ./source/HDU/HDU_POWERTRAIN.o
                                                  ./source/HighDriveUnit.o
HDU_SERVO_0_setDutycycle                          ./source/HDU/HDU_SERVO.o
                                                  ./source/HighDriveUnit.o
HDU_SERVO_0_setSteeringAngle                      ./source/HDU/HDU_SERVO.o
HDU_SERVO_1_setDutycycle                          ./source/HDU/HDU_SERVO.o
                                                  ./source/HighDriveUnit.o
HDU_SERVO_1_setSteeringAngle                      ./source/HDU/HDU_SERVO.o
HDU_SERVO_init                                    ./source/HDU/HDU_SERVO.o
                                                  ./source/HDU/HDU.o
HDU_init                                          ./source/HDU/HDU.o
                                                  ./source/HighDriveUnit.o
HDU_startup                                       ./source/HDU/HDU.o
HardFault_Handler                                 ./source/semihost_hardfault.o
                                                  ./startup/startup_mkl25z4.o
I2C0_DriverIRQHandler                             ./startup/startup_mkl25z4.o
I2C0_IRQHandler                                   ./startup/startup_mkl25z4.o
I2C1_DriverIRQHandler                             ./startup/startup_mkl25z4.o
I2C1_IRQHandler                                   ./startup/startup_mkl25z4.o
InstallIRQHandler                                 ./drivers/fsl_common.o
IntDefaultHandler                                 ./startup/startup_mkl25z4.o
LLWU_DriverIRQHandler                             ./startup/startup_mkl25z4.o
LLWU_IRQHandler                                   ./startup/startup_mkl25z4.o
LPSCI_ClearStatusFlags                            ./drivers/fsl_lpsci.o
LPSCI_Deinit                                      ./drivers/fsl_lpsci.o
                                                  ./utilities/fsl_debug_console.o
LPSCI_DisableInterrupts                           ./drivers/fsl_lpsci.o
LPSCI_EnableInterrupts                            ./drivers/fsl_lpsci.o
LPSCI_GetDefaultConfig                            ./drivers/fsl_lpsci.o
                                                  ./utilities/fsl_debug_console.o
LPSCI_GetEnabledInterrupts                        ./drivers/fsl_lpsci.o
LPSCI_GetInstance                                 ./drivers/fsl_lpsci.o
LPSCI_GetStatusFlags                              ./drivers/fsl_lpsci.o
LPSCI_Init                                        ./drivers/fsl_lpsci.o
                                                  ./utilities/fsl_debug_console.o
LPSCI_ReadBlocking                                ./drivers/fsl_lpsci.o
                                                  ./utilities/fsl_debug_console.o
LPSCI_SetBaudRate                                 ./drivers/fsl_lpsci.o
LPSCI_TransferAbortReceive                        ./drivers/fsl_lpsci.o
LPSCI_TransferAbortSend                           ./drivers/fsl_lpsci.o
LPSCI_TransferCreateHandle                        ./drivers/fsl_lpsci.o
LPSCI_TransferGetReceiveCount                     ./drivers/fsl_lpsci.o
LPSCI_TransferGetSendCount                        ./drivers/fsl_lpsci.o
LPSCI_TransferHandleErrorIRQ                      ./drivers/fsl_lpsci.o
LPSCI_TransferHandleIRQ                           ./drivers/fsl_lpsci.o
LPSCI_TransferReceiveNonBlocking                  ./drivers/fsl_lpsci.o
LPSCI_TransferSendNonBlocking                     ./drivers/fsl_lpsci.o
LPSCI_TransferStartRingBuffer                     ./drivers/fsl_lpsci.o
LPSCI_TransferStopRingBuffer                      ./drivers/fsl_lpsci.o
LPSCI_WriteBlocking                               ./drivers/fsl_lpsci.o
                                                  ./utilities/fsl_debug_console.o
LPTMR0_DriverIRQHandler                           ./startup/startup_mkl25z4.o
LPTMR0_IRQHandler                                 ./startup/startup_mkl25z4.o
LVD_LVW_DriverIRQHandler                          ./startup/startup_mkl25z4.o
LVD_LVW_IRQHandler                                ./startup/startup_mkl25z4.o
MCG_DriverIRQHandler                              ./startup/startup_mkl25z4.o
MCG_IRQHandler                                    ./startup/startup_mkl25z4.o
NMI_Handler                                       ./startup/startup_mkl25z4.o
PIT_Deinit                                        ./drivers/fsl_pit.o
PIT_DriverIRQHandler                              ./startup/startup_mkl25z4.o
PIT_GetLifetimeTimerCount                         ./drivers/fsl_pit.o
PIT_IRQHandler                                    ./source/HDU/HDU_LINESCAN.o
                                                  ./startup/startup_mkl25z4.o
PIT_Init                                          ./drivers/fsl_pit.o
                                                  ./source/HDU/HDU_LINESCAN.o
PORTA_DriverIRQHandler                            ./startup/startup_mkl25z4.o
PORTA_IRQHandler                                  ./startup/startup_mkl25z4.o
PORTD_DriverIRQHandler                            ./startup/startup_mkl25z4.o
PORTD_IRQHandler                                  ./startup/startup_mkl25z4.o
PendSV_Handler                                    ./startup/startup_mkl25z4.o
RTC_DriverIRQHandler                              ./startup/startup_mkl25z4.o
RTC_IRQHandler                                    ./startup/startup_mkl25z4.o
RTC_Seconds_DriverIRQHandler                      ./startup/startup_mkl25z4.o
RTC_Seconds_IRQHandler                            ./startup/startup_mkl25z4.o
Reserved20_DriverIRQHandler                       ./startup/startup_mkl25z4.o
Reserved20_IRQHandler                             ./startup/startup_mkl25z4.o
Reserved39_DriverIRQHandler                       ./startup/startup_mkl25z4.o
Reserved39_IRQHandler                             ./startup/startup_mkl25z4.o
Reserved45_DriverIRQHandler                       ./startup/startup_mkl25z4.o
Reserved45_IRQHandler                             ./startup/startup_mkl25z4.o
ResetISR                                          ./startup/startup_mkl25z4.o
SMC_PostExitStopModes                             ./drivers/fsl_smc.o
SMC_PreEnterStopModes                             ./drivers/fsl_smc.o
SMC_SetPowerModeLls                               ./drivers/fsl_smc.o
SMC_SetPowerModeRun                               ./drivers/fsl_smc.o
SMC_SetPowerModeStop                              ./drivers/fsl_smc.o
SMC_SetPowerModeVlls                              ./drivers/fsl_smc.o
SMC_SetPowerModeVlpr                              ./drivers/fsl_smc.o
                                                  ./board/clock_config.o
SMC_SetPowerModeVlps                              ./drivers/fsl_smc.o
SMC_SetPowerModeVlpw                              ./drivers/fsl_smc.o
SMC_SetPowerModeWait                              ./drivers/fsl_smc.o
SPI0_DriverIRQHandler                             ./startup/startup_mkl25z4.o
SPI0_IRQHandler                                   ./startup/startup_mkl25z4.o
SPI1_DriverIRQHandler                             ./startup/startup_mkl25z4.o
SPI1_IRQHandler                                   ./startup/startup_mkl25z4.o
SVC_Handler                                       ./startup/startup_mkl25z4.o
SysTick_Handler                                   ./startup/startup_mkl25z4.o
SystemCoreClock                                   ./CMSIS/system_MKL25Z4.o
                                                  ./board/clock_config.o
SystemCoreClockUpdate                             ./CMSIS/system_MKL25Z4.o
SystemInit                                        ./CMSIS/system_MKL25Z4.o
                                                  ./startup/startup_mkl25z4.o
TPM0_DriverIRQHandler                             ./startup/startup_mkl25z4.o
TPM0_IRQHandler                                   ./startup/startup_mkl25z4.o
TPM1_DriverIRQHandler                             ./startup/startup_mkl25z4.o
TPM1_IRQHandler                                   ./startup/startup_mkl25z4.o
TPM2_DriverIRQHandler                             ./startup/startup_mkl25z4.o
TPM2_IRQHandler                                   ./startup/startup_mkl25z4.o
TPM_Deinit                                        ./drivers/fsl_tpm.o
TPM_DisableInterrupts                             ./drivers/fsl_tpm.o
TPM_EnableInterrupts                              ./drivers/fsl_tpm.o
TPM_GetDefaultConfig                              ./drivers/fsl_tpm.o
                                                  ./source/HDU/HDU_SERVO.o
                                                  ./source/HDU/HDU_POWERTRAIN.o
TPM_GetEnabledInterrupts                          ./drivers/fsl_tpm.o
TPM_Init                                          ./drivers/fsl_tpm.o
                                                  ./source/HDU/HDU_SERVO.o
                                                  ./source/HDU/HDU_POWERTRAIN.o
TPM_SetupInputCapture                             ./drivers/fsl_tpm.o
TPM_SetupOutputCompare                            ./drivers/fsl_tpm.o
TPM_SetupPwm                                      ./drivers/fsl_tpm.o
                                                  ./source/HDU/HDU_SERVO.o
                                                  ./source/HDU/HDU_POWERTRAIN.o
TPM_UpdateChnlEdgeLevelSelect                     ./drivers/fsl_tpm.o
TPM_UpdatePwmDutycycle                            ./drivers/fsl_tpm.o
                                                  ./source/HDU/HDU_POWERTRAIN.o
TSI0_DriverIRQHandler                             ./startup/startup_mkl25z4.o
TSI0_IRQHandler                                   ./startup/startup_mkl25z4.o
UART0_DriverIRQHandler                            ./drivers/fsl_lpsci.o
                                                  ./startup/startup_mkl25z4.o
UART0_IRQHandler                                  ./startup/startup_mkl25z4.o
UART1_DriverIRQHandler                            ./drivers/fsl_uart.o
                                                  ./startup/startup_mkl25z4.o
UART1_IRQHandler                                  ./startup/startup_mkl25z4.o
UART1_RX_TX_DriverIRQHandler                      ./drivers/fsl_uart.o
UART2_DriverIRQHandler                            ./drivers/fsl_uart.o
                                                  ./startup/startup_mkl25z4.o
UART2_IRQHandler                                  ./startup/startup_mkl25z4.o
UART2_RX_TX_DriverIRQHandler                      ./drivers/fsl_uart.o
UART_ClearStatusFlags                             ./drivers/fsl_uart.o
UART_Deinit                                       ./drivers/fsl_uart.o
                                                  ./utilities/fsl_debug_console.o
UART_DisableInterrupts                            ./drivers/fsl_uart.o
UART_EnableInterrupts                             ./drivers/fsl_uart.o
UART_GetDefaultConfig                             ./drivers/fsl_uart.o
                                                  ./source/HDU/HDU_BLUETOOTH.o
                                                  ./utilities/fsl_debug_console.o
UART_GetEnabledInterrupts                         ./drivers/fsl_uart.o
UART_GetInstance                                  ./drivers/fsl_uart.o
UART_GetStatusFlags                               ./drivers/fsl_uart.o
UART_Init                                         ./drivers/fsl_uart.o
                                                  ./source/HDU/HDU_BLUETOOTH.o
                                                  ./utilities/fsl_debug_console.o
UART_ReadBlocking                                 ./drivers/fsl_uart.o
                                                  ./utilities/fsl_debug_console.o
UART_SetBaudRate                                  ./drivers/fsl_uart.o
UART_TransferAbortReceive                         ./drivers/fsl_uart.o
UART_TransferAbortSend                            ./drivers/fsl_uart.o
UART_TransferCreateHandle                         ./drivers/fsl_uart.o
UART_TransferGetReceiveCount                      ./drivers/fsl_uart.o
UART_TransferGetSendCount                         ./drivers/fsl_uart.o
UART_TransferHandleErrorIRQ                       ./drivers/fsl_uart.o
UART_TransferHandleIRQ                            ./drivers/fsl_uart.o
UART_TransferReceiveNonBlocking                   ./drivers/fsl_uart.o
UART_TransferSendNonBlocking                      ./drivers/fsl_uart.o
UART_TransferStartRingBuffer                      ./drivers/fsl_uart.o
UART_TransferStopRingBuffer                       ./drivers/fsl_uart.o
UART_WriteBlocking                                ./drivers/fsl_uart.o
                                                  ./source/HDU/HDU_BLUETOOTH.o
                                                  ./utilities/fsl_debug_console.o
USB0_DriverIRQHandler                             ./startup/startup_mkl25z4.o
USB0_IRQHandler                                   ./startup/startup_mkl25z4.o
_Csys_alloc                                       /usr/local/mcuxpressoide-11.1.1_3241/ide/plugins/com.nxp.mcuxpresso.tools.linux_11.1.0.202001081728/tools/bin/../lib/gcc/arm-none-eabi/8.3.1/../../../../arm-none-eabi/lib/thumb/v6-m/nofp/libcr_c.a(alloc.o)
                                                  /usr/local/mcuxpressoide-11.1.1_3241/ide/plugins/com.nxp.mcuxpresso.tools.linux_11.1.0.202001081728/tools/bin/../lib/gcc/arm-none-eabi/8.3.1/../../../../arm-none-eabi/lib/thumb/v6-m/nofp/libcr_c.a(_deferredlazyseek.o)
_Cwritebuf                                        /usr/local/mcuxpressoide-11.1.1_3241/ide/plugins/com.nxp.mcuxpresso.tools.linux_11.1.0.202001081728/tools/bin/../lib/gcc/arm-none-eabi/8.3.1/../../../../arm-none-eabi/lib/thumb/v6-m/nofp/libcr_c.a(_writebuf.o)
                                                  /usr/local/mcuxpressoide-11.1.1_3241/ide/plugins/com.nxp.mcuxpresso.tools.linux_11.1.0.202001081728/tools/bin/../lib/gcc/arm-none-eabi/8.3.1/../../../../arm-none-eabi/lib/thumb/v6-m/nofp/libcr_c.a(_fflush.o)
                                                  /usr/local/mcuxpressoide-11.1.1_3241/ide/plugins/com.nxp.mcuxpresso.tools.linux_11.1.0.202001081728/tools/bin/../lib/gcc/arm-none-eabi/8.3.1/../../../../arm-none-eabi/lib/thumb/v6-m/nofp/libcr_c.a(_deferredlazyseek.o)
__Ciob                                            /usr/local/mcuxpressoide-11.1.1_3241/ide/plugins/com.nxp.mcuxpresso.tools.linux_11.1.0.202001081728/tools/bin/../lib/gcc/arm-none-eabi/8.3.1/../../../../arm-none-eabi/lib/thumb/v6-m/nofp/libcr_nohost_nf.a(__ciob.o)
                                                  /usr/local/mcuxpressoide-11.1.1_3241/ide/plugins/com.nxp.mcuxpresso.tools.linux_11.1.0.202001081728/tools/bin/../lib/gcc/arm-none-eabi/8.3.1/../../../../arm-none-eabi/lib/thumb/v6-m/nofp/libcr_c.a(fflush.o)
                                                  /usr/local/mcuxpressoide-11.1.1_3241/ide/plugins/com.nxp.mcuxpresso.tools.linux_11.1.0.202001081728/tools/bin/../lib/gcc/arm-none-eabi/8.3.1/../../../../arm-none-eabi/lib/thumb/v6-m/nofp/libcr_c.a(printf.o)
                                                  /usr/local/mcuxpressoide-11.1.1_3241/ide/plugins/com.nxp.mcuxpresso.tools.linux_11.1.0.202001081728/tools/bin/../lib/gcc/arm-none-eabi/8.3.1/../../../../arm-none-eabi/lib/thumb/v6-m/nofp/libcr_c.a(initio.o)
                                                  /usr/local/mcuxpressoide-11.1.1_3241/ide/plugins/com.nxp.mcuxpresso.tools.linux_11.1.0.202001081728/tools/bin/../lib/gcc/arm-none-eabi/8.3.1/../../../../arm-none-eabi/lib/thumb/v6-m/nofp/libcr_nohost_nf.a(_cr_assert.o)
__RAM_VECTOR_TABLE_SIZE_BYTES                     ./drivers/fsl_common.o
__VECTOR_RAM                                      ./drivers/fsl_common.o
__VECTOR_TABLE                                    ./drivers/fsl_common.o
__Vectors                                         ./startup/startup_mkl25z4.o
__aeabi_cdcmpeq                                   /usr/local/mcuxpressoide-11.1.1_3241/ide/plugins/com.nxp.mcuxpresso.tools.linux_11.1.0.202001081728/tools/bin/../lib/gcc/arm-none-eabi/8.3.1/thumb/v6-m/nofp/libcr_eabihelpers.a(double.o)
__aeabi_cdcmple                                   /usr/local/mcuxpressoide-11.1.1_3241/ide/plugins/com.nxp.mcuxpresso.tools.linux_11.1.0.202001081728/tools/bin/../lib/gcc/arm-none-eabi/8.3.1/thumb/v6-m/nofp/libcr_eabihelpers.a(double.o)
__aeabi_cdrcmple                                  /usr/local/mcuxpressoide-11.1.1_3241/ide/plugins/com.nxp.mcuxpresso.tools.linux_11.1.0.202001081728/tools/bin/../lib/gcc/arm-none-eabi/8.3.1/thumb/v6-m/nofp/libcr_eabihelpers.a(double.o)
__aeabi_cfcmpeq                                   /usr/local/mcuxpressoide-11.1.1_3241/ide/plugins/com.nxp.mcuxpresso.tools.linux_11.1.0.202001081728/tools/bin/../lib/gcc/arm-none-eabi/8.3.1/thumb/v6-m/nofp/libcr_eabihelpers.a(float.o)
__aeabi_cfcmple                                   /usr/local/mcuxpressoide-11.1.1_3241/ide/plugins/com.nxp.mcuxpresso.tools.linux_11.1.0.202001081728/tools/bin/../lib/gcc/arm-none-eabi/8.3.1/thumb/v6-m/nofp/libcr_eabihelpers.a(float.o)
__aeabi_cfrcmple                                  /usr/local/mcuxpressoide-11.1.1_3241/ide/plugins/com.nxp.mcuxpresso.tools.linux_11.1.0.202001081728/tools/bin/../lib/gcc/arm-none-eabi/8.3.1/thumb/v6-m/nofp/libcr_eabihelpers.a(float.o)
__aeabi_d2f                                       /usr/local/mcuxpressoide-11.1.1_3241/ide/plugins/com.nxp.mcuxpresso.tools.linux_11.1.0.202001081728/tools/bin/../lib/gcc/arm-none-eabi/8.3.1/thumb/v6-m/nofp/libcr_eabihelpers.a(double.o)
                                                  ./source/HighDriveUnit.o
                                                  ./source/HDU/HDU_SERVO.o
                                                  ./source/HDU/HDU_BATSENSE.o
__aeabi_d2iz                                      /usr/local/mcuxpressoide-11.1.1_3241/ide/plugins/com.nxp.mcuxpresso.tools.linux_11.1.0.202001081728/tools/bin/../lib/gcc/arm-none-eabi/8.3.1/thumb/v6-m/nofp/libcr_eabihelpers.a(double.o)
                                                  ./source/HDU/HDU_BLUETOOTH.o
__aeabi_d2lz                                      /usr/local/mcuxpressoide-11.1.1_3241/ide/plugins/com.nxp.mcuxpresso.tools.linux_11.1.0.202001081728/tools/bin/../lib/gcc/arm-none-eabi/8.3.1/thumb/v6-m/nofp/libcr_eabihelpers.a(double.o)
__aeabi_d2uiz                                     /usr/local/mcuxpressoide-11.1.1_3241/ide/plugins/com.nxp.mcuxpresso.tools.linux_11.1.0.202001081728/tools/bin/../lib/gcc/arm-none-eabi/8.3.1/thumb/v6-m/nofp/libcr_eabihelpers.a(double.o)
__aeabi_d2ulz                                     /usr/local/mcuxpressoide-11.1.1_3241/ide/plugins/com.nxp.mcuxpresso.tools.linux_11.1.0.202001081728/tools/bin/../lib/gcc/arm-none-eabi/8.3.1/thumb/v6-m/nofp/libcr_eabihelpers.a(double.o)
__aeabi_dadd                                      /usr/local/mcuxpressoide-11.1.1_3241/ide/plugins/com.nxp.mcuxpresso.tools.linux_11.1.0.202001081728/tools/bin/../lib/gcc/arm-none-eabi/8.3.1/thumb/v6-m/nofp/libcr_eabihelpers.a(double.o)
                                                  ./source/HighDriveUnit.o
                                                  ./source/HDU/HDU_SERVO.o
__aeabi_dcmpeq                                    /usr/local/mcuxpressoide-11.1.1_3241/ide/plugins/com.nxp.mcuxpresso.tools.linux_11.1.0.202001081728/tools/bin/../lib/gcc/arm-none-eabi/8.3.1/thumb/v6-m/nofp/libcr_eabihelpers.a(double.o)
__aeabi_dcmpge                                    /usr/local/mcuxpressoide-11.1.1_3241/ide/plugins/com.nxp.mcuxpresso.tools.linux_11.1.0.202001081728/tools/bin/../lib/gcc/arm-none-eabi/8.3.1/thumb/v6-m/nofp/libcr_eabihelpers.a(double.o)
__aeabi_dcmpgt                                    /usr/local/mcuxpressoide-11.1.1_3241/ide/plugins/com.nxp.mcuxpresso.tools.linux_11.1.0.202001081728/tools/bin/../lib/gcc/arm-none-eabi/8.3.1/thumb/v6-m/nofp/libcr_eabihelpers.a(double.o)
                                                  ./source/HDU/HDU_SERVO.o
__aeabi_dcmple                                    /usr/local/mcuxpressoide-11.1.1_3241/ide/plugins/com.nxp.mcuxpresso.tools.linux_11.1.0.202001081728/tools/bin/../lib/gcc/arm-none-eabi/8.3.1/thumb/v6-m/nofp/libcr_eabihelpers.a(double.o)
__aeabi_dcmplt                                    /usr/local/mcuxpressoide-11.1.1_3241/ide/plugins/com.nxp.mcuxpresso.tools.linux_11.1.0.202001081728/tools/bin/../lib/gcc/arm-none-eabi/8.3.1/thumb/v6-m/nofp/libcr_eabihelpers.a(double.o)
                                                  ./source/HDU/HDU_SERVO.o
__aeabi_dcmpun                                    /usr/local/mcuxpressoide-11.1.1_3241/ide/plugins/com.nxp.mcuxpresso.tools.linux_11.1.0.202001081728/tools/bin/../lib/gcc/arm-none-eabi/8.3.1/thumb/v6-m/nofp/libcr_eabihelpers.a(double.o)
__aeabi_ddiv                                      /usr/local/mcuxpressoide-11.1.1_3241/ide/plugins/com.nxp.mcuxpresso.tools.linux_11.1.0.202001081728/tools/bin/../lib/gcc/arm-none-eabi/8.3.1/thumb/v6-m/nofp/libcr_eabihelpers.a(double.o)
__aeabi_dmul                                      /usr/local/mcuxpressoide-11.1.1_3241/ide/plugins/com.nxp.mcuxpresso.tools.linux_11.1.0.202001081728/tools/bin/../lib/gcc/arm-none-eabi/8.3.1/thumb/v6-m/nofp/libcr_eabihelpers.a(double.o)
                                                  ./source/HighDriveUnit.o
                                                  ./source/HDU/HDU_SERVO.o
                                                  ./source/HDU/HDU_BLUETOOTH.o
                                                  ./source/HDU/HDU_BATSENSE.o
__aeabi_dneg                                      /usr/local/mcuxpressoide-11.1.1_3241/ide/plugins/com.nxp.mcuxpresso.tools.linux_11.1.0.202001081728/tools/bin/../lib/gcc/arm-none-eabi/8.3.1/thumb/v6-m/nofp/libcr_eabihelpers.a(double.o)
__aeabi_drsub                                     /usr/local/mcuxpressoide-11.1.1_3241/ide/plugins/com.nxp.mcuxpresso.tools.linux_11.1.0.202001081728/tools/bin/../lib/gcc/arm-none-eabi/8.3.1/thumb/v6-m/nofp/libcr_eabihelpers.a(double.o)
__aeabi_dsub                                      /usr/local/mcuxpressoide-11.1.1_3241/ide/plugins/com.nxp.mcuxpresso.tools.linux_11.1.0.202001081728/tools/bin/../lib/gcc/arm-none-eabi/8.3.1/thumb/v6-m/nofp/libcr_eabihelpers.a(double.o)
__aeabi_f2d                                       /usr/local/mcuxpressoide-11.1.1_3241/ide/plugins/com.nxp.mcuxpresso.tools.linux_11.1.0.202001081728/tools/bin/../lib/gcc/arm-none-eabi/8.3.1/thumb/v6-m/nofp/libcr_eabihelpers.a(float.o)
                                                  ./source/HighDriveUnit.o
                                                  ./source/HDU/HDU_SERVO.o
                                                  ./source/HDU/HDU_BLUETOOTH.o
                                                  ./source/HDU/HDU_BATSENSE.o
                                                  ./source/HDU/HDU.o
__aeabi_f2iz                                      /usr/local/mcuxpressoide-11.1.1_3241/ide/plugins/com.nxp.mcuxpresso.tools.linux_11.1.0.202001081728/tools/bin/../lib/gcc/arm-none-eabi/8.3.1/thumb/v6-m/nofp/libcr_eabihelpers.a(float.o)
                                                  ./source/HighDriveUnit.o
                                                  ./source/HDU/HDU_BLUETOOTH.o
__aeabi_f2lz                                      /usr/local/mcuxpressoide-11.1.1_3241/ide/plugins/com.nxp.mcuxpresso.tools.linux_11.1.0.202001081728/tools/bin/../lib/gcc/arm-none-eabi/8.3.1/thumb/v6-m/nofp/libcr_eabihelpers.a(float.o)
__aeabi_f2uiz                                     /usr/local/mcuxpressoide-11.1.1_3241/ide/plugins/com.nxp.mcuxpresso.tools.linux_11.1.0.202001081728/tools/bin/../lib/gcc/arm-none-eabi/8.3.1/thumb/v6-m/nofp/libcr_eabihelpers.a(float.o)
                                                  ./source/HDU/HDU_SERVO.o
__aeabi_f2ulz                                     /usr/local/mcuxpressoide-11.1.1_3241/ide/plugins/com.nxp.mcuxpresso.tools.linux_11.1.0.202001081728/tools/bin/../lib/gcc/arm-none-eabi/8.3.1/thumb/v6-m/nofp/libcr_eabihelpers.a(float.o)
__aeabi_fadd                                      /usr/local/mcuxpressoide-11.1.1_3241/ide/plugins/com.nxp.mcuxpresso.tools.linux_11.1.0.202001081728/tools/bin/../lib/gcc/arm-none-eabi/8.3.1/thumb/v6-m/nofp/libcr_eabihelpers.a(float.o)
__aeabi_fcmpeq                                    /usr/local/mcuxpressoide-11.1.1_3241/ide/plugins/com.nxp.mcuxpresso.tools.linux_11.1.0.202001081728/tools/bin/../lib/gcc/arm-none-eabi/8.3.1/thumb/v6-m/nofp/libcr_eabihelpers.a(float.o)
__aeabi_fcmpge                                    /usr/local/mcuxpressoide-11.1.1_3241/ide/plugins/com.nxp.mcuxpresso.tools.linux_11.1.0.202001081728/tools/bin/../lib/gcc/arm-none-eabi/8.3.1/thumb/v6-m/nofp/libcr_eabihelpers.a(float.o)
__aeabi_fcmpgt                                    /usr/local/mcuxpressoide-11.1.1_3241/ide/plugins/com.nxp.mcuxpresso.tools.linux_11.1.0.202001081728/tools/bin/../lib/gcc/arm-none-eabi/8.3.1/thumb/v6-m/nofp/libcr_eabihelpers.a(float.o)
__aeabi_fcmple                                    /usr/local/mcuxpressoide-11.1.1_3241/ide/plugins/com.nxp.mcuxpresso.tools.linux_11.1.0.202001081728/tools/bin/../lib/gcc/arm-none-eabi/8.3.1/thumb/v6-m/nofp/libcr_eabihelpers.a(float.o)
__aeabi_fcmplt                                    /usr/local/mcuxpressoide-11.1.1_3241/ide/plugins/com.nxp.mcuxpresso.tools.linux_11.1.0.202001081728/tools/bin/../lib/gcc/arm-none-eabi/8.3.1/thumb/v6-m/nofp/libcr_eabihelpers.a(float.o)
__aeabi_fcmpun                                    /usr/local/mcuxpressoide-11.1.1_3241/ide/plugins/com.nxp.mcuxpresso.tools.linux_11.1.0.202001081728/tools/bin/../lib/gcc/arm-none-eabi/8.3.1/thumb/v6-m/nofp/libcr_eabihelpers.a(float.o)
__aeabi_fdiv                                      /usr/local/mcuxpressoide-11.1.1_3241/ide/plugins/com.nxp.mcuxpresso.tools.linux_11.1.0.202001081728/tools/bin/../lib/gcc/arm-none-eabi/8.3.1/thumb/v6-m/nofp/libcr_eabihelpers.a(float.o)
                                                  ./source/HighDriveUnit.o
                                                  ./source/HDU/HDU_BATSENSE.o
__aeabi_fmul                                      /usr/local/mcuxpressoide-11.1.1_3241/ide/plugins/com.nxp.mcuxpresso.tools.linux_11.1.0.202001081728/tools/bin/../lib/gcc/arm-none-eabi/8.3.1/thumb/v6-m/nofp/libcr_eabihelpers.a(float.o)
                                                  ./source/HighDriveUnit.o
                                                  ./source/HDU/HDU_SERVO.o
                                                  ./source/HDU/HDU_BATSENSE.o
__aeabi_fneg                                      /usr/local/mcuxpressoide-11.1.1_3241/ide/plugins/com.nxp.mcuxpresso.tools.linux_11.1.0.202001081728/tools/bin/../lib/gcc/arm-none-eabi/8.3.1/thumb/v6-m/nofp/libcr_eabihelpers.a(float.o)
__aeabi_frsub                                     /usr/local/mcuxpressoide-11.1.1_3241/ide/plugins/com.nxp.mcuxpresso.tools.linux_11.1.0.202001081728/tools/bin/../lib/gcc/arm-none-eabi/8.3.1/thumb/v6-m/nofp/libcr_eabihelpers.a(float.o)
__aeabi_fsub                                      /usr/local/mcuxpressoide-11.1.1_3241/ide/plugins/com.nxp.mcuxpresso.tools.linux_11.1.0.202001081728/tools/bin/../lib/gcc/arm-none-eabi/8.3.1/thumb/v6-m/nofp/libcr_eabihelpers.a(float.o)
__aeabi_i2d                                       /usr/local/mcuxpressoide-11.1.1_3241/ide/plugins/com.nxp.mcuxpresso.tools.linux_11.1.0.202001081728/tools/bin/../lib/gcc/arm-none-eabi/8.3.1/thumb/v6-m/nofp/libcr_eabihelpers.a(double.o)
__aeabi_i2f                                       /usr/local/mcuxpressoide-11.1.1_3241/ide/plugins/com.nxp.mcuxpresso.tools.linux_11.1.0.202001081728/tools/bin/../lib/gcc/arm-none-eabi/8.3.1/thumb/v6-m/nofp/libcr_eabihelpers.a(float.o)
                                                  ./source/HDU/HDU_SERVO.o
                                                  ./source/HDU/HDU_BATSENSE.o
__aeabi_idiv                                      /usr/local/mcuxpressoide-11.1.1_3241/ide/plugins/com.nxp.mcuxpresso.tools.linux_11.1.0.202001081728/tools/bin/../lib/gcc/arm-none-eabi/8.3.1/thumb/v6-m/nofp/libcr_eabihelpers.a(division_32.o)
                                                  ./drivers/fsl_tpm.o
__aeabi_idiv0                                     /usr/local/mcuxpressoide-11.1.1_3241/ide/plugins/com.nxp.mcuxpresso.tools.linux_11.1.0.202001081728/tools/bin/../lib/gcc/arm-none-eabi/8.3.1/thumb/v6-m/nofp/libcr_eabihelpers.a(division_idiv0.o)
                                                  /usr/local/mcuxpressoide-11.1.1_3241/ide/plugins/com.nxp.mcuxpresso.tools.linux_11.1.0.202001081728/tools/bin/../lib/gcc/arm-none-eabi/8.3.1/thumb/v6-m/nofp/libcr_eabihelpers.a(division_64.o)
                                                  /usr/local/mcuxpressoide-11.1.1_3241/ide/plugins/com.nxp.mcuxpresso.tools.linux_11.1.0.202001081728/tools/bin/../lib/gcc/arm-none-eabi/8.3.1/thumb/v6-m/nofp/libcr_eabihelpers.a(division_32.o)
__aeabi_idivmod                                   /usr/local/mcuxpressoide-11.1.1_3241/ide/plugins/com.nxp.mcuxpresso.tools.linux_11.1.0.202001081728/tools/bin/../lib/gcc/arm-none-eabi/8.3.1/thumb/v6-m/nofp/libcr_eabihelpers.a(division_32.o)
                                                  ./source/HDU/HDU_BLUETOOTH.o
__aeabi_l2d                                       /usr/local/mcuxpressoide-11.1.1_3241/ide/plugins/com.nxp.mcuxpresso.tools.linux_11.1.0.202001081728/tools/bin/../lib/gcc/arm-none-eabi/8.3.1/thumb/v6-m/nofp/libcr_eabihelpers.a(double.o)
__aeabi_l2f                                       /usr/local/mcuxpressoide-11.1.1_3241/ide/plugins/com.nxp.mcuxpresso.tools.linux_11.1.0.202001081728/tools/bin/../lib/gcc/arm-none-eabi/8.3.1/thumb/v6-m/nofp/libcr_eabihelpers.a(float.o)
__aeabi_lasr                                      /usr/local/mcuxpressoide-11.1.1_3241/ide/plugins/com.nxp.mcuxpresso.tools.linux_11.1.0.202001081728/tools/bin/../lib/gcc/arm-none-eabi/8.3.1/thumb/v6-m/nofp/libcr_eabihelpers.a(llong.o)
__aeabi_lcmp                                      /usr/local/mcuxpressoide-11.1.1_3241/ide/plugins/com.nxp.mcuxpresso.tools.linux_11.1.0.202001081728/tools/bin/../lib/gcc/arm-none-eabi/8.3.1/thumb/v6-m/nofp/libcr_eabihelpers.a(llong.o)
__aeabi_ldivmod                                   /usr/local/mcuxpressoide-11.1.1_3241/ide/plugins/com.nxp.mcuxpresso.tools.linux_11.1.0.202001081728/tools/bin/../lib/gcc/arm-none-eabi/8.3.1/thumb/v6-m/nofp/libcr_eabihelpers.a(division_64.o)
__aeabi_llsl                                      /usr/local/mcuxpressoide-11.1.1_3241/ide/plugins/com.nxp.mcuxpresso.tools.linux_11.1.0.202001081728/tools/bin/../lib/gcc/arm-none-eabi/8.3.1/thumb/v6-m/nofp/libcr_eabihelpers.a(llong.o)
__aeabi_llsr                                      /usr/local/mcuxpressoide-11.1.1_3241/ide/plugins/com.nxp.mcuxpresso.tools.linux_11.1.0.202001081728/tools/bin/../lib/gcc/arm-none-eabi/8.3.1/thumb/v6-m/nofp/libcr_eabihelpers.a(llong.o)
__aeabi_lmul                                      /usr/local/mcuxpressoide-11.1.1_3241/ide/plugins/com.nxp.mcuxpresso.tools.linux_11.1.0.202001081728/tools/bin/../lib/gcc/arm-none-eabi/8.3.1/thumb/v6-m/nofp/libcr_eabihelpers.a(llong.o)
                                                  /usr/local/mcuxpressoide-11.1.1_3241/ide/plugins/com.nxp.mcuxpresso.tools.linux_11.1.0.202001081728/tools/bin/../lib/gcc/arm-none-eabi/8.3.1/thumb/v6-m/nofp/libcr_eabihelpers.a(float.o)
                                                  /usr/local/mcuxpressoide-11.1.1_3241/ide/plugins/com.nxp.mcuxpresso.tools.linux_11.1.0.202001081728/tools/bin/../lib/gcc/arm-none-eabi/8.3.1/thumb/v6-m/nofp/libcr_eabihelpers.a(double.o)
                                                  /usr/local/mcuxpressoide-11.1.1_3241/ide/plugins/com.nxp.mcuxpresso.tools.linux_11.1.0.202001081728/tools/bin/../lib/gcc/arm-none-eabi/8.3.1/../../../../arm-none-eabi/lib/thumb/v6-m/nofp/libcr_c.a(printf.o)
                                                  ./source/HDU/HDU_LINESCAN.o
__aeabi_lowlevel_memset                           /usr/local/mcuxpressoide-11.1.1_3241/ide/plugins/com.nxp.mcuxpresso.tools.linux_11.1.0.202001081728/tools/bin/../lib/gcc/arm-none-eabi/8.3.1/thumb/v6-m/nofp/libcr_eabihelpers.a(memcpy.o)
                                                  /usr/local/mcuxpressoide-11.1.1_3241/ide/plugins/com.nxp.mcuxpresso.tools.linux_11.1.0.202001081728/tools/bin/../lib/gcc/arm-none-eabi/8.3.1/../../../../arm-none-eabi/lib/thumb/v6-m/nofp/libcr_c.a(memset.o)
__aeabi_memclr                                    /usr/local/mcuxpressoide-11.1.1_3241/ide/plugins/com.nxp.mcuxpresso.tools.linux_11.1.0.202001081728/tools/bin/../lib/gcc/arm-none-eabi/8.3.1/thumb/v6-m/nofp/libcr_eabihelpers.a(memcpy.o)
__aeabi_memclr4                                   /usr/local/mcuxpressoide-11.1.1_3241/ide/plugins/com.nxp.mcuxpresso.tools.linux_11.1.0.202001081728/tools/bin/../lib/gcc/arm-none-eabi/8.3.1/thumb/v6-m/nofp/libcr_eabihelpers.a(memcpy.o)
__aeabi_memclr8                                   /usr/local/mcuxpressoide-11.1.1_3241/ide/plugins/com.nxp.mcuxpresso.tools.linux_11.1.0.202001081728/tools/bin/../lib/gcc/arm-none-eabi/8.3.1/thumb/v6-m/nofp/libcr_eabihelpers.a(memcpy.o)
__aeabi_memcpy                                    /usr/local/mcuxpressoide-11.1.1_3241/ide/plugins/com.nxp.mcuxpresso.tools.linux_11.1.0.202001081728/tools/bin/../lib/gcc/arm-none-eabi/8.3.1/thumb/v6-m/nofp/libcr_eabihelpers.a(memcpy.o)
                                                  /usr/local/mcuxpressoide-11.1.1_3241/ide/plugins/com.nxp.mcuxpresso.tools.linux_11.1.0.202001081728/tools/bin/../lib/gcc/arm-none-eabi/8.3.1/../../../../arm-none-eabi/lib/thumb/v6-m/nofp/libcr_c.a(memcpy.o)
__aeabi_memcpy4                                   /usr/local/mcuxpressoide-11.1.1_3241/ide/plugins/com.nxp.mcuxpresso.tools.linux_11.1.0.202001081728/tools/bin/../lib/gcc/arm-none-eabi/8.3.1/thumb/v6-m/nofp/libcr_eabihelpers.a(memcpy.o)
__aeabi_memcpy8                                   /usr/local/mcuxpressoide-11.1.1_3241/ide/plugins/com.nxp.mcuxpresso.tools.linux_11.1.0.202001081728/tools/bin/../lib/gcc/arm-none-eabi/8.3.1/thumb/v6-m/nofp/libcr_eabihelpers.a(memcpy.o)
__aeabi_memmove                                   /usr/local/mcuxpressoide-11.1.1_3241/ide/plugins/com.nxp.mcuxpresso.tools.linux_11.1.0.202001081728/tools/bin/../lib/gcc/arm-none-eabi/8.3.1/thumb/v6-m/nofp/libcr_eabihelpers.a(memcpy.o)
__aeabi_memmove4                                  /usr/local/mcuxpressoide-11.1.1_3241/ide/plugins/com.nxp.mcuxpresso.tools.linux_11.1.0.202001081728/tools/bin/../lib/gcc/arm-none-eabi/8.3.1/thumb/v6-m/nofp/libcr_eabihelpers.a(memcpy.o)
__aeabi_memmove8                                  /usr/local/mcuxpressoide-11.1.1_3241/ide/plugins/com.nxp.mcuxpresso.tools.linux_11.1.0.202001081728/tools/bin/../lib/gcc/arm-none-eabi/8.3.1/thumb/v6-m/nofp/libcr_eabihelpers.a(memcpy.o)
__aeabi_memset                                    /usr/local/mcuxpressoide-11.1.1_3241/ide/plugins/com.nxp.mcuxpresso.tools.linux_11.1.0.202001081728/tools/bin/../lib/gcc/arm-none-eabi/8.3.1/thumb/v6-m/nofp/libcr_eabihelpers.a(memcpy.o)
__aeabi_memset4                                   /usr/local/mcuxpressoide-11.1.1_3241/ide/plugins/com.nxp.mcuxpresso.tools.linux_11.1.0.202001081728/tools/bin/../lib/gcc/arm-none-eabi/8.3.1/thumb/v6-m/nofp/libcr_eabihelpers.a(memcpy.o)
__aeabi_memset8                                   /usr/local/mcuxpressoide-11.1.1_3241/ide/plugins/com.nxp.mcuxpresso.tools.linux_11.1.0.202001081728/tools/bin/../lib/gcc/arm-none-eabi/8.3.1/thumb/v6-m/nofp/libcr_eabihelpers.a(memcpy.o)
__aeabi_ui2d                                      /usr/local/mcuxpressoide-11.1.1_3241/ide/plugins/com.nxp.mcuxpresso.tools.linux_11.1.0.202001081728/tools/bin/../lib/gcc/arm-none-eabi/8.3.1/thumb/v6-m/nofp/libcr_eabihelpers.a(double.o)
__aeabi_ui2f                                      /usr/local/mcuxpressoide-11.1.1_3241/ide/plugins/com.nxp.mcuxpresso.tools.linux_11.1.0.202001081728/tools/bin/../lib/gcc/arm-none-eabi/8.3.1/thumb/v6-m/nofp/libcr_eabihelpers.a(float.o)
                                                  ./source/HighDriveUnit.o
                                                  ./source/HDU/HDU_SERVO.o
                                                  ./source/HDU/HDU_BATSENSE.o
__aeabi_uidiv                                     /usr/local/mcuxpressoide-11.1.1_3241/ide/plugins/com.nxp.mcuxpresso.tools.linux_11.1.0.202001081728/tools/bin/../lib/gcc/arm-none-eabi/8.3.1/thumb/v6-m/nofp/libcr_eabihelpers.a(division_32.o)
                                                  ./CMSIS/system_MKL25Z4.o
                                                  ./drivers/fsl_uart.o
                                                  ./drivers/fsl_tpm.o
                                                  ./drivers/fsl_lpsci.o
                                                  ./drivers/fsl_flash.o
                                                  ./drivers/fsl_clock.o
__aeabi_uidivmod                                  /usr/local/mcuxpressoide-11.1.1_3241/ide/plugins/com.nxp.mcuxpresso.tools.linux_11.1.0.202001081728/tools/bin/../lib/gcc/arm-none-eabi/8.3.1/thumb/v6-m/nofp/libcr_eabihelpers.a(division_32.o)
                                                  ./drivers/fsl_flash.o
__aeabi_ul2d                                      /usr/local/mcuxpressoide-11.1.1_3241/ide/plugins/com.nxp.mcuxpresso.tools.linux_11.1.0.202001081728/tools/bin/../lib/gcc/arm-none-eabi/8.3.1/thumb/v6-m/nofp/libcr_eabihelpers.a(double.o)
__aeabi_ul2f                                      /usr/local/mcuxpressoide-11.1.1_3241/ide/plugins/com.nxp.mcuxpresso.tools.linux_11.1.0.202001081728/tools/bin/../lib/gcc/arm-none-eabi/8.3.1/thumb/v6-m/nofp/libcr_eabihelpers.a(float.o)
__aeabi_ulcmp                                     /usr/local/mcuxpressoide-11.1.1_3241/ide/plugins/com.nxp.mcuxpresso.tools.linux_11.1.0.202001081728/tools/bin/../lib/gcc/arm-none-eabi/8.3.1/thumb/v6-m/nofp/libcr_eabihelpers.a(llong.o)
__aeabi_uldivmod                                  /usr/local/mcuxpressoide-11.1.1_3241/ide/plugins/com.nxp.mcuxpresso.tools.linux_11.1.0.202001081728/tools/bin/../lib/gcc/arm-none-eabi/8.3.1/thumb/v6-m/nofp/libcr_eabihelpers.a(division_64.o)
                                                  ./source/HDU/HDU_LINESCAN.o
__assertion_failed                                /usr/local/mcuxpressoide-11.1.1_3241/ide/plugins/com.nxp.mcuxpresso.tools.linux_11.1.0.202001081728/tools/bin/../lib/gcc/arm-none-eabi/8.3.1/../../../../arm-none-eabi/lib/thumb/v6-m/nofp/libcr_nohost_nf.a(_cr_assert.o)
                                                  ./drivers/fsl_uart.o
                                                  ./drivers/fsl_tpm.o
                                                  ./drivers/fsl_pit.o
                                                  ./drivers/fsl_lpsci.o
                                                  ./drivers/fsl_gpio.o
                                                  ./drivers/fsl_clock.o
                                                  ./drivers/fsl_adc16.o
                                                  ./source/HDU/HDU_LINESCAN.o
                                                  ./source/HDU/HDU_ADC0.o
__bhs_ui2d                                        /usr/local/mcuxpressoide-11.1.1_3241/ide/plugins/com.nxp.mcuxpresso.tools.linux_11.1.0.202001081728/tools/bin/../lib/gcc/arm-none-eabi/8.3.1/thumb/v6-m/nofp/libcr_eabihelpers.a(double.o)
__bhs_ui2f                                        /usr/local/mcuxpressoide-11.1.1_3241/ide/plugins/com.nxp.mcuxpresso.tools.linux_11.1.0.202001081728/tools/bin/../lib/gcc/arm-none-eabi/8.3.1/thumb/v6-m/nofp/libcr_eabihelpers.a(float.o)
__bhs_ul2d                                        /usr/local/mcuxpressoide-11.1.1_3241/ide/plugins/com.nxp.mcuxpresso.tools.linux_11.1.0.202001081728/tools/bin/../lib/gcc/arm-none-eabi/8.3.1/thumb/v6-m/nofp/libcr_eabihelpers.a(double.o)
__bhs_ul2f                                        /usr/local/mcuxpressoide-11.1.1_3241/ide/plugins/com.nxp.mcuxpresso.tools.linux_11.1.0.202001081728/tools/bin/../lib/gcc/arm-none-eabi/8.3.1/thumb/v6-m/nofp/libcr_eabihelpers.a(float.o)
__bss_section_table_end                           ./startup/startup_mkl25z4.o
__check_heap_overflow                             /usr/local/mcuxpressoide-11.1.1_3241/ide/plugins/com.nxp.mcuxpresso.tools.linux_11.1.0.202001081728/tools/bin/../lib/gcc/arm-none-eabi/8.3.1/../../../../arm-none-eabi/lib/thumb/v6-m/nofp/libcr_c.a(_cr_check_heap.o)
                                                  /usr/local/mcuxpressoide-11.1.1_3241/ide/plugins/com.nxp.mcuxpresso.tools.linux_11.1.0.202001081728/tools/bin/../lib/gcc/arm-none-eabi/8.3.1/../../../../arm-none-eabi/lib/thumb/v6-m/nofp/libcr_c.a(_cr_sbrk.o)
__data_section_table                              ./startup/startup_mkl25z4.o
__data_section_table_end                          ./startup/startup_mkl25z4.o
__end_of_heap                                     /usr/local/mcuxpressoide-11.1.1_3241/ide/plugins/com.nxp.mcuxpresso.tools.linux_11.1.0.202001081728/tools/bin/../lib/gcc/arm-none-eabi/8.3.1/../../../../arm-none-eabi/lib/thumb/v6-m/nofp/libcr_c.a(__init_alloc.o)
                                                  /usr/local/mcuxpressoide-11.1.1_3241/ide/plugins/com.nxp.mcuxpresso.tools.linux_11.1.0.202001081728/tools/bin/../lib/gcc/arm-none-eabi/8.3.1/../../../../arm-none-eabi/lib/thumb/v6-m/nofp/libcr_c.a(_cr_sbrk.o)
__exit                                            /usr/local/mcuxpressoide-11.1.1_3241/ide/plugins/com.nxp.mcuxpresso.tools.linux_11.1.0.202001081728/tools/bin/../lib/gcc/arm-none-eabi/8.3.1/../../../../arm-none-eabi/lib/thumb/v6-m/nofp/libcr_nohost_nf.a(__sys_appexit.o)
__flsbuf                                          /usr/local/mcuxpressoide-11.1.1_3241/ide/plugins/com.nxp.mcuxpresso.tools.linux_11.1.0.202001081728/tools/bin/../lib/gcc/arm-none-eabi/8.3.1/../../../../arm-none-eabi/lib/thumb/v6-m/nofp/libcr_c.a(_deferredlazyseek.o)
                                                  /usr/local/mcuxpressoide-11.1.1_3241/ide/plugins/com.nxp.mcuxpresso.tools.linux_11.1.0.202001081728/tools/bin/../lib/gcc/arm-none-eabi/8.3.1/../../../../arm-none-eabi/lib/thumb/v6-m/nofp/libcr_c.a(printf.o)
                                                  /usr/local/mcuxpressoide-11.1.1_3241/ide/plugins/com.nxp.mcuxpresso.tools.linux_11.1.0.202001081728/tools/bin/../lib/gcc/arm-none-eabi/8.3.1/../../../../arm-none-eabi/lib/thumb/v6-m/nofp/libcr_c.a(fputs.o)
                                                  /usr/local/mcuxpressoide-11.1.1_3241/ide/plugins/com.nxp.mcuxpresso.tools.linux_11.1.0.202001081728/tools/bin/../lib/gcc/arm-none-eabi/8.3.1/../../../../arm-none-eabi/lib/thumb/v6-m/nofp/libcr_nohost_nf.a(_cr_assert.o)
__heaps                                           /usr/local/mcuxpressoide-11.1.1_3241/ide/plugins/com.nxp.mcuxpresso.tools.linux_11.1.0.202001081728/tools/bin/../lib/gcc/arm-none-eabi/8.3.1/../../../../arm-none-eabi/lib/thumb/v6-m/nofp/libcr_c.a(__init_alloc.o)
                                                  /usr/local/mcuxpressoide-11.1.1_3241/ide/plugins/com.nxp.mcuxpresso.tools.linux_11.1.0.202001081728/tools/bin/../lib/gcc/arm-none-eabi/8.3.1/../../../../arm-none-eabi/lib/thumb/v6-m/nofp/libcr_c.a(alloc.o)
__main                                            /usr/local/mcuxpressoide-11.1.1_3241/ide/plugins/com.nxp.mcuxpresso.tools.linux_11.1.0.202001081728/tools/bin/../lib/gcc/arm-none-eabi/8.3.1/../../../../arm-none-eabi/lib/thumb/v6-m/nofp/libcr_nohost_nf.a(_cr__main.o)
                                                  ./startup/startup_mkl25z4.o
__mtb_buffer__                                    ./source/mtb.o
__num_Ciob_streams                                /usr/local/mcuxpressoide-11.1.1_3241/ide/plugins/com.nxp.mcuxpresso.tools.linux_11.1.0.202001081728/tools/bin/../lib/gcc/arm-none-eabi/8.3.1/../../../../arm-none-eabi/lib/thumb/v6-m/nofp/libcr_nohost_nf.a(__ciob.o)
                                                  /usr/local/mcuxpressoide-11.1.1_3241/ide/plugins/com.nxp.mcuxpresso.tools.linux_11.1.0.202001081728/tools/bin/../lib/gcc/arm-none-eabi/8.3.1/../../../../arm-none-eabi/lib/thumb/v6-m/nofp/libcr_c.a(fflush.o)
                                                  /usr/local/mcuxpressoide-11.1.1_3241/ide/plugins/com.nxp.mcuxpresso.tools.linux_11.1.0.202001081728/tools/bin/../lib/gcc/arm-none-eabi/8.3.1/../../../../arm-none-eabi/lib/thumb/v6-m/nofp/libcr_c.a(initio.o)
__sys_appexit                                     /usr/local/mcuxpressoide-11.1.1_3241/ide/plugins/com.nxp.mcuxpresso.tools.linux_11.1.0.202001081728/tools/bin/../lib/gcc/arm-none-eabi/8.3.1/../../../../arm-none-eabi/lib/thumb/v6-m/nofp/libcr_nohost_nf.a(__sys_appexit.o)
                                                  /usr/local/mcuxpressoide-11.1.1_3241/ide/plugins/com.nxp.mcuxpresso.tools.linux_11.1.0.202001081728/tools/bin/../lib/gcc/arm-none-eabi/8.3.1/../../../../arm-none-eabi/lib/thumb/v6-m/nofp/libcr_c.a(alloc.o)
                                                  /usr/local/mcuxpressoide-11.1.1_3241/ide/plugins/com.nxp.mcuxpresso.tools.linux_11.1.0.202001081728/tools/bin/../lib/gcc/arm-none-eabi/8.3.1/../../../../arm-none-eabi/lib/thumb/v6-m/nofp/libcr_nohost_nf.a(_cr_assert.o)
__sys_close                                       /usr/local/mcuxpressoide-11.1.1_3241/ide/plugins/com.nxp.mcuxpresso.tools.linux_11.1.0.202001081728/tools/bin/../lib/gcc/arm-none-eabi/8.3.1/../../../../arm-none-eabi/lib/thumb/v6-m/nofp/libcr_nohost_nf.a(__sys_close.o)
                                                  /usr/local/mcuxpressoide-11.1.1_3241/ide/plugins/com.nxp.mcuxpresso.tools.linux_11.1.0.202001081728/tools/bin/../lib/gcc/arm-none-eabi/8.3.1/../../../../arm-none-eabi/lib/thumb/v6-m/nofp/libcr_c.a(fclose.o)
__sys_flen                                        /usr/local/mcuxpressoide-11.1.1_3241/ide/plugins/com.nxp.mcuxpresso.tools.linux_11.1.0.202001081728/tools/bin/../lib/gcc/arm-none-eabi/8.3.1/../../../../arm-none-eabi/lib/thumb/v6-m/nofp/libcr_nohost_nf.a(__sys_flen.o)
                                                  /usr/local/mcuxpressoide-11.1.1_3241/ide/plugins/com.nxp.mcuxpresso.tools.linux_11.1.0.202001081728/tools/bin/../lib/gcc/arm-none-eabi/8.3.1/../../../../arm-none-eabi/lib/thumb/v6-m/nofp/libcr_c.a(fseek.o)
                                                  /usr/local/mcuxpressoide-11.1.1_3241/ide/plugins/com.nxp.mcuxpresso.tools.linux_11.1.0.202001081728/tools/bin/../lib/gcc/arm-none-eabi/8.3.1/../../../../arm-none-eabi/lib/thumb/v6-m/nofp/libcr_c.a(_writebuf.o)
__sys_istty                                       /usr/local/mcuxpressoide-11.1.1_3241/ide/plugins/com.nxp.mcuxpresso.tools.linux_11.1.0.202001081728/tools/bin/../lib/gcc/arm-none-eabi/8.3.1/../../../../arm-none-eabi/lib/thumb/v6-m/nofp/libcr_nohost_nf.a(__sys_istty.o)
                                                  /usr/local/mcuxpressoide-11.1.1_3241/ide/plugins/com.nxp.mcuxpresso.tools.linux_11.1.0.202001081728/tools/bin/../lib/gcc/arm-none-eabi/8.3.1/../../../../arm-none-eabi/lib/thumb/v6-m/nofp/libcr_c.a(fseek.o)
                                                  /usr/local/mcuxpressoide-11.1.1_3241/ide/plugins/com.nxp.mcuxpresso.tools.linux_11.1.0.202001081728/tools/bin/../lib/gcc/arm-none-eabi/8.3.1/../../../../arm-none-eabi/lib/thumb/v6-m/nofp/libcr_c.a(_deferredlazyseek.o)
__sys_readc                                       ./utilities/fsl_debug_console.o
__sys_remove                                      /usr/local/mcuxpressoide-11.1.1_3241/ide/plugins/com.nxp.mcuxpresso.tools.linux_11.1.0.202001081728/tools/bin/../lib/gcc/arm-none-eabi/8.3.1/../../../../arm-none-eabi/lib/thumb/v6-m/nofp/libcr_nohost_nf.a(__sys_remove.o)
                                                  /usr/local/mcuxpressoide-11.1.1_3241/ide/plugins/com.nxp.mcuxpresso.tools.linux_11.1.0.202001081728/tools/bin/../lib/gcc/arm-none-eabi/8.3.1/../../../../arm-none-eabi/lib/thumb/v6-m/nofp/libcr_c.a(remove.o)
__sys_rename                                      /usr/local/mcuxpressoide-11.1.1_3241/ide/plugins/com.nxp.mcuxpresso.tools.linux_11.1.0.202001081728/tools/bin/../lib/gcc/arm-none-eabi/8.3.1/../../../../arm-none-eabi/lib/thumb/v6-m/nofp/libcr_nohost_nf.a(__sys_rename.o)
                                                  /usr/local/mcuxpressoide-11.1.1_3241/ide/plugins/com.nxp.mcuxpresso.tools.linux_11.1.0.202001081728/tools/bin/../lib/gcc/arm-none-eabi/8.3.1/../../../../arm-none-eabi/lib/thumb/v6-m/nofp/libcr_c.a(remove.o)
__sys_seek                                        /usr/local/mcuxpressoide-11.1.1_3241/ide/plugins/com.nxp.mcuxpresso.tools.linux_11.1.0.202001081728/tools/bin/../lib/gcc/arm-none-eabi/8.3.1/../../../../arm-none-eabi/lib/thumb/v6-m/nofp/libcr_nohost_nf.a(__sys_seek.o)
                                                  /usr/local/mcuxpressoide-11.1.1_3241/ide/plugins/com.nxp.mcuxpresso.tools.linux_11.1.0.202001081728/tools/bin/../lib/gcc/arm-none-eabi/8.3.1/../../../../arm-none-eabi/lib/thumb/v6-m/nofp/libcr_c.a(_writebuf.o)
__sys_tmpnam                                      /usr/local/mcuxpressoide-11.1.1_3241/ide/plugins/com.nxp.mcuxpresso.tools.linux_11.1.0.202001081728/tools/bin/../lib/gcc/arm-none-eabi/8.3.1/../../../../arm-none-eabi/lib/thumb/v6-m/nofp/libcr_nohost_nf.a(__sys_tmpnam.o)
                                                  /usr/local/mcuxpressoide-11.1.1_3241/ide/plugins/com.nxp.mcuxpresso.tools.linux_11.1.0.202001081728/tools/bin/../lib/gcc/arm-none-eabi/8.3.1/../../../../arm-none-eabi/lib/thumb/v6-m/nofp/libcr_c.a(fclose.o)
__sys_write                                       ./utilities/fsl_debug_console.o
                                                  /usr/local/mcuxpressoide-11.1.1_3241/ide/plugins/com.nxp.mcuxpresso.tools.linux_11.1.0.202001081728/tools/bin/../lib/gcc/arm-none-eabi/8.3.1/../../../../arm-none-eabi/lib/thumb/v6-m/nofp/libcr_c.a(printf.o)
                                                  /usr/local/mcuxpressoide-11.1.1_3241/ide/plugins/com.nxp.mcuxpresso.tools.linux_11.1.0.202001081728/tools/bin/../lib/gcc/arm-none-eabi/8.3.1/../../../../arm-none-eabi/lib/thumb/v6-m/nofp/libcr_c.a(alloc.o)
                                                  /usr/local/mcuxpressoide-11.1.1_3241/ide/plugins/com.nxp.mcuxpresso.tools.linux_11.1.0.202001081728/tools/bin/../lib/gcc/arm-none-eabi/8.3.1/../../../../arm-none-eabi/lib/thumb/v6-m/nofp/libcr_c.a(_writebuf.o)
__vfprintf                                        /usr/local/mcuxpressoide-11.1.1_3241/ide/plugins/com.nxp.mcuxpresso.tools.linux_11.1.0.202001081728/tools/bin/../lib/gcc/arm-none-eabi/8.3.1/../../../../arm-none-eabi/lib/thumb/v6-m/nofp/libcr_c.a(printf.o)
_deferredlazyseek                                 /usr/local/mcuxpressoide-11.1.1_3241/ide/plugins/com.nxp.mcuxpresso.tools.linux_11.1.0.202001081728/tools/bin/../lib/gcc/arm-none-eabi/8.3.1/../../../../arm-none-eabi/lib/thumb/v6-m/nofp/libcr_c.a(_deferredlazyseek.o)
                                                  /usr/local/mcuxpressoide-11.1.1_3241/ide/plugins/com.nxp.mcuxpresso.tools.linux_11.1.0.202001081728/tools/bin/../lib/gcc/arm-none-eabi/8.3.1/../../../../arm-none-eabi/lib/thumb/v6-m/nofp/libcr_c.a(_do_fflush.o)
_do_fflush                                        /usr/local/mcuxpressoide-11.1.1_3241/ide/plugins/com.nxp.mcuxpresso.tools.linux_11.1.0.202001081728/tools/bin/../lib/gcc/arm-none-eabi/8.3.1/../../../../arm-none-eabi/lib/thumb/v6-m/nofp/libcr_c.a(_do_fflush.o)
                                                  /usr/local/mcuxpressoide-11.1.1_3241/ide/plugins/com.nxp.mcuxpresso.tools.linux_11.1.0.202001081728/tools/bin/../lib/gcc/arm-none-eabi/8.3.1/../../../../arm-none-eabi/lib/thumb/v6-m/nofp/libcr_c.a(fflush.o)
_fdopen                                           /usr/local/mcuxpressoide-11.1.1_3241/ide/plugins/com.nxp.mcuxpresso.tools.linux_11.1.0.202001081728/tools/bin/../lib/gcc/arm-none-eabi/8.3.1/../../../../arm-none-eabi/lib/thumb/v6-m/nofp/libcr_c.a(_fdopen.o)
                                                  /usr/local/mcuxpressoide-11.1.1_3241/ide/plugins/com.nxp.mcuxpresso.tools.linux_11.1.0.202001081728/tools/bin/../lib/gcc/arm-none-eabi/8.3.1/../../../../arm-none-eabi/lib/thumb/v6-m/nofp/libcr_c.a(initio.o)
_fflush                                           /usr/local/mcuxpressoide-11.1.1_3241/ide/plugins/com.nxp.mcuxpresso.tools.linux_11.1.0.202001081728/tools/bin/../lib/gcc/arm-none-eabi/8.3.1/../../../../arm-none-eabi/lib/thumb/v6-m/nofp/libcr_c.a(_fflush.o)
                                                  /usr/local/mcuxpressoide-11.1.1_3241/ide/plugins/com.nxp.mcuxpresso.tools.linux_11.1.0.202001081728/tools/bin/../lib/gcc/arm-none-eabi/8.3.1/../../../../arm-none-eabi/lib/thumb/v6-m/nofp/libcr_c.a(_do_fflush.o)
                                                  /usr/local/mcuxpressoide-11.1.1_3241/ide/plugins/com.nxp.mcuxpresso.tools.linux_11.1.0.202001081728/tools/bin/../lib/gcc/arm-none-eabi/8.3.1/../../../../arm-none-eabi/lib/thumb/v6-m/nofp/libcr_c.a(_deferredlazyseek.o)
_fprintf                                          /usr/local/mcuxpressoide-11.1.1_3241/ide/plugins/com.nxp.mcuxpresso.tools.linux_11.1.0.202001081728/tools/bin/../lib/gcc/arm-none-eabi/8.3.1/../../../../arm-none-eabi/lib/thumb/v6-m/nofp/libcr_c.a(printf.o)
_init_alloc                                       /usr/local/mcuxpressoide-11.1.1_3241/ide/plugins/com.nxp.mcuxpresso.tools.linux_11.1.0.202001081728/tools/bin/../lib/gcc/arm-none-eabi/8.3.1/../../../../arm-none-eabi/lib/thumb/v6-m/nofp/libcr_c.a(__init_alloc.o)
_initio                                           /usr/local/mcuxpressoide-11.1.1_3241/ide/plugins/com.nxp.mcuxpresso.tools.linux_11.1.0.202001081728/tools/bin/../lib/gcc/arm-none-eabi/8.3.1/../../../../arm-none-eabi/lib/thumb/v6-m/nofp/libcr_c.a(initio.o)
                                                  /usr/local/mcuxpressoide-11.1.1_3241/ide/plugins/com.nxp.mcuxpresso.tools.linux_11.1.0.202001081728/tools/bin/../lib/gcc/arm-none-eabi/8.3.1/../../../../arm-none-eabi/lib/thumb/v6-m/nofp/libcr_nohost_nf.a(_cr__main.o)
_printf                                           /usr/local/mcuxpressoide-11.1.1_3241/ide/plugins/com.nxp.mcuxpresso.tools.linux_11.1.0.202001081728/tools/bin/../lib/gcc/arm-none-eabi/8.3.1/../../../../arm-none-eabi/lib/thumb/v6-m/nofp/libcr_c.a(printf.o)
                                                  ./source/HDU/HDU.o
_printf_char                                      /usr/local/mcuxpressoide-11.1.1_3241/ide/plugins/com.nxp.mcuxpresso.tools.linux_11.1.0.202001081728/tools/bin/../lib/gcc/arm-none-eabi/8.3.1/../../../../arm-none-eabi/lib/thumb/v6-m/nofp/libcr_c.a(printf.o)
_pvHeapLimit                                      /usr/local/mcuxpressoide-11.1.1_3241/ide/plugins/com.nxp.mcuxpresso.tools.linux_11.1.0.202001081728/tools/bin/../lib/gcc/arm-none-eabi/8.3.1/../../../../arm-none-eabi/lib/thumb/v6-m/nofp/libcr_c.a(_cr_check_heap.o)
_pvHeapStart                                      /usr/local/mcuxpressoide-11.1.1_3241/ide/plugins/com.nxp.mcuxpresso.tools.linux_11.1.0.202001081728/tools/bin/../lib/gcc/arm-none-eabi/8.3.1/../../../../arm-none-eabi/lib/thumb/v6-m/nofp/libcr_c.a(_cr_sbrk.o)
_sbrk                                             /usr/local/mcuxpressoide-11.1.1_3241/ide/plugins/com.nxp.mcuxpresso.tools.linux_11.1.0.202001081728/tools/bin/../lib/gcc/arm-none-eabi/8.3.1/../../../../arm-none-eabi/lib/thumb/v6-m/nofp/libcr_c.a(_cr_sbrk.o)
                                                  /usr/local/mcuxpressoide-11.1.1_3241/ide/plugins/com.nxp.mcuxpresso.tools.linux_11.1.0.202001081728/tools/bin/../lib/gcc/arm-none-eabi/8.3.1/../../../../arm-none-eabi/lib/thumb/v6-m/nofp/libcr_c.a(alloc.o)
_snprintf                                         /usr/local/mcuxpressoide-11.1.1_3241/ide/plugins/com.nxp.mcuxpresso.tools.linux_11.1.0.202001081728/tools/bin/../lib/gcc/arm-none-eabi/8.3.1/../../../../arm-none-eabi/lib/thumb/v6-m/nofp/libcr_c.a(printf.o)
_sprintf                                          /usr/local/mcuxpressoide-11.1.1_3241/ide/plugins/com.nxp.mcuxpresso.tools.linux_11.1.0.202001081728/tools/bin/../lib/gcc/arm-none-eabi/8.3.1/../../../../arm-none-eabi/lib/thumb/v6-m/nofp/libcr_c.a(printf.o)
                                                  ./source/HDU/HDU_BLUETOOTH.o
_terminateio                                      /usr/local/mcuxpressoide-11.1.1_3241/ide/plugins/com.nxp.mcuxpresso.tools.linux_11.1.0.202001081728/tools/bin/../lib/gcc/arm-none-eabi/8.3.1/../../../../arm-none-eabi/lib/thumb/v6-m/nofp/libcr_c.a(initio.o)
_vStackTop                                        ./startup/startup_mkl25z4.o
_vfprintf                                         /usr/local/mcuxpressoide-11.1.1_3241/ide/plugins/com.nxp.mcuxpresso.tools.linux_11.1.0.202001081728/tools/bin/../lib/gcc/arm-none-eabi/8.3.1/../../../../arm-none-eabi/lib/thumb/v6-m/nofp/libcr_c.a(printf.o)
_vprintf                                          /usr/local/mcuxpressoide-11.1.1_3241/ide/plugins/com.nxp.mcuxpresso.tools.linux_11.1.0.202001081728/tools/bin/../lib/gcc/arm-none-eabi/8.3.1/../../../../arm-none-eabi/lib/thumb/v6-m/nofp/libcr_c.a(printf.o)
_vsnprintf                                        /usr/local/mcuxpressoide-11.1.1_3241/ide/plugins/com.nxp.mcuxpresso.tools.linux_11.1.0.202001081728/tools/bin/../lib/gcc/arm-none-eabi/8.3.1/../../../../arm-none-eabi/lib/thumb/v6-m/nofp/libcr_c.a(printf.o)
_vsprintf                                         /usr/local/mcuxpressoide-11.1.1_3241/ide/plugins/com.nxp.mcuxpresso.tools.linux_11.1.0.202001081728/tools/bin/../lib/gcc/arm-none-eabi/8.3.1/../../../../arm-none-eabi/lib/thumb/v6-m/nofp/libcr_c.a(printf.o)
adc0ChannelConfigStruct                           ./source/HDU/HDU_ADC0.o
adc0ConfigStruct                                  ./source/HDU/HDU_ADC0.o
bluetooth_uart_config                             ./source/HDU/HDU_BLUETOOTH.o
bss_init                                          ./startup/startup_mkl25z4.o
calloc                                            /usr/local/mcuxpressoide-11.1.1_3241/ide/plugins/com.nxp.mcuxpresso.tools.linux_11.1.0.202001081728/tools/bin/../lib/gcc/arm-none-eabi/8.3.1/../../../../arm-none-eabi/lib/thumb/v6-m/nofp/libcr_c.a(alloc.o)
cam_0_adc                                         ./source/HDU/HDU_LINESCAN.o
cam_1_adc                                         ./source/HDU/HDU_LINESCAN.o
data_init                                         ./startup/startup_mkl25z4.o
errno                                             /usr/local/mcuxpressoide-11.1.1_3241/ide/plugins/com.nxp.mcuxpresso.tools.linux_11.1.0.202001081728/tools/bin/../lib/gcc/arm-none-eabi/8.3.1/../../../../arm-none-eabi/lib/thumb/v6-m/nofp/libcr_c.a(errno.o)
                                                  /usr/local/mcuxpressoide-11.1.1_3241/ide/plugins/com.nxp.mcuxpresso.tools.linux_11.1.0.202001081728/tools/bin/../lib/gcc/arm-none-eabi/8.3.1/../../../../arm-none-eabi/lib/thumb/v6-m/nofp/libcr_c.a(_cr_sbrk.o)
                                                  /usr/local/mcuxpressoide-11.1.1_3241/ide/plugins/com.nxp.mcuxpresso.tools.linux_11.1.0.202001081728/tools/bin/../lib/gcc/arm-none-eabi/8.3.1/../../../../arm-none-eabi/lib/thumb/v6-m/nofp/libcr_c.a(ftell.o)
